{
  "_format": "hh-sol-artifact-1",
  "contractName": "Escrow",
  "sourceName": "contracts/Escrow.sol",
  "abi": [
    {
      "inputs": [
        {
          "internalType": "address",
          "name": "_arbiter",
          "type": "address"
        },
        {
          "internalType": "address",
          "name": "_consumerAddress",
          "type": "address"
        },
        {
          "internalType": "string",
          "name": "_issueID",
          "type": "string"
        },
        {
          "internalType": "string",
          "name": "_repo",
          "type": "string"
        }
      ],
      "stateMutability": "payable",
      "type": "constructor"
    },
    {
      "anonymous": false,
      "inputs": [
        {
          "indexed": false,
          "internalType": "uint256",
          "name": "balance",
          "type": "uint256"
        }
      ],
      "name": "Approved",
      "type": "event"
    },
    {
      "inputs": [],
      "name": "amount",
      "outputs": [
        {
          "internalType": "uint256",
          "name": "",
          "type": "uint256"
        }
      ],
      "stateMutability": "view",
      "type": "function"
    },
    {
      "inputs": [
        {
          "internalType": "address",
          "name": "_beneficiary",
          "type": "address"
        }
      ],
      "name": "approve",
      "outputs": [],
      "stateMutability": "payable",
      "type": "function"
    },
    {
      "inputs": [],
      "name": "arbiter",
      "outputs": [
        {
          "internalType": "address",
          "name": "",
          "type": "address"
        }
      ],
      "stateMutability": "view",
      "type": "function"
    },
    {
      "inputs": [],
      "name": "beneficiary",
      "outputs": [
        {
          "internalType": "address",
          "name": "",
          "type": "address"
        }
      ],
      "stateMutability": "view",
      "type": "function"
    },
    {
      "inputs": [],
      "name": "consumer",
      "outputs": [
        {
          "internalType": "contract FunctionsConsumerEscrow",
          "name": "",
          "type": "address"
        }
      ],
      "stateMutability": "view",
      "type": "function"
    },
    {
      "inputs": [],
      "name": "depositor",
      "outputs": [
        {
          "internalType": "address",
          "name": "",
          "type": "address"
        }
      ],
      "stateMutability": "view",
      "type": "function"
    },
    {
      "inputs": [],
      "name": "isApproved",
      "outputs": [
        {
          "internalType": "bool",
          "name": "",
          "type": "bool"
        }
      ],
      "stateMutability": "view",
      "type": "function"
    },
    {
      "inputs": [],
      "name": "issueID",
      "outputs": [
        {
          "internalType": "string",
          "name": "",
          "type": "string"
        }
      ],
      "stateMutability": "view",
      "type": "function"
    },
    {
      "inputs": [],
      "name": "makeFunctionRequest",
      "outputs": [],
      "stateMutability": "nonpayable",
      "type": "function"
    },
    {
      "inputs": [],
      "name": "repo",
      "outputs": [
        {
          "internalType": "string",
          "name": "",
          "type": "string"
        }
      ],
      "stateMutability": "view",
      "type": "function"
    }
  ],
  "bytecode": "0x60806040526000600260146101000a81548160ff021916908315150217905550604051620012da380380620012da8339818101604052810190620000449190620003fb565b83600260006101000a81548173ffffffffffffffffffffffffffffffffffffffff021916908373ffffffffffffffffffffffffffffffffffffffff16021790555081600490805190602001906200009d92919062000149565b508060059080519060200190620000b692919062000149565b5082600660006101000a81548173ffffffffffffffffffffffffffffffffffffffff021916908373ffffffffffffffffffffffffffffffffffffffff160217905550336000806101000a81548173ffffffffffffffffffffffffffffffffffffffff021916908373ffffffffffffffffffffffffffffffffffffffff160217905550346003819055505050505062000510565b8280546200015790620004da565b90600052602060002090601f0160209004810192826200017b5760008555620001c7565b82601f106200019657805160ff1916838001178555620001c7565b82800160010185558215620001c7579182015b82811115620001c6578251825591602001919060010190620001a9565b5b509050620001d69190620001da565b5090565b5b80821115620001f5576000816000905550600101620001db565b5090565b6000604051905090565b600080fd5b600080fd5b600073ffffffffffffffffffffffffffffffffffffffff82169050919050565b60006200023a826200020d565b9050919050565b6200024c816200022d565b81146200025857600080fd5b50565b6000815190506200026c8162000241565b92915050565b600080fd5b600080fd5b6000601f19601f8301169050919050565b7f4e487b7100000000000000000000000000000000000000000000000000000000600052604160045260246000fd5b620002c7826200027c565b810181811067ffffffffffffffff82111715620002e957620002e86200028d565b5b80604052505050565b6000620002fe620001f9565b90506200030c8282620002bc565b919050565b600067ffffffffffffffff8211156200032f576200032e6200028d565b5b6200033a826200027c565b9050602081019050919050565b60005b83811015620003675780820151818401526020810190506200034a565b8381111562000377576000848401525b50505050565b6000620003946200038e8462000311565b620002f2565b905082815260208101848484011115620003b357620003b262000277565b5b620003c084828562000347565b509392505050565b600082601f830112620003e057620003df62000272565b5b8151620003f28482602086016200037d565b91505092915050565b6000806000806080858703121562000418576200041762000203565b5b600062000428878288016200025b565b94505060206200043b878288016200025b565b935050604085015167ffffffffffffffff8111156200045f576200045e62000208565b5b6200046d87828801620003c8565b925050606085015167ffffffffffffffff81111562000491576200049062000208565b5b6200049f87828801620003c8565b91505092959194509250565b7f4e487b7100000000000000000000000000000000000000000000000000000000600052602260045260246000fd5b60006002820490506001821680620004f357607f821691505b602082108114156200050a5762000509620004ab565b5b50919050565b610dba80620005206000396000f3fe6080604052600436106100915760003560e01c8063aa8c217c11610059578063aa8c217c14610159578063b4fd729614610184578063c7c4ff46146101af578063daea85c5146101da578063fe25e00a146101f657610091565b806328f371aa1461009657806329b5c141146100c157806332bb4d30146100ec57806338af3eed1461010357806356ff31221461012e575b600080fd5b3480156100a257600080fd5b506100ab610221565b6040516100b89190610807565b60405180910390f35b3480156100cd57600080fd5b506100d6610234565b6040516100e391906108bb565b60405180910390f35b3480156100f857600080fd5b506101016102c2565b005b34801561010f57600080fd5b506101186104c9565b604051610125919061091e565b60405180910390f35b34801561013a57600080fd5b506101436104ef565b60405161015091906108bb565b60405180910390f35b34801561016557600080fd5b5061016e61057d565b60405161017b9190610952565b60405180910390f35b34801561019057600080fd5b50610199610583565b6040516101a691906109cc565b60405180910390f35b3480156101bb57600080fd5b506101c46105a9565b6040516101d1919061091e565b60405180910390f35b6101f460048036038101906101ef9190610a18565b6105cd565b005b34801561020257600080fd5b5061020b6107c6565b604051610218919061091e565b60405180910390f35b600260149054906101000a900460ff1681565b6004805461024190610a74565b80601f016020809104026020016040519081016040528092919081815260200182805461026d90610a74565b80156102ba5780601f1061028f576101008083540402835291602001916102ba565b820191906000526020600020905b81548152906001019060200180831161029d57829003601f168201915b505050505081565b6060600580546102d190610a74565b80601f01602080910402602001604051908101604052809291908181526020018280546102fd90610a74565b801561034a5780601f1061031f5761010080835404028352916020019161034a565b820191906000526020600020905b81548152906001019060200180831161032d57829003601f168201915b50505050508160008151811061036357610362610aa6565b5b60200260200101819052506004805461037b90610a74565b80601f01602080910402602001604051908101604052809291908181526020018280546103a790610a74565b80156103f45780601f106103c9576101008083540402835291602001916103f4565b820191906000526020600020905b8154815290600101906020018083116103d757829003601f168201915b50505050508160018151811061040d5761040c610aa6565b5b6020026020010181905250600660009054906101000a900473ffffffffffffffffffffffffffffffffffffffff1673ffffffffffffffffffffffffffffffffffffffff16636b8cfcd8826040518263ffffffff1660e01b81526004016104739190610be1565b602060405180830381600087803b15801561048d57600080fd5b505af11580156104a1573d6000803e3d6000fd5b505050506040513d601f19601f820116820180604052508101906104c59190610c39565b5050565b600160009054906101000a900473ffffffffffffffffffffffffffffffffffffffff1681565b600580546104fc90610a74565b80601f016020809104026020016040519081016040528092919081815260200182805461052890610a74565b80156105755780601f1061054a57610100808354040283529160200191610575565b820191906000526020600020905b81548152906001019060200180831161055857829003601f168201915b505050505081565b60035481565b600660009054906101000a900473ffffffffffffffffffffffffffffffffffffffff1681565b60008054906101000a900473ffffffffffffffffffffffffffffffffffffffff1681565b600260009054906101000a900473ffffffffffffffffffffffffffffffffffffffff1673ffffffffffffffffffffffffffffffffffffffff163373ffffffffffffffffffffffffffffffffffffffff161461065d576040517f08c379a000000000000000000000000000000000000000000000000000000000815260040161065490610cb2565b60405180910390fd5b6001600260146101000a81548160ff02191690831515021790555080600160006101000a81548173ffffffffffffffffffffffffffffffffffffffff021916908373ffffffffffffffffffffffffffffffffffffffff1602179055506000600160009054906101000a900473ffffffffffffffffffffffffffffffffffffffff1673ffffffffffffffffffffffffffffffffffffffff1660035460405161070390610d03565b60006040518083038185875af1925050503d8060008114610740576040519150601f19603f3d011682016040523d82523d6000602084013e610745565b606091505b5050905080610789576040517f08c379a000000000000000000000000000000000000000000000000000000000815260040161078090610d64565b60405180910390fd5b7f3ad93af63cb7967b23e4fb500b7d7d28b07516325dcf341f88bebf959d82c1cb6003546040516107ba9190610952565b60405180910390a15050565b600260009054906101000a900473ffffffffffffffffffffffffffffffffffffffff1681565b60008115159050919050565b610801816107ec565b82525050565b600060208201905061081c60008301846107f8565b92915050565b600081519050919050565b600082825260208201905092915050565b60005b8381101561085c578082015181840152602081019050610841565b8381111561086b576000848401525b50505050565b6000601f19601f8301169050919050565b600061088d82610822565b610897818561082d565b93506108a781856020860161083e565b6108b081610871565b840191505092915050565b600060208201905081810360008301526108d58184610882565b905092915050565b600073ffffffffffffffffffffffffffffffffffffffff82169050919050565b6000610908826108dd565b9050919050565b610918816108fd565b82525050565b6000602082019050610933600083018461090f565b92915050565b6000819050919050565b61094c81610939565b82525050565b60006020820190506109676000830184610943565b92915050565b6000819050919050565b600061099261098d610988846108dd565b61096d565b6108dd565b9050919050565b60006109a482610977565b9050919050565b60006109b682610999565b9050919050565b6109c6816109ab565b82525050565b60006020820190506109e160008301846109bd565b92915050565b600080fd5b6109f5816108fd565b8114610a0057600080fd5b50565b600081359050610a12816109ec565b92915050565b600060208284031215610a2e57610a2d6109e7565b5b6000610a3c84828501610a03565b91505092915050565b7f4e487b7100000000000000000000000000000000000000000000000000000000600052602260045260246000fd5b60006002820490506001821680610a8c57607f821691505b60208210811415610aa057610a9f610a45565b5b50919050565b7f4e487b7100000000000000000000000000000000000000000000000000000000600052603260045260246000fd5b600081519050919050565b600082825260208201905092915050565b6000819050602082019050919050565b600082825260208201905092915050565b6000610b1d82610822565b610b278185610b01565b9350610b3781856020860161083e565b610b4081610871565b840191505092915050565b6000610b578383610b12565b905092915050565b6000602082019050919050565b6000610b7782610ad5565b610b818185610ae0565b935083602082028501610b9385610af1565b8060005b85811015610bcf5784840389528151610bb08582610b4b565b9450610bbb83610b5f565b925060208a01995050600181019050610b97565b50829750879550505050505092915050565b60006020820190508181036000830152610bfb8184610b6c565b905092915050565b6000819050919050565b610c1681610c03565b8114610c2157600080fd5b50565b600081519050610c3381610c0d565b92915050565b600060208284031215610c4f57610c4e6109e7565b5b6000610c5d84828501610c24565b91505092915050565b7f4f6e6c7920617262697465722063616e20617070726f76650000000000000000600082015250565b6000610c9c60188361082d565b9150610ca782610c66565b602082019050919050565b60006020820190508181036000830152610ccb81610c8f565b9050919050565b600081905092915050565b50565b6000610ced600083610cd2565b9150610cf882610cdd565b600082019050919050565b6000610d0e82610ce0565b9150819050919050565b7f4661696c656420746f2073656e64204574686572000000000000000000000000600082015250565b6000610d4e60148361082d565b9150610d5982610d18565b602082019050919050565b60006020820190508181036000830152610d7d81610d41565b905091905056fea26469706673582212202a06fed8724984b23d4535df780b2d6fc98d5e15a02ed0831299dfaccd3dacae64736f6c63430008090033",
  "linkReferences": {},
  "deployedLinkReferences": {}
}