{
  "_format": "hh-sol-artifact-1",
  "contractName": "Escrow",
  "sourceName": "contracts/Escrow.sol",
  "abi": [
    {
      "inputs": [
        {
          "internalType": "address",
          "name": "_arbiter",
          "type": "address"
        },
        {
          "internalType": "address",
          "name": "_consumerAddress",
          "type": "address"
        },
        {
          "internalType": "string",
          "name": "_issueID",
          "type": "string"
        },
        {
          "internalType": "string",
          "name": "_repo",
          "type": "string"
        }
      ],
      "stateMutability": "payable",
      "type": "constructor"
    },
    {
      "anonymous": false,
      "inputs": [
        {
          "indexed": false,
          "internalType": "uint256",
          "name": "balance",
          "type": "uint256"
        }
      ],
      "name": "Approved",
      "type": "event"
    },
    {
      "inputs": [],
      "name": "amount",
      "outputs": [
        {
          "internalType": "uint256",
          "name": "",
          "type": "uint256"
        }
      ],
      "stateMutability": "view",
      "type": "function"
    },
    {
      "inputs": [
        {
          "internalType": "address",
          "name": "_beneficiary",
          "type": "address"
        }
      ],
      "name": "approve",
      "outputs": [],
      "stateMutability": "payable",
      "type": "function"
    },
    {
      "inputs": [],
      "name": "arbiter",
      "outputs": [
        {
          "internalType": "address",
          "name": "",
          "type": "address"
        }
      ],
      "stateMutability": "view",
      "type": "function"
    },
    {
      "inputs": [],
      "name": "beneficiary",
      "outputs": [
        {
          "internalType": "address",
          "name": "",
          "type": "address"
        }
      ],
      "stateMutability": "view",
      "type": "function"
    },
    {
      "inputs": [],
      "name": "consumer",
      "outputs": [
        {
          "internalType": "contract FunctionsConsumerEscrow",
          "name": "",
          "type": "address"
        }
      ],
      "stateMutability": "view",
      "type": "function"
    },
    {
      "inputs": [],
      "name": "depositor",
      "outputs": [
        {
          "internalType": "address",
          "name": "",
          "type": "address"
        }
      ],
      "stateMutability": "view",
      "type": "function"
    },
    {
      "inputs": [],
      "name": "isApproved",
      "outputs": [
        {
          "internalType": "bool",
          "name": "",
          "type": "bool"
        }
      ],
      "stateMutability": "view",
      "type": "function"
    },
    {
      "inputs": [],
      "name": "issueID",
      "outputs": [
        {
          "internalType": "string",
          "name": "",
          "type": "string"
        }
      ],
      "stateMutability": "view",
      "type": "function"
    },
    {
      "inputs": [],
      "name": "makeFunctionRequest",
      "outputs": [],
      "stateMutability": "nonpayable",
      "type": "function"
    },
    {
      "inputs": [],
      "name": "repo",
      "outputs": [
        {
          "internalType": "string",
          "name": "",
          "type": "string"
        }
      ],
      "stateMutability": "view",
      "type": "function"
    }
  ],
  "bytecode": "0x60806040526000600260146101000a81548160ff0219169083151502179055506040516200135a3803806200135a8339818101604052810190620000449190620003fb565b83600260006101000a81548173ffffffffffffffffffffffffffffffffffffffff021916908373ffffffffffffffffffffffffffffffffffffffff16021790555081600490805190602001906200009d92919062000149565b508060059080519060200190620000b692919062000149565b5082600660006101000a81548173ffffffffffffffffffffffffffffffffffffffff021916908373ffffffffffffffffffffffffffffffffffffffff160217905550336000806101000a81548173ffffffffffffffffffffffffffffffffffffffff021916908373ffffffffffffffffffffffffffffffffffffffff160217905550346003819055505050505062000510565b8280546200015790620004da565b90600052602060002090601f0160209004810192826200017b5760008555620001c7565b82601f106200019657805160ff1916838001178555620001c7565b82800160010185558215620001c7579182015b82811115620001c6578251825591602001919060010190620001a9565b5b509050620001d69190620001da565b5090565b5b80821115620001f5576000816000905550600101620001db565b5090565b6000604051905090565b600080fd5b600080fd5b600073ffffffffffffffffffffffffffffffffffffffff82169050919050565b60006200023a826200020d565b9050919050565b6200024c816200022d565b81146200025857600080fd5b50565b6000815190506200026c8162000241565b92915050565b600080fd5b600080fd5b6000601f19601f8301169050919050565b7f4e487b7100000000000000000000000000000000000000000000000000000000600052604160045260246000fd5b620002c7826200027c565b810181811067ffffffffffffffff82111715620002e957620002e86200028d565b5b80604052505050565b6000620002fe620001f9565b90506200030c8282620002bc565b919050565b600067ffffffffffffffff8211156200032f576200032e6200028d565b5b6200033a826200027c565b9050602081019050919050565b60005b83811015620003675780820151818401526020810190506200034a565b8381111562000377576000848401525b50505050565b6000620003946200038e8462000311565b620002f2565b905082815260208101848484011115620003b357620003b262000277565b5b620003c084828562000347565b509392505050565b600082601f830112620003e057620003df62000272565b5b8151620003f28482602086016200037d565b91505092915050565b6000806000806080858703121562000418576200041762000203565b5b600062000428878288016200025b565b94505060206200043b878288016200025b565b935050604085015167ffffffffffffffff8111156200045f576200045e62000208565b5b6200046d87828801620003c8565b925050606085015167ffffffffffffffff81111562000491576200049062000208565b5b6200049f87828801620003c8565b91505092959194509250565b7f4e487b7100000000000000000000000000000000000000000000000000000000600052602260045260246000fd5b60006002820490506001821680620004f357607f821691505b602082108114156200050a5762000509620004ab565b5b50919050565b610e3a80620005206000396000f3fe6080604052600436106100915760003560e01c8063aa8c217c11610059578063aa8c217c14610159578063b4fd729614610184578063c7c4ff46146101af578063daea85c5146101da578063fe25e00a146101f657610091565b806328f371aa1461009657806329b5c141146100c157806332bb4d30146100ec57806338af3eed1461010357806356ff31221461012e575b600080fd5b3480156100a257600080fd5b506100ab610221565b6040516100b89190610858565b60405180910390f35b3480156100cd57600080fd5b506100d6610234565b6040516100e3919061090c565b60405180910390f35b3480156100f857600080fd5b506101016102c2565b005b34801561010f57600080fd5b5061011861051a565b604051610125919061096f565b60405180910390f35b34801561013a57600080fd5b50610143610540565b604051610150919061090c565b60405180910390f35b34801561016557600080fd5b5061016e6105ce565b60405161017b91906109a3565b60405180910390f35b34801561019057600080fd5b506101996105d4565b6040516101a69190610a1d565b60405180910390f35b3480156101bb57600080fd5b506101c46105fa565b6040516101d1919061096f565b60405180910390f35b6101f460048036038101906101ef9190610a69565b61061e565b005b34801561020257600080fd5b5061020b610817565b604051610218919061096f565b60405180910390f35b600260149054906101000a900460ff1681565b6004805461024190610ac5565b80601f016020809104026020016040519081016040528092919081815260200182805461026d90610ac5565b80156102ba5780601f1061028f576101008083540402835291602001916102ba565b820191906000526020600020905b81548152906001019060200180831161029d57829003601f168201915b505050505081565b6000600267ffffffffffffffff8111156102df576102de610af7565b5b60405190808252806020026020018201604052801561031257816020015b60608152602001906001900390816102fd5790505b5090506005805461032290610ac5565b80601f016020809104026020016040519081016040528092919081815260200182805461034e90610ac5565b801561039b5780601f106103705761010080835404028352916020019161039b565b820191906000526020600020905b81548152906001019060200180831161037e57829003601f168201915b5050505050816000815181106103b4576103b3610b26565b5b6020026020010181905250600480546103cc90610ac5565b80601f01602080910402602001604051908101604052809291908181526020018280546103f890610ac5565b80156104455780601f1061041a57610100808354040283529160200191610445565b820191906000526020600020905b81548152906001019060200180831161042857829003601f168201915b50505050508160018151811061045e5761045d610b26565b5b6020026020010181905250600660009054906101000a900473ffffffffffffffffffffffffffffffffffffffff1673ffffffffffffffffffffffffffffffffffffffff16636b8cfcd8826040518263ffffffff1660e01b81526004016104c49190610c61565b602060405180830381600087803b1580156104de57600080fd5b505af11580156104f2573d6000803e3d6000fd5b505050506040513d601f19601f820116820180604052508101906105169190610cb9565b5050565b600160009054906101000a900473ffffffffffffffffffffffffffffffffffffffff1681565b6005805461054d90610ac5565b80601f016020809104026020016040519081016040528092919081815260200182805461057990610ac5565b80156105c65780601f1061059b576101008083540402835291602001916105c6565b820191906000526020600020905b8154815290600101906020018083116105a957829003601f168201915b505050505081565b60035481565b600660009054906101000a900473ffffffffffffffffffffffffffffffffffffffff1681565b60008054906101000a900473ffffffffffffffffffffffffffffffffffffffff1681565b600260009054906101000a900473ffffffffffffffffffffffffffffffffffffffff1673ffffffffffffffffffffffffffffffffffffffff163373ffffffffffffffffffffffffffffffffffffffff16146106ae576040517f08c379a00000000000000000000000000000000000000000000000000000000081526004016106a590610d32565b60405180910390fd5b6001600260146101000a81548160ff02191690831515021790555080600160006101000a81548173ffffffffffffffffffffffffffffffffffffffff021916908373ffffffffffffffffffffffffffffffffffffffff1602179055506000600160009054906101000a900473ffffffffffffffffffffffffffffffffffffffff1673ffffffffffffffffffffffffffffffffffffffff1660035460405161075490610d83565b60006040518083038185875af1925050503d8060008114610791576040519150601f19603f3d011682016040523d82523d6000602084013e610796565b606091505b50509050806107da576040517f08c379a00000000000000000000000000000000000000000000000000000000081526004016107d190610de4565b60405180910390fd5b7f3ad93af63cb7967b23e4fb500b7d7d28b07516325dcf341f88bebf959d82c1cb60035460405161080b91906109a3565b60405180910390a15050565b600260009054906101000a900473ffffffffffffffffffffffffffffffffffffffff1681565b60008115159050919050565b6108528161083d565b82525050565b600060208201905061086d6000830184610849565b92915050565b600081519050919050565b600082825260208201905092915050565b60005b838110156108ad578082015181840152602081019050610892565b838111156108bc576000848401525b50505050565b6000601f19601f8301169050919050565b60006108de82610873565b6108e8818561087e565b93506108f881856020860161088f565b610901816108c2565b840191505092915050565b6000602082019050818103600083015261092681846108d3565b905092915050565b600073ffffffffffffffffffffffffffffffffffffffff82169050919050565b60006109598261092e565b9050919050565b6109698161094e565b82525050565b60006020820190506109846000830184610960565b92915050565b6000819050919050565b61099d8161098a565b82525050565b60006020820190506109b86000830184610994565b92915050565b6000819050919050565b60006109e36109de6109d98461092e565b6109be565b61092e565b9050919050565b60006109f5826109c8565b9050919050565b6000610a07826109ea565b9050919050565b610a17816109fc565b82525050565b6000602082019050610a326000830184610a0e565b92915050565b600080fd5b610a468161094e565b8114610a5157600080fd5b50565b600081359050610a6381610a3d565b92915050565b600060208284031215610a7f57610a7e610a38565b5b6000610a8d84828501610a54565b91505092915050565b7f4e487b7100000000000000000000000000000000000000000000000000000000600052602260045260246000fd5b60006002820490506001821680610add57607f821691505b60208210811415610af157610af0610a96565b5b50919050565b7f4e487b7100000000000000000000000000000000000000000000000000000000600052604160045260246000fd5b7f4e487b7100000000000000000000000000000000000000000000000000000000600052603260045260246000fd5b600081519050919050565b600082825260208201905092915050565b6000819050602082019050919050565b600082825260208201905092915050565b6000610b9d82610873565b610ba78185610b81565b9350610bb781856020860161088f565b610bc0816108c2565b840191505092915050565b6000610bd78383610b92565b905092915050565b6000602082019050919050565b6000610bf782610b55565b610c018185610b60565b935083602082028501610c1385610b71565b8060005b85811015610c4f5784840389528151610c308582610bcb565b9450610c3b83610bdf565b925060208a01995050600181019050610c17565b50829750879550505050505092915050565b60006020820190508181036000830152610c7b8184610bec565b905092915050565b6000819050919050565b610c9681610c83565b8114610ca157600080fd5b50565b600081519050610cb381610c8d565b92915050565b600060208284031215610ccf57610cce610a38565b5b6000610cdd84828501610ca4565b91505092915050565b7f4f6e6c7920617262697465722063616e20617070726f76650000000000000000600082015250565b6000610d1c60188361087e565b9150610d2782610ce6565b602082019050919050565b60006020820190508181036000830152610d4b81610d0f565b9050919050565b600081905092915050565b50565b6000610d6d600083610d52565b9150610d7882610d5d565b600082019050919050565b6000610d8e82610d60565b9150819050919050565b7f4661696c656420746f2073656e64204574686572000000000000000000000000600082015250565b6000610dce60148361087e565b9150610dd982610d98565b602082019050919050565b60006020820190508181036000830152610dfd81610dc1565b905091905056fea26469706673582212203ec49299d7005844f0b84c57b220693948d7f9c590b5720fb2e5ab3291f4a8d864736f6c63430008090033",
  "linkReferences": {},
  "deployedLinkReferences": {}
}