{
  "_format": "hh-sol-artifact-1",
  "contractName": "Main",
  "sourceName": "contracts/Main.sol",
  "abi": [
    {
      "inputs": [],
      "name": "createEscrowContract",
      "outputs": [
        {
          "internalType": "uint256",
          "name": "count",
          "type": "uint256"
        }
      ],
      "stateMutability": "nonpayable",
      "type": "function"
    },
    {
      "inputs": [
        {
          "internalType": "uint256",
          "name": "",
          "type": "uint256"
        }
      ],
      "name": "escrowArray",
      "outputs": [
        {
          "internalType": "contract Escrow",
          "name": "",
          "type": "address"
        }
      ],
      "stateMutability": "view",
      "type": "function"
    },
    {
      "inputs": [
        {
          "internalType": "uint256",
          "name": "_escrowIndex",
          "type": "uint256"
        }
      ],
      "name": "sfGet",
      "outputs": [
        {
          "internalType": "uint256",
          "name": "",
          "type": "uint256"
        }
      ],
      "stateMutability": "view",
      "type": "function"
    },
    {
      "inputs": [
        {
          "internalType": "uint256",
          "name": "_escrowIndex",
          "type": "uint256"
        },
        {
          "internalType": "uint256",
          "name": "_escrowNumber",
          "type": "uint256"
        }
      ],
      "name": "sfStore",
      "outputs": [],
      "stateMutability": "nonpayable",
      "type": "function"
    }
  ],
  "bytecode": "0x608060405234801561001057600080fd5b50610d18806100206000396000f3fe608060405234801561001057600080fd5b506004361061004c5760003560e01c80631563700f146100515780632587b4911461006d57806392376e441461008b578063c5f19c20146100bb575b600080fd5b61006b60048036038101906100669190610380565b6100eb565b005b610075610198565b60405161008291906103cf565b60405180910390f35b6100a560048036038101906100a091906103ea565b610235565b6040516100b29190610496565b60405180910390f35b6100d560048036038101906100d091906103ea565b610274565b6040516100e291906103cf565b60405180910390f35b600082815481106100ff576100fe6104b1565b5b9060005260206000200160009054906101000a900473ffffffffffffffffffffffffffffffffffffffff1673ffffffffffffffffffffffffffffffffffffffff16636057361d826040518263ffffffff1660e01b815260040161016291906103cf565b600060405180830381600087803b15801561017c57600080fd5b505af1158015610190573d6000803e3d6000fd5b505050505050565b6000806040516101a790610338565b604051809103906000f0801580156101c3573d6000803e3d6000fd5b5090506000819080600181540180825580915050600190039060005260206000200160009091909190916101000a81548173ffffffffffffffffffffffffffffffffffffffff021916908373ffffffffffffffffffffffffffffffffffffffff16021790555060008054905091505090565b6000818154811061024557600080fd5b906000526020600020016000915054906101000a900473ffffffffffffffffffffffffffffffffffffffff1681565b6000808281548110610289576102886104b1565b5b9060005260206000200160009054906101000a900473ffffffffffffffffffffffffffffffffffffffff1673ffffffffffffffffffffffffffffffffffffffff16632e64cec16040518163ffffffff1660e01b815260040160206040518083038186803b1580156102f957600080fd5b505afa15801561030d573d6000803e3d6000fd5b505050506040513d601f19601f8201168201806040525081019061033191906104f5565b9050919050565b6107c08061052383390190565b600080fd5b6000819050919050565b61035d8161034a565b811461036857600080fd5b50565b60008135905061037a81610354565b92915050565b6000806040838503121561039757610396610345565b5b60006103a58582860161036b565b92505060206103b68582860161036b565b9150509250929050565b6103c98161034a565b82525050565b60006020820190506103e460008301846103c0565b92915050565b600060208284031215610400576103ff610345565b5b600061040e8482850161036b565b91505092915050565b600073ffffffffffffffffffffffffffffffffffffffff82169050919050565b6000819050919050565b600061045c61045761045284610417565b610437565b610417565b9050919050565b600061046e82610441565b9050919050565b600061048082610463565b9050919050565b61049081610475565b82525050565b60006020820190506104ab6000830184610487565b92915050565b7f4e487b7100000000000000000000000000000000000000000000000000000000600052603260045260246000fd5b6000815190506104ef81610354565b92915050565b60006020828403121561050b5761050a610345565b5b6000610519848285016104e0565b9150509291505056fe608060405234801561001057600080fd5b506107a0806100206000396000f3fe608060405234801561001057600080fd5b50600436106100625760003560e01c80632e64cec114610067578063471f7cdf146100855780636057361d146100a35780636f760f41146100bf5780638bab8dd5146100db5780639e7a13ad1461010b575b600080fd5b61006f61013c565b60405161007c919061038b565b60405180910390f35b61008d610145565b60405161009a919061038b565b60405180910390f35b6100bd60048036038101906100b891906103e6565b61014b565b005b6100d960048036038101906100d49190610559565b610155565b005b6100f560048036038101906100f091906105b5565b6101e5565b604051610102919061038b565b60405180910390f35b610125600480360381019061012091906103e6565b610213565b604051610133929190610686565b60405180910390f35b60008054905090565b60005481565b8060008190555050565b600160405180604001604052808381526020018481525090806001815401808255809150506001900390600052602060002090600202016000909190919091506000820151816000015560208201518160010190805190602001906101bb9291906102cf565b505050806002836040516101cf91906106f2565b9081526020016040518091039020819055505050565b6002818051602081018201805184825260208301602085012081835280955050505050506000915090505481565b6001818154811061022357600080fd5b906000526020600020906002020160009150905080600001549080600101805461024c90610738565b80601f016020809104026020016040519081016040528092919081815260200182805461027890610738565b80156102c55780601f1061029a576101008083540402835291602001916102c5565b820191906000526020600020905b8154815290600101906020018083116102a857829003601f168201915b5050505050905082565b8280546102db90610738565b90600052602060002090601f0160209004810192826102fd5760008555610344565b82601f1061031657805160ff1916838001178555610344565b82800160010185558215610344579182015b82811115610343578251825591602001919060010190610328565b5b5090506103519190610355565b5090565b5b8082111561036e576000816000905550600101610356565b5090565b6000819050919050565b61038581610372565b82525050565b60006020820190506103a0600083018461037c565b92915050565b6000604051905090565b600080fd5b600080fd5b6103c381610372565b81146103ce57600080fd5b50565b6000813590506103e0816103ba565b92915050565b6000602082840312156103fc576103fb6103b0565b5b600061040a848285016103d1565b91505092915050565b600080fd5b600080fd5b6000601f19601f8301169050919050565b7f4e487b7100000000000000000000000000000000000000000000000000000000600052604160045260246000fd5b6104668261041d565b810181811067ffffffffffffffff821117156104855761048461042e565b5b80604052505050565b60006104986103a6565b90506104a4828261045d565b919050565b600067ffffffffffffffff8211156104c4576104c361042e565b5b6104cd8261041d565b9050602081019050919050565b82818337600083830152505050565b60006104fc6104f7846104a9565b61048e565b90508281526020810184848401111561051857610517610418565b5b6105238482856104da565b509392505050565b600082601f8301126105405761053f610413565b5b81356105508482602086016104e9565b91505092915050565b600080604083850312156105705761056f6103b0565b5b600083013567ffffffffffffffff81111561058e5761058d6103b5565b5b61059a8582860161052b565b92505060206105ab858286016103d1565b9150509250929050565b6000602082840312156105cb576105ca6103b0565b5b600082013567ffffffffffffffff8111156105e9576105e86103b5565b5b6105f58482850161052b565b91505092915050565b600081519050919050565b600082825260208201905092915050565b60005b8381101561063857808201518184015260208101905061061d565b83811115610647576000848401525b50505050565b6000610658826105fe565b6106628185610609565b935061067281856020860161061a565b61067b8161041d565b840191505092915050565b600060408201905061069b600083018561037c565b81810360208301526106ad818461064d565b90509392505050565b600081905092915050565b60006106cc826105fe565b6106d681856106b6565b93506106e681856020860161061a565b80840191505092915050565b60006106fe82846106c1565b915081905092915050565b7f4e487b7100000000000000000000000000000000000000000000000000000000600052602260045260246000fd5b6000600282049050600182168061075057607f821691505b6020821081141561076457610763610709565b5b5091905056fea26469706673582212207ebf0599e713f9b1ee2108c78596bc4c354fcd9244c8c4642c4a569582b3905864736f6c63430008090033a26469706673582212203b12b9a7bde775e14749b11fb54afafb2cd6b33bca950b21bdaaacdc5482036664736f6c63430008090033",
  "linkReferences": {},
  "deployedLinkReferences": {}
}