{
  "_format": "hh-sol-artifact-1",
  "contractName": "Main",
  "sourceName": "contracts/Main.sol",
  "abi": [
    {
      "anonymous": false,
      "inputs": [
        {
          "indexed": true,
          "internalType": "address",
          "name": "escrowContract",
          "type": "address"
        },
        {
          "indexed": true,
          "internalType": "address",
          "name": "arbiter",
          "type": "address"
        },
        {
          "indexed": true,
          "internalType": "address",
          "name": "depositor",
          "type": "address"
        },
        {
          "indexed": false,
          "internalType": "uint256",
          "name": "amount",
          "type": "uint256"
        },
        {
          "indexed": false,
          "internalType": "string",
          "name": "ownerUserName",
          "type": "string"
        },
        {
          "indexed": false,
          "internalType": "string",
          "name": "issueId",
          "type": "string"
        },
        {
          "indexed": false,
          "internalType": "string",
          "name": "repo",
          "type": "string"
        }
      ],
      "name": "EscrowCreated",
      "type": "event"
    },
    {
      "anonymous": false,
      "inputs": [
        {
          "indexed": true,
          "internalType": "address",
          "name": "developer",
          "type": "address"
        },
        {
          "indexed": false,
          "internalType": "string",
          "name": "loginName",
          "type": "string"
        }
      ],
      "name": "NewDeveloper",
      "type": "event"
    },
    {
      "inputs": [
        {
          "internalType": "uint256",
          "name": "",
          "type": "uint256"
        }
      ],
      "name": "Developers",
      "outputs": [
        {
          "internalType": "address",
          "name": "developerAddress",
          "type": "address"
        },
        {
          "internalType": "string",
          "name": "loginName",
          "type": "string"
        }
      ],
      "stateMutability": "view",
      "type": "function"
    },
    {
      "inputs": [
        {
          "internalType": "address",
          "name": "",
          "type": "address"
        }
      ],
      "name": "EscrowExists",
      "outputs": [
        {
          "internalType": "bool",
          "name": "",
          "type": "bool"
        }
      ],
      "stateMutability": "view",
      "type": "function"
    },
    {
      "inputs": [
        {
          "internalType": "uint256",
          "name": "",
          "type": "uint256"
        }
      ],
      "name": "Escrows",
      "outputs": [
        {
          "internalType": "address",
          "name": "escrowContract",
          "type": "address"
        },
        {
          "internalType": "string",
          "name": "ownerUserName",
          "type": "string"
        },
        {
          "internalType": "string",
          "name": "issueId",
          "type": "string"
        },
        {
          "internalType": "string",
          "name": "repo",
          "type": "string"
        }
      ],
      "stateMutability": "view",
      "type": "function"
    },
    {
      "inputs": [],
      "name": "EscrowsIsEmpty",
      "outputs": [
        {
          "internalType": "bool",
          "name": "",
          "type": "bool"
        }
      ],
      "stateMutability": "view",
      "type": "function"
    },
    {
      "inputs": [
        {
          "internalType": "address",
          "name": "_developer",
          "type": "address"
        },
        {
          "internalType": "string",
          "name": "_loginName",
          "type": "string"
        }
      ],
      "name": "addDeveloper",
      "outputs": [],
      "stateMutability": "nonpayable",
      "type": "function"
    },
    {
      "inputs": [],
      "name": "consumerAddress",
      "outputs": [
        {
          "internalType": "address",
          "name": "",
          "type": "address"
        }
      ],
      "stateMutability": "view",
      "type": "function"
    },
    {
      "inputs": [
        {
          "internalType": "address",
          "name": "_arbiter",
          "type": "address"
        },
        {
          "internalType": "string",
          "name": "_ownerUserName",
          "type": "string"
        },
        {
          "internalType": "string",
          "name": "_issueId",
          "type": "string"
        },
        {
          "internalType": "string",
          "name": "_repo",
          "type": "string"
        }
      ],
      "name": "createEscrow",
      "outputs": [],
      "stateMutability": "payable",
      "type": "function"
    },
    {
      "inputs": [],
      "name": "createEscrowPreset",
      "outputs": [],
      "stateMutability": "payable",
      "type": "function"
    },
    {
      "inputs": [],
      "name": "getDevelopers",
      "outputs": [
        {
          "components": [
            {
              "internalType": "address",
              "name": "developerAddress",
              "type": "address"
            },
            {
              "internalType": "string",
              "name": "loginName",
              "type": "string"
            }
          ],
          "internalType": "struct Main.Developer_info[]",
          "name": "",
          "type": "tuple[]"
        }
      ],
      "stateMutability": "view",
      "type": "function"
    },
    {
      "inputs": [],
      "name": "getEscrows",
      "outputs": [
        {
          "components": [
            {
              "internalType": "address",
              "name": "escrowContract",
              "type": "address"
            },
            {
              "internalType": "string",
              "name": "ownerUserName",
              "type": "string"
            },
            {
              "internalType": "string",
              "name": "issueId",
              "type": "string"
            },
            {
              "internalType": "string",
              "name": "repo",
              "type": "string"
            }
          ],
          "internalType": "struct Main.Escrow_info[]",
          "name": "",
          "type": "tuple[]"
        }
      ],
      "stateMutability": "view",
      "type": "function"
    },
    {
      "inputs": [
        {
          "internalType": "address",
          "name": "_contractAddress",
          "type": "address"
        }
      ],
      "name": "isEscrow",
      "outputs": [
        {
          "internalType": "bool",
          "name": "",
          "type": "bool"
        }
      ],
      "stateMutability": "view",
      "type": "function"
    },
    {
      "inputs": [
        {
          "internalType": "address",
          "name": "_consumerAddress",
          "type": "address"
        }
      ],
      "name": "setConsumerAddress",
      "outputs": [],
      "stateMutability": "nonpayable",
      "type": "function"
    }
  ],
  "bytecode": "0x608060405234801561001057600080fd5b5061305e806100206000396000f3fe608060405260043610620000b65760003560e01c8063b166a09f116200006d578063b166a09f14620001bc578063c368d0ed1462000200578063dbc2d0421462000230578063de90517c1462000260578063e0feee3714620002a5578063efe2c8a414620002e957620000b6565b80630562b54614620000bb578063105cf3bf14620000db57806351d38d5f14620000e75780635309eb8414620001155780636afcb6da146200015c578063b0f2ccc5146200018c575b600080fd5b620000d96004803603810190620000d39190620013ea565b62000317565b005b620000e562000568565b005b348015620000f457600080fd5b506200011360048036038101906200010d9190620014b9565b62000872565b005b3480156200012257600080fd5b506200014160048036038101906200013b91906200155a565b62000984565b60405162000153949392919062001630565b60405180910390f35b3480156200016957600080fd5b506200017462000b95565b6040516200018391906200183e565b60405180910390f35b3480156200019957600080fd5b50620001a462000e1a565b604051620001b3919062001973565b60405180910390f35b348015620001c957600080fd5b50620001e86004803603810190620001e2919062001997565b62000f6b565b604051620001f79190620019e6565b60405180910390f35b3480156200020d57600080fd5b506200021862000fc0565b604051620002279190620019e6565b60405180910390f35b3480156200023d57600080fd5b506200024862000fe2565b60405162000257919062001a03565b60405180910390f35b3480156200026d57600080fd5b506200028c60048036038101906200028691906200155a565b62001008565b6040516200029c92919062001a20565b60405180910390f35b348015620002b257600080fd5b50620002d16004803603810190620002cb919062001997565b620010ed565b604051620002e09190620019e6565b60405180910390f35b348015620002f657600080fd5b506200031560048036038101906200030f919062001997565b6200110d565b005b60003485600360009054906101000a900473ffffffffffffffffffffffffffffffffffffffff1685856040516200034e9062001151565b6200035d949392919062001a54565b6040518091039082f09050801580156200037b573d6000803e3d6000fd5b509050600160405180608001604052808373ffffffffffffffffffffffffffffffffffffffff16815260200186815260200185815260200184815250908060018154018082558091505060019003906000526020600020906004020160009091909190915060008201518160000160006101000a81548173ffffffffffffffffffffffffffffffffffffffff021916908373ffffffffffffffffffffffffffffffffffffffff1602179055506020820151816001019080519060200190620004459291906200115f565b506040820151816002019080519060200190620004649291906200115f565b506060820151816003019080519060200190620004839291906200115f565b50505060016000808373ffffffffffffffffffffffffffffffffffffffff1673ffffffffffffffffffffffffffffffffffffffff16815260200190815260200160002060006101000a81548160ff0219169083151502179055503373ffffffffffffffffffffffffffffffffffffffff168573ffffffffffffffffffffffffffffffffffffffff168273ffffffffffffffffffffffffffffffffffffffff167f1eaf79c96eb8ad86e83049cf0e93f27f54714b560178ad5d44180dfbb9dad3693488888860405162000559949392919062001ac0565b60405180910390a45050505050565b60003473a92370db81cd337d1d1b7b07da2839c2fbf88d09600360009054906101000a900473ffffffffffffffffffffffffffffffffffffffff16604051620005b19062001151565b620005be92919062001bc2565b6040518091039082f0905080158015620005dc573d6000803e3d6000fd5b509050600160405180608001604052808373ffffffffffffffffffffffffffffffffffffffff1681526020016040518060400160405280600881526020017f746573744e616d6500000000000000000000000000000000000000000000000081525081526020016040518060400160405280600381526020017f373737000000000000000000000000000000000000000000000000000000000081525081526020016040518060400160405280600881526020017f6e6f74696f6e616c000000000000000000000000000000000000000000000000815250815250908060018154018082558091505060019003906000526020600020906004020160009091909190915060008201518160000160006101000a81548173ffffffffffffffffffffffffffffffffffffffff021916908373ffffffffffffffffffffffffffffffffffffffff1602179055506020820151816001019080519060200190620007459291906200115f565b506040820151816002019080519060200190620007649291906200115f565b506060820151816003019080519060200190620007839291906200115f565b50505060016000808373ffffffffffffffffffffffffffffffffffffffff1673ffffffffffffffffffffffffffffffffffffffff16815260200190815260200160002060006101000a81548160ff0219169083151502179055503373ffffffffffffffffffffffffffffffffffffffff1673a92370db81cd337d1d1b7b07da2839c2fbf88d0973ffffffffffffffffffffffffffffffffffffffff168273ffffffffffffffffffffffffffffffffffffffff167f1eaf79c96eb8ad86e83049cf0e93f27f54714b560178ad5d44180dfbb9dad3693460405162000867919062001c69565b60405180910390a450565b600260405180604001604052808473ffffffffffffffffffffffffffffffffffffffff16815260200183815250908060018154018082558091505060019003906000526020600020906002020160009091909190915060008201518160000160006101000a81548173ffffffffffffffffffffffffffffffffffffffff021916908373ffffffffffffffffffffffffffffffffffffffff16021790555060208201518160010190805190602001906200092d9291906200115f565b5050508173ffffffffffffffffffffffffffffffffffffffff167f9b892d7eba231cc393b8a6817238327f7faaef28ab4532472915be02628d5fa88260405162000978919062001cc5565b60405180910390a25050565b600181815481106200099557600080fd5b90600052602060002090600402016000915090508060000160009054906101000a900473ffffffffffffffffffffffffffffffffffffffff1690806001018054620009e09062001d18565b80601f016020809104026020016040519081016040528092919081815260200182805462000a0e9062001d18565b801562000a5f5780601f1062000a335761010080835404028352916020019162000a5f565b820191906000526020600020905b81548152906001019060200180831162000a4157829003601f168201915b50505050509080600201805462000a769062001d18565b80601f016020809104026020016040519081016040528092919081815260200182805462000aa49062001d18565b801562000af55780601f1062000ac95761010080835404028352916020019162000af5565b820191906000526020600020905b81548152906001019060200180831162000ad757829003601f168201915b50505050509080600301805462000b0c9062001d18565b80601f016020809104026020016040519081016040528092919081815260200182805462000b3a9062001d18565b801562000b8b5780601f1062000b5f5761010080835404028352916020019162000b8b565b820191906000526020600020905b81548152906001019060200180831162000b6d57829003601f168201915b5050505050905084565b60606001805480602002602001604051908101604052809291908181526020016000905b8282101562000e1157838290600052602060002090600402016040518060800160405290816000820160009054906101000a900473ffffffffffffffffffffffffffffffffffffffff1673ffffffffffffffffffffffffffffffffffffffff1673ffffffffffffffffffffffffffffffffffffffff16815260200160018201805462000c459062001d18565b80601f016020809104026020016040519081016040528092919081815260200182805462000c739062001d18565b801562000cc45780601f1062000c985761010080835404028352916020019162000cc4565b820191906000526020600020905b81548152906001019060200180831162000ca657829003601f168201915b5050505050815260200160028201805462000cdf9062001d18565b80601f016020809104026020016040519081016040528092919081815260200182805462000d0d9062001d18565b801562000d5e5780601f1062000d325761010080835404028352916020019162000d5e565b820191906000526020600020905b81548152906001019060200180831162000d4057829003601f168201915b5050505050815260200160038201805462000d799062001d18565b80601f016020809104026020016040519081016040528092919081815260200182805462000da79062001d18565b801562000df85780601f1062000dcc5761010080835404028352916020019162000df8565b820191906000526020600020905b81548152906001019060200180831162000dda57829003601f168201915b5050505050815250508152602001906001019062000bb9565b50505050905090565b60606002805480602002602001604051908101604052809291908181526020016000905b8282101562000f6257838290600052602060002090600202016040518060400160405290816000820160009054906101000a900473ffffffffffffffffffffffffffffffffffffffff1673ffffffffffffffffffffffffffffffffffffffff1673ffffffffffffffffffffffffffffffffffffffff16815260200160018201805462000eca9062001d18565b80601f016020809104026020016040519081016040528092919081815260200182805462000ef89062001d18565b801562000f495780601f1062000f1d5761010080835404028352916020019162000f49565b820191906000526020600020905b81548152906001019060200180831162000f2b57829003601f168201915b5050505050815250508152602001906001019062000e3e565b50505050905090565b60008060008373ffffffffffffffffffffffffffffffffffffffff1673ffffffffffffffffffffffffffffffffffffffff16815260200190815260200160002060009054906101000a900460ff169050919050565b600080600180549050141562000fda576001905062000fdf565b600090505b90565b600360009054906101000a900473ffffffffffffffffffffffffffffffffffffffff1681565b600281815481106200101957600080fd5b90600052602060002090600202016000915090508060000160009054906101000a900473ffffffffffffffffffffffffffffffffffffffff1690806001018054620010649062001d18565b80601f0160208091040260200160405190810160405280929190818152602001828054620010929062001d18565b8015620010e35780601f10620010b757610100808354040283529160200191620010e3565b820191906000526020600020905b815481529060010190602001808311620010c557829003601f168201915b5050505050905082565b60006020528060005260406000206000915054906101000a900460ff1681565b80600360006101000a81548173ffffffffffffffffffffffffffffffffffffffff021916908373ffffffffffffffffffffffffffffffffffffffff16021790555050565b6112da8062001d4f83390190565b8280546200116d9062001d18565b90600052602060002090601f016020900481019282620011915760008555620011dd565b82601f10620011ac57805160ff1916838001178555620011dd565b82800160010185558215620011dd579182015b82811115620011dc578251825591602001919060010190620011bf565b5b509050620011ec9190620011f0565b5090565b5b808211156200120b576000816000905550600101620011f1565b5090565b6000604051905090565b600080fd5b600080fd5b600073ffffffffffffffffffffffffffffffffffffffff82169050919050565b6000620012508262001223565b9050919050565b620012628162001243565b81146200126e57600080fd5b50565b600081359050620012828162001257565b92915050565b600080fd5b600080fd5b6000601f19601f8301169050919050565b7f4e487b7100000000000000000000000000000000000000000000000000000000600052604160045260246000fd5b620012dd8262001292565b810181811067ffffffffffffffff82111715620012ff57620012fe620012a3565b5b80604052505050565b6000620013146200120f565b9050620013228282620012d2565b919050565b600067ffffffffffffffff821115620013455762001344620012a3565b5b620013508262001292565b9050602081019050919050565b82818337600083830152505050565b6000620013836200137d8462001327565b62001308565b905082815260208101848484011115620013a257620013a16200128d565b5b620013af8482856200135d565b509392505050565b600082601f830112620013cf57620013ce62001288565b5b8135620013e18482602086016200136c565b91505092915050565b6000806000806080858703121562001407576200140662001219565b5b6000620014178782880162001271565b945050602085013567ffffffffffffffff8111156200143b576200143a6200121e565b5b6200144987828801620013b7565b935050604085013567ffffffffffffffff8111156200146d576200146c6200121e565b5b6200147b87828801620013b7565b925050606085013567ffffffffffffffff8111156200149f576200149e6200121e565b5b620014ad87828801620013b7565b91505092959194509250565b60008060408385031215620014d357620014d262001219565b5b6000620014e38582860162001271565b925050602083013567ffffffffffffffff8111156200150757620015066200121e565b5b6200151585828601620013b7565b9150509250929050565b6000819050919050565b62001534816200151f565b81146200154057600080fd5b50565b600081359050620015548162001529565b92915050565b60006020828403121562001573576200157262001219565b5b6000620015838482850162001543565b91505092915050565b620015978162001243565b82525050565b600081519050919050565b600082825260208201905092915050565b60005b83811015620015d9578082015181840152602081019050620015bc565b83811115620015e9576000848401525b50505050565b6000620015fc826200159d565b620016088185620015a8565b93506200161a818560208601620015b9565b620016258162001292565b840191505092915050565b60006080820190506200164760008301876200158c565b81810360208301526200165b8186620015ef565b90508181036040830152620016718185620015ef565b90508181036060830152620016878184620015ef565b905095945050505050565b600081519050919050565b600082825260208201905092915050565b6000819050602082019050919050565b620016c98162001243565b82525050565b600082825260208201905092915050565b6000620016ed826200159d565b620016f98185620016cf565b93506200170b818560208601620015b9565b620017168162001292565b840191505092915050565b60006080830160008301516200173b6000860182620016be565b5060208301518482036020860152620017558282620016e0565b91505060408301518482036040860152620017718282620016e0565b915050606083015184820360608601526200178d8282620016e0565b9150508091505092915050565b6000620017a8838362001721565b905092915050565b6000602082019050919050565b6000620017ca8262001692565b620017d681856200169d565b935083602082028501620017ea85620016ae565b8060005b858110156200182c57848403895281516200180a85826200179a565b94506200181783620017b0565b925060208a01995050600181019050620017ee565b50829750879550505050505092915050565b600060208201905081810360008301526200185a8184620017bd565b905092915050565b600081519050919050565b600082825260208201905092915050565b6000819050602082019050919050565b6000604083016000830151620018a86000860182620016be565b5060208301518482036020860152620018c28282620016e0565b9150508091505092915050565b6000620018dd83836200188e565b905092915050565b6000602082019050919050565b6000620018ff8262001862565b6200190b81856200186d565b9350836020820285016200191f856200187e565b8060005b858110156200196157848403895281516200193f8582620018cf565b94506200194c83620018e5565b925060208a0199505060018101905062001923565b50829750879550505050505092915050565b600060208201905081810360008301526200198f8184620018f2565b905092915050565b600060208284031215620019b057620019af62001219565b5b6000620019c08482850162001271565b91505092915050565b60008115159050919050565b620019e081620019c9565b82525050565b6000602082019050620019fd6000830184620019d5565b92915050565b600060208201905062001a1a60008301846200158c565b92915050565b600060408201905062001a3760008301856200158c565b818103602083015262001a4b8184620015ef565b90509392505050565b600060808201905062001a6b60008301876200158c565b62001a7a60208301866200158c565b818103604083015262001a8e8185620015ef565b9050818103606083015262001aa48184620015ef565b905095945050505050565b62001aba816200151f565b82525050565b600060808201905062001ad7600083018762001aaf565b818103602083015262001aeb8186620015ef565b9050818103604083015262001b018185620015ef565b9050818103606083015262001b178184620015ef565b905095945050505050565b7f3737370000000000000000000000000000000000000000000000000000000000600082015250565b600062001b5a600383620015a8565b915062001b678262001b22565b602082019050919050565b7f6e6f74696f6e616c000000000000000000000000000000000000000000000000600082015250565b600062001baa600883620015a8565b915062001bb78262001b72565b602082019050919050565b600060808201905062001bd960008301856200158c565b62001be860208301846200158c565b818103604083015262001bfb8162001b4b565b9050818103606083015262001c108162001b9b565b90509392505050565b7f746573744e616d65000000000000000000000000000000000000000000000000600082015250565b600062001c51600883620015a8565b915062001c5e8262001c19565b602082019050919050565b600060808201905062001c80600083018462001aaf565b818103602083015262001c938162001c42565b9050818103604083015262001ca88162001b4b565b9050818103606083015262001cbd8162001b9b565b905092915050565b6000602082019050818103600083015262001ce18184620015ef565b905092915050565b7f4e487b7100000000000000000000000000000000000000000000000000000000600052602260045260246000fd5b6000600282049050600182168062001d3157607f821691505b6020821081141562001d485762001d4762001ce9565b5b5091905056fe60806040526000600260146101000a81548160ff021916908315150217905550604051620012da380380620012da8339818101604052810190620000449190620003fb565b83600260006101000a81548173ffffffffffffffffffffffffffffffffffffffff021916908373ffffffffffffffffffffffffffffffffffffffff16021790555081600490805190602001906200009d92919062000149565b508060059080519060200190620000b692919062000149565b5082600660006101000a81548173ffffffffffffffffffffffffffffffffffffffff021916908373ffffffffffffffffffffffffffffffffffffffff160217905550336000806101000a81548173ffffffffffffffffffffffffffffffffffffffff021916908373ffffffffffffffffffffffffffffffffffffffff160217905550346003819055505050505062000510565b8280546200015790620004da565b90600052602060002090601f0160209004810192826200017b5760008555620001c7565b82601f106200019657805160ff1916838001178555620001c7565b82800160010185558215620001c7579182015b82811115620001c6578251825591602001919060010190620001a9565b5b509050620001d69190620001da565b5090565b5b80821115620001f5576000816000905550600101620001db565b5090565b6000604051905090565b600080fd5b600080fd5b600073ffffffffffffffffffffffffffffffffffffffff82169050919050565b60006200023a826200020d565b9050919050565b6200024c816200022d565b81146200025857600080fd5b50565b6000815190506200026c8162000241565b92915050565b600080fd5b600080fd5b6000601f19601f8301169050919050565b7f4e487b7100000000000000000000000000000000000000000000000000000000600052604160045260246000fd5b620002c7826200027c565b810181811067ffffffffffffffff82111715620002e957620002e86200028d565b5b80604052505050565b6000620002fe620001f9565b90506200030c8282620002bc565b919050565b600067ffffffffffffffff8211156200032f576200032e6200028d565b5b6200033a826200027c565b9050602081019050919050565b60005b83811015620003675780820151818401526020810190506200034a565b8381111562000377576000848401525b50505050565b6000620003946200038e8462000311565b620002f2565b905082815260208101848484011115620003b357620003b262000277565b5b620003c084828562000347565b509392505050565b600082601f830112620003e057620003df62000272565b5b8151620003f28482602086016200037d565b91505092915050565b6000806000806080858703121562000418576200041762000203565b5b600062000428878288016200025b565b94505060206200043b878288016200025b565b935050604085015167ffffffffffffffff8111156200045f576200045e62000208565b5b6200046d87828801620003c8565b925050606085015167ffffffffffffffff81111562000491576200049062000208565b5b6200049f87828801620003c8565b91505092959194509250565b7f4e487b7100000000000000000000000000000000000000000000000000000000600052602260045260246000fd5b60006002820490506001821680620004f357607f821691505b602082108114156200050a5762000509620004ab565b5b50919050565b610dba80620005206000396000f3fe6080604052600436106100915760003560e01c8063aa8c217c11610059578063aa8c217c14610159578063b4fd729614610184578063c7c4ff46146101af578063daea85c5146101da578063fe25e00a146101f657610091565b806328f371aa1461009657806329b5c141146100c157806332bb4d30146100ec57806338af3eed1461010357806356ff31221461012e575b600080fd5b3480156100a257600080fd5b506100ab610221565b6040516100b89190610807565b60405180910390f35b3480156100cd57600080fd5b506100d6610234565b6040516100e391906108bb565b60405180910390f35b3480156100f857600080fd5b506101016102c2565b005b34801561010f57600080fd5b506101186104c9565b604051610125919061091e565b60405180910390f35b34801561013a57600080fd5b506101436104ef565b60405161015091906108bb565b60405180910390f35b34801561016557600080fd5b5061016e61057d565b60405161017b9190610952565b60405180910390f35b34801561019057600080fd5b50610199610583565b6040516101a691906109cc565b60405180910390f35b3480156101bb57600080fd5b506101c46105a9565b6040516101d1919061091e565b60405180910390f35b6101f460048036038101906101ef9190610a18565b6105cd565b005b34801561020257600080fd5b5061020b6107c6565b604051610218919061091e565b60405180910390f35b600260149054906101000a900460ff1681565b6004805461024190610a74565b80601f016020809104026020016040519081016040528092919081815260200182805461026d90610a74565b80156102ba5780601f1061028f576101008083540402835291602001916102ba565b820191906000526020600020905b81548152906001019060200180831161029d57829003601f168201915b505050505081565b6060600580546102d190610a74565b80601f01602080910402602001604051908101604052809291908181526020018280546102fd90610a74565b801561034a5780601f1061031f5761010080835404028352916020019161034a565b820191906000526020600020905b81548152906001019060200180831161032d57829003601f168201915b50505050508160008151811061036357610362610aa6565b5b60200260200101819052506004805461037b90610a74565b80601f01602080910402602001604051908101604052809291908181526020018280546103a790610a74565b80156103f45780601f106103c9576101008083540402835291602001916103f4565b820191906000526020600020905b8154815290600101906020018083116103d757829003601f168201915b50505050508160018151811061040d5761040c610aa6565b5b6020026020010181905250600660009054906101000a900473ffffffffffffffffffffffffffffffffffffffff1673ffffffffffffffffffffffffffffffffffffffff16636b8cfcd8826040518263ffffffff1660e01b81526004016104739190610be1565b602060405180830381600087803b15801561048d57600080fd5b505af11580156104a1573d6000803e3d6000fd5b505050506040513d601f19601f820116820180604052508101906104c59190610c39565b5050565b600160009054906101000a900473ffffffffffffffffffffffffffffffffffffffff1681565b600580546104fc90610a74565b80601f016020809104026020016040519081016040528092919081815260200182805461052890610a74565b80156105755780601f1061054a57610100808354040283529160200191610575565b820191906000526020600020905b81548152906001019060200180831161055857829003601f168201915b505050505081565b60035481565b600660009054906101000a900473ffffffffffffffffffffffffffffffffffffffff1681565b60008054906101000a900473ffffffffffffffffffffffffffffffffffffffff1681565b600260009054906101000a900473ffffffffffffffffffffffffffffffffffffffff1673ffffffffffffffffffffffffffffffffffffffff163373ffffffffffffffffffffffffffffffffffffffff161461065d576040517f08c379a000000000000000000000000000000000000000000000000000000000815260040161065490610cb2565b60405180910390fd5b6001600260146101000a81548160ff02191690831515021790555080600160006101000a81548173ffffffffffffffffffffffffffffffffffffffff021916908373ffffffffffffffffffffffffffffffffffffffff1602179055506000600160009054906101000a900473ffffffffffffffffffffffffffffffffffffffff1673ffffffffffffffffffffffffffffffffffffffff1660035460405161070390610d03565b60006040518083038185875af1925050503d8060008114610740576040519150601f19603f3d011682016040523d82523d6000602084013e610745565b606091505b5050905080610789576040517f08c379a000000000000000000000000000000000000000000000000000000000815260040161078090610d64565b60405180910390fd5b7f3ad93af63cb7967b23e4fb500b7d7d28b07516325dcf341f88bebf959d82c1cb6003546040516107ba9190610952565b60405180910390a15050565b600260009054906101000a900473ffffffffffffffffffffffffffffffffffffffff1681565b60008115159050919050565b610801816107ec565b82525050565b600060208201905061081c60008301846107f8565b92915050565b600081519050919050565b600082825260208201905092915050565b60005b8381101561085c578082015181840152602081019050610841565b8381111561086b576000848401525b50505050565b6000601f19601f8301169050919050565b600061088d82610822565b610897818561082d565b93506108a781856020860161083e565b6108b081610871565b840191505092915050565b600060208201905081810360008301526108d58184610882565b905092915050565b600073ffffffffffffffffffffffffffffffffffffffff82169050919050565b6000610908826108dd565b9050919050565b610918816108fd565b82525050565b6000602082019050610933600083018461090f565b92915050565b6000819050919050565b61094c81610939565b82525050565b60006020820190506109676000830184610943565b92915050565b6000819050919050565b600061099261098d610988846108dd565b61096d565b6108dd565b9050919050565b60006109a482610977565b9050919050565b60006109b682610999565b9050919050565b6109c6816109ab565b82525050565b60006020820190506109e160008301846109bd565b92915050565b600080fd5b6109f5816108fd565b8114610a0057600080fd5b50565b600081359050610a12816109ec565b92915050565b600060208284031215610a2e57610a2d6109e7565b5b6000610a3c84828501610a03565b91505092915050565b7f4e487b7100000000000000000000000000000000000000000000000000000000600052602260045260246000fd5b60006002820490506001821680610a8c57607f821691505b60208210811415610aa057610a9f610a45565b5b50919050565b7f4e487b7100000000000000000000000000000000000000000000000000000000600052603260045260246000fd5b600081519050919050565b600082825260208201905092915050565b6000819050602082019050919050565b600082825260208201905092915050565b6000610b1d82610822565b610b278185610b01565b9350610b3781856020860161083e565b610b4081610871565b840191505092915050565b6000610b578383610b12565b905092915050565b6000602082019050919050565b6000610b7782610ad5565b610b818185610ae0565b935083602082028501610b9385610af1565b8060005b85811015610bcf5784840389528151610bb08582610b4b565b9450610bbb83610b5f565b925060208a01995050600181019050610b97565b50829750879550505050505092915050565b60006020820190508181036000830152610bfb8184610b6c565b905092915050565b6000819050919050565b610c1681610c03565b8114610c2157600080fd5b50565b600081519050610c3381610c0d565b92915050565b600060208284031215610c4f57610c4e6109e7565b5b6000610c5d84828501610c24565b91505092915050565b7f4f6e6c7920617262697465722063616e20617070726f76650000000000000000600082015250565b6000610c9c60188361082d565b9150610ca782610c66565b602082019050919050565b60006020820190508181036000830152610ccb81610c8f565b9050919050565b600081905092915050565b50565b6000610ced600083610cd2565b9150610cf882610cdd565b600082019050919050565b6000610d0e82610ce0565b9150819050919050565b7f4661696c656420746f2073656e64204574686572000000000000000000000000600082015250565b6000610d4e60148361082d565b9150610d5982610d18565b602082019050919050565b60006020820190508181036000830152610d7d81610d41565b905091905056fea26469706673582212202a06fed8724984b23d4535df780b2d6fc98d5e15a02ed0831299dfaccd3dacae64736f6c63430008090033a26469706673582212206a49267aecf5bb414b88ad035b8a195a640d163b0e0b8fa4b3de0e8cb6b22a5864736f6c63430008090033",
  "linkReferences": {},
  "deployedLinkReferences": {}
}