{
  "_format": "hh-sol-artifact-1",
  "contractName": "FunctionsOracle",
  "sourceName": "contracts/dev/functions/FunctionsOracle.sol",
  "abi": [
    {
      "inputs": [],
      "name": "AlreadySet",
      "type": "error"
    },
    {
      "inputs": [],
      "name": "CannotSelfTransfer",
      "type": "error"
    },
    {
      "inputs": [],
      "name": "EmptyBillingRegistry",
      "type": "error"
    },
    {
      "inputs": [],
      "name": "EmptyPublicKey",
      "type": "error"
    },
    {
      "inputs": [],
      "name": "EmptyRequestData",
      "type": "error"
    },
    {
      "inputs": [],
      "name": "EmptySendersList",
      "type": "error"
    },
    {
      "inputs": [],
      "name": "InconsistentReportData",
      "type": "error"
    },
    {
      "inputs": [],
      "name": "NotAllowedToSetSenders",
      "type": "error"
    },
    {
      "inputs": [],
      "name": "NotProposedOwner",
      "type": "error"
    },
    {
      "inputs": [],
      "name": "OnlyCallableByOwner",
      "type": "error"
    },
    {
      "inputs": [],
      "name": "OwnerMustBeSet",
      "type": "error"
    },
    {
      "inputs": [],
      "name": "ReportInvalid",
      "type": "error"
    },
    {
      "inputs": [],
      "name": "UnauthorizedPublicKeyChange",
      "type": "error"
    },
    {
      "inputs": [],
      "name": "UnauthorizedSender",
      "type": "error"
    },
    {
      "anonymous": false,
      "inputs": [
        {
          "indexed": false,
          "internalType": "address",
          "name": "account",
          "type": "address"
        }
      ],
      "name": "AuthorizedSendersActive",
      "type": "event"
    },
    {
      "anonymous": false,
      "inputs": [
        {
          "indexed": false,
          "internalType": "address[]",
          "name": "senders",
          "type": "address[]"
        },
        {
          "indexed": false,
          "internalType": "address",
          "name": "changedBy",
          "type": "address"
        }
      ],
      "name": "AuthorizedSendersChanged",
      "type": "event"
    },
    {
      "anonymous": false,
      "inputs": [
        {
          "indexed": false,
          "internalType": "address",
          "name": "account",
          "type": "address"
        }
      ],
      "name": "AuthorizedSendersDeactive",
      "type": "event"
    },
    {
      "anonymous": false,
      "inputs": [
        {
          "indexed": false,
          "internalType": "uint32",
          "name": "previousConfigBlockNumber",
          "type": "uint32"
        },
        {
          "indexed": false,
          "internalType": "bytes32",
          "name": "configDigest",
          "type": "bytes32"
        },
        {
          "indexed": false,
          "internalType": "uint64",
          "name": "configCount",
          "type": "uint64"
        },
        {
          "indexed": false,
          "internalType": "address[]",
          "name": "signers",
          "type": "address[]"
        },
        {
          "indexed": false,
          "internalType": "address[]",
          "name": "transmitters",
          "type": "address[]"
        },
        {
          "indexed": false,
          "internalType": "uint8",
          "name": "f",
          "type": "uint8"
        },
        {
          "indexed": false,
          "internalType": "bytes",
          "name": "onchainConfig",
          "type": "bytes"
        },
        {
          "indexed": false,
          "internalType": "uint64",
          "name": "offchainConfigVersion",
          "type": "uint64"
        },
        {
          "indexed": false,
          "internalType": "bytes",
          "name": "offchainConfig",
          "type": "bytes"
        }
      ],
      "name": "ConfigSet",
      "type": "event"
    },
    {
      "anonymous": false,
      "inputs": [
        {
          "indexed": false,
          "internalType": "uint8",
          "name": "version",
          "type": "uint8"
        }
      ],
      "name": "Initialized",
      "type": "event"
    },
    {
      "anonymous": false,
      "inputs": [
        {
          "indexed": true,
          "internalType": "bytes32",
          "name": "requestId",
          "type": "bytes32"
        }
      ],
      "name": "InvalidRequestID",
      "type": "event"
    },
    {
      "anonymous": false,
      "inputs": [
        {
          "indexed": true,
          "internalType": "bytes32",
          "name": "requestId",
          "type": "bytes32"
        },
        {
          "indexed": false,
          "internalType": "address",
          "name": "requestingContract",
          "type": "address"
        },
        {
          "indexed": false,
          "internalType": "address",
          "name": "requestInitiator",
          "type": "address"
        },
        {
          "indexed": false,
          "internalType": "uint64",
          "name": "subscriptionId",
          "type": "uint64"
        },
        {
          "indexed": false,
          "internalType": "address",
          "name": "subscriptionOwner",
          "type": "address"
        },
        {
          "indexed": false,
          "internalType": "bytes",
          "name": "data",
          "type": "bytes"
        }
      ],
      "name": "OracleRequest",
      "type": "event"
    },
    {
      "anonymous": false,
      "inputs": [
        {
          "indexed": true,
          "internalType": "bytes32",
          "name": "requestId",
          "type": "bytes32"
        }
      ],
      "name": "OracleResponse",
      "type": "event"
    },
    {
      "anonymous": false,
      "inputs": [
        {
          "indexed": true,
          "internalType": "address",
          "name": "from",
          "type": "address"
        },
        {
          "indexed": true,
          "internalType": "address",
          "name": "to",
          "type": "address"
        }
      ],
      "name": "OwnershipTransferRequested",
      "type": "event"
    },
    {
      "anonymous": false,
      "inputs": [
        {
          "indexed": true,
          "internalType": "address",
          "name": "from",
          "type": "address"
        },
        {
          "indexed": true,
          "internalType": "address",
          "name": "to",
          "type": "address"
        }
      ],
      "name": "OwnershipTransferred",
      "type": "event"
    },
    {
      "anonymous": false,
      "inputs": [
        {
          "indexed": false,
          "internalType": "bytes32",
          "name": "configDigest",
          "type": "bytes32"
        },
        {
          "indexed": false,
          "internalType": "uint32",
          "name": "epoch",
          "type": "uint32"
        }
      ],
      "name": "Transmitted",
      "type": "event"
    },
    {
      "anonymous": false,
      "inputs": [
        {
          "indexed": true,
          "internalType": "bytes32",
          "name": "requestId",
          "type": "bytes32"
        },
        {
          "indexed": false,
          "internalType": "string",
          "name": "reason",
          "type": "string"
        }
      ],
      "name": "UserCallbackError",
      "type": "event"
    },
    {
      "anonymous": false,
      "inputs": [
        {
          "indexed": true,
          "internalType": "bytes32",
          "name": "requestId",
          "type": "bytes32"
        },
        {
          "indexed": false,
          "internalType": "bytes",
          "name": "lowLevelData",
          "type": "bytes"
        }
      ],
      "name": "UserCallbackRawError",
      "type": "event"
    },
    {
      "inputs": [],
      "name": "acceptOwnership",
      "outputs": [],
      "stateMutability": "nonpayable",
      "type": "function"
    },
    {
      "inputs": [],
      "name": "activateAuthorizedReceiver",
      "outputs": [],
      "stateMutability": "nonpayable",
      "type": "function"
    },
    {
      "inputs": [
        {
          "internalType": "address[]",
          "name": "senders",
          "type": "address[]"
        }
      ],
      "name": "addAuthorizedSenders",
      "outputs": [],
      "stateMutability": "nonpayable",
      "type": "function"
    },
    {
      "inputs": [],
      "name": "authorizedReceiverActive",
      "outputs": [
        {
          "internalType": "bool",
          "name": "",
          "type": "bool"
        }
      ],
      "stateMutability": "view",
      "type": "function"
    },
    {
      "inputs": [],
      "name": "deactivateAuthorizedReceiver",
      "outputs": [],
      "stateMutability": "nonpayable",
      "type": "function"
    },
    {
      "inputs": [
        {
          "internalType": "address",
          "name": "node",
          "type": "address"
        }
      ],
      "name": "deleteNodePublicKey",
      "outputs": [],
      "stateMutability": "nonpayable",
      "type": "function"
    },
    {
      "inputs": [
        {
          "internalType": "uint64",
          "name": "subscriptionId",
          "type": "uint64"
        },
        {
          "internalType": "bytes",
          "name": "data",
          "type": "bytes"
        },
        {
          "internalType": "uint32",
          "name": "gasLimit",
          "type": "uint32"
        },
        {
          "internalType": "uint256",
          "name": "gasPrice",
          "type": "uint256"
        }
      ],
      "name": "estimateCost",
      "outputs": [
        {
          "internalType": "uint96",
          "name": "",
          "type": "uint96"
        }
      ],
      "stateMutability": "view",
      "type": "function"
    },
    {
      "inputs": [],
      "name": "getAllNodePublicKeys",
      "outputs": [
        {
          "internalType": "address[]",
          "name": "",
          "type": "address[]"
        },
        {
          "internalType": "bytes[]",
          "name": "",
          "type": "bytes[]"
        }
      ],
      "stateMutability": "view",
      "type": "function"
    },
    {
      "inputs": [],
      "name": "getAuthorizedSenders",
      "outputs": [
        {
          "internalType": "address[]",
          "name": "",
          "type": "address[]"
        }
      ],
      "stateMutability": "view",
      "type": "function"
    },
    {
      "inputs": [],
      "name": "getDONPublicKey",
      "outputs": [
        {
          "internalType": "bytes",
          "name": "",
          "type": "bytes"
        }
      ],
      "stateMutability": "view",
      "type": "function"
    },
    {
      "inputs": [],
      "name": "getRegistry",
      "outputs": [
        {
          "internalType": "address",
          "name": "",
          "type": "address"
        }
      ],
      "stateMutability": "view",
      "type": "function"
    },
    {
      "inputs": [
        {
          "internalType": "bytes",
          "name": "",
          "type": "bytes"
        },
        {
          "components": [
            {
              "internalType": "uint64",
              "name": "subscriptionId",
              "type": "uint64"
            },
            {
              "internalType": "address",
              "name": "client",
              "type": "address"
            },
            {
              "internalType": "uint32",
              "name": "gasLimit",
              "type": "uint32"
            },
            {
              "internalType": "uint256",
              "name": "gasPrice",
              "type": "uint256"
            }
          ],
          "internalType": "struct FunctionsBillingRegistryInterface.RequestBilling",
          "name": "",
          "type": "tuple"
        }
      ],
      "name": "getRequiredFee",
      "outputs": [
        {
          "internalType": "uint96",
          "name": "",
          "type": "uint96"
        }
      ],
      "stateMutability": "pure",
      "type": "function"
    },
    {
      "inputs": [],
      "name": "initialize",
      "outputs": [],
      "stateMutability": "nonpayable",
      "type": "function"
    },
    {
      "inputs": [
        {
          "internalType": "address",
          "name": "sender",
          "type": "address"
        }
      ],
      "name": "isAuthorizedSender",
      "outputs": [
        {
          "internalType": "bool",
          "name": "",
          "type": "bool"
        }
      ],
      "stateMutability": "view",
      "type": "function"
    },
    {
      "inputs": [],
      "name": "latestConfigDetails",
      "outputs": [
        {
          "internalType": "uint32",
          "name": "configCount",
          "type": "uint32"
        },
        {
          "internalType": "uint32",
          "name": "blockNumber",
          "type": "uint32"
        },
        {
          "internalType": "bytes32",
          "name": "configDigest",
          "type": "bytes32"
        }
      ],
      "stateMutability": "view",
      "type": "function"
    },
    {
      "inputs": [],
      "name": "latestConfigDigestAndEpoch",
      "outputs": [
        {
          "internalType": "bool",
          "name": "scanLogs",
          "type": "bool"
        },
        {
          "internalType": "bytes32",
          "name": "configDigest",
          "type": "bytes32"
        },
        {
          "internalType": "uint32",
          "name": "epoch",
          "type": "uint32"
        }
      ],
      "stateMutability": "view",
      "type": "function"
    },
    {
      "inputs": [],
      "name": "owner",
      "outputs": [
        {
          "internalType": "address",
          "name": "",
          "type": "address"
        }
      ],
      "stateMutability": "view",
      "type": "function"
    },
    {
      "inputs": [
        {
          "internalType": "address[]",
          "name": "senders",
          "type": "address[]"
        }
      ],
      "name": "removeAuthorizedSenders",
      "outputs": [],
      "stateMutability": "nonpayable",
      "type": "function"
    },
    {
      "inputs": [
        {
          "internalType": "uint64",
          "name": "subscriptionId",
          "type": "uint64"
        },
        {
          "internalType": "bytes",
          "name": "data",
          "type": "bytes"
        },
        {
          "internalType": "uint32",
          "name": "gasLimit",
          "type": "uint32"
        }
      ],
      "name": "sendRequest",
      "outputs": [
        {
          "internalType": "bytes32",
          "name": "",
          "type": "bytes32"
        }
      ],
      "stateMutability": "nonpayable",
      "type": "function"
    },
    {
      "inputs": [
        {
          "internalType": "address[]",
          "name": "_signers",
          "type": "address[]"
        },
        {
          "internalType": "address[]",
          "name": "_transmitters",
          "type": "address[]"
        },
        {
          "internalType": "uint8",
          "name": "_f",
          "type": "uint8"
        },
        {
          "internalType": "bytes",
          "name": "_onchainConfig",
          "type": "bytes"
        },
        {
          "internalType": "uint64",
          "name": "_offchainConfigVersion",
          "type": "uint64"
        },
        {
          "internalType": "bytes",
          "name": "_offchainConfig",
          "type": "bytes"
        }
      ],
      "name": "setConfig",
      "outputs": [],
      "stateMutability": "nonpayable",
      "type": "function"
    },
    {
      "inputs": [
        {
          "internalType": "bytes",
          "name": "donPublicKey",
          "type": "bytes"
        }
      ],
      "name": "setDONPublicKey",
      "outputs": [],
      "stateMutability": "nonpayable",
      "type": "function"
    },
    {
      "inputs": [
        {
          "internalType": "address",
          "name": "node",
          "type": "address"
        },
        {
          "internalType": "bytes",
          "name": "publicKey",
          "type": "bytes"
        }
      ],
      "name": "setNodePublicKey",
      "outputs": [],
      "stateMutability": "nonpayable",
      "type": "function"
    },
    {
      "inputs": [
        {
          "internalType": "address",
          "name": "registryAddress",
          "type": "address"
        }
      ],
      "name": "setRegistry",
      "outputs": [],
      "stateMutability": "nonpayable",
      "type": "function"
    },
    {
      "inputs": [
        {
          "internalType": "address",
          "name": "to",
          "type": "address"
        }
      ],
      "name": "transferOwnership",
      "outputs": [],
      "stateMutability": "nonpayable",
      "type": "function"
    },
    {
      "inputs": [
        {
          "internalType": "bytes32[3]",
          "name": "reportContext",
          "type": "bytes32[3]"
        },
        {
          "internalType": "bytes",
          "name": "report",
          "type": "bytes"
        },
        {
          "internalType": "bytes32[]",
          "name": "rs",
          "type": "bytes32[]"
        },
        {
          "internalType": "bytes32[]",
          "name": "ss",
          "type": "bytes32[]"
        },
        {
          "internalType": "bytes32",
          "name": "rawVs",
          "type": "bytes32"
        }
      ],
      "name": "transmit",
      "outputs": [],
      "stateMutability": "nonpayable",
      "type": "function"
    },
    {
      "inputs": [],
      "name": "transmitters",
      "outputs": [
        {
          "internalType": "address[]",
          "name": "",
          "type": "address[]"
        }
      ],
      "stateMutability": "view",
      "type": "function"
    },
    {
      "inputs": [],
      "name": "typeAndVersion",
      "outputs": [
        {
          "internalType": "string",
          "name": "",
          "type": "string"
        }
      ],
      "stateMutability": "pure",
      "type": "function"
    }
  ],
  "bytecode": "0x608060405234801561001057600080fd5b50615c0980620000216000396000f3fe608060405234801561001057600080fd5b50600436106101a95760003560e01c80638129fc1c116100f9578063b1dc65a411610097578063e3d0e71211610071578063e3d0e7121461042b578063f1e14a2114610447578063f2fde38b14610477578063fa00763a14610493576101a9565b8063b1dc65a4146103c1578063d227d245146103dd578063d328a91e1461040d576101a9565b80638da5cb5b116100d35780638da5cb5b1461035d57806391bb64eb1461037b578063a91ee0dc14610385578063afcb95d7146103a1576101a9565b80638129fc1c14610315578063814118341461031f57806381ff70481461033d576101a9565b80634b4fa0c1116101665780635ab1bd53116101405780635ab1bd53146102b557806379ba5097146102d35780637f15e166146102dd57806380756031146102f9576101a9565b80634b4fa0c11461025c5780634dcef4041461027a5780635339898714610296576101a9565b806303e1bf23146101ae578063110254c8146101ca578063181f5a77146101d45780632408afaa146101f257806326ceabac1461021057806328242b041461022c575b600080fd5b6101c860048036038101906101c391906138b3565b6104c3565b005b6101d26105dc565b005b6101dc6106ad565b6040516101e99190613999565b60405180910390f35b6101fa6106ea565b6040516102079190613aab565b60405180910390f35b61022a60048036038101906102259190613af9565b6106fb565b005b61024660048036038101906102419190613bf8565b6107eb565b6040516102539190613c85565b60405180910390f35b610264610aad565b6040516102719190613cbb565b60405180910390f35b610294600480360381019061028f91906138b3565b610ac4565b005b61029e610bdd565b6040516102ac929190613ded565b60405180910390f35b6102bd610de6565b6040516102ca9190613e33565b60405180910390f35b6102db610e10565b005b6102f760048036038101906102f29190613e4e565b610f9d565b005b610313600480360381019061030e9190613e9b565b610ff9565b005b61031d611100565b005b61032761124a565b6040516103349190613aab565b60405180910390f35b6103456112d8565b60405161035493929190613f0a565b60405180910390f35b610365611312565b6040516103729190613e33565b60405180910390f35b61038361133b565b005b61039f600480360381019061039a9190613af9565b61140b565b005b6103a96114be565b6040516103b893929190613f41565b60405180910390f35b6103db60048036038101906103d6919061401c565b6114d6565b005b6103f760048036038101906103f2919061412e565b611c4b565b60405161040491906141dd565b60405180910390f35b610415611ea1565b6040516104229190614242565b60405180910390f35b61044560048036038101906104409190614490565b611f33565b005b610461600480360381019061045c919061460a565b6128da565b60405161046e91906141dd565b60405180910390f35b610491600480360381019061048c9190613af9565b6128e3565b005b6104ad60048036038101906104a89190613af9565b6128f7565b6040516104ba9190613cbb565b60405180910390f35b6104cb61292a565b610501576040517fad77f06100000000000000000000000000000000000000000000000000000000815260040160405180910390fd5b600082829050141561053f576040517f75158c3b00000000000000000000000000000000000000000000000000000000815260040160405180910390fd5b60005b8282905081101561059c576105888383838181106105635761056261466a565b5b90506020020160208101906105789190613af9565b600961296790919063ffffffff16565b508080610594906146c8565b915050610542565b507ff263cfb3e4298332e776194610cf9fdc09ccb3ada8b9aa39764d882e11fbf0a08282336040516105d09392919061479c565b60405180910390a15050565b6105e461292a565b61061a576040517fad77f06100000000000000000000000000000000000000000000000000000000815260040160405180910390fd5b610622610aad565b15610659576040517fa741a04500000000000000000000000000000000000000000000000000000000815260040160405180910390fd5b6001600860006101000a81548160ff0219169083151502179055507fae51766a982895b0c444fc99fc1a560762b464d709e6c78376c85617f7eeb5ce336040516106a39190613e33565b60405180910390a1565b60606040518060400160405280601581526020017f46756e6374696f6e734f7261636c6520302e302e300000000000000000000000815250905090565b60606106f66009612997565b905090565b610703611312565b73ffffffffffffffffffffffffffffffffffffffff163373ffffffffffffffffffffffffffffffffffffffff16148061076757508073ffffffffffffffffffffffffffffffffffffffff163373ffffffffffffffffffffffffffffffffffffffff16145b61079d576040517fed6dd19b00000000000000000000000000000000000000000000000000000000815260040160405180910390fd5b600d60008273ffffffffffffffffffffffffffffffffffffffff1673ffffffffffffffffffffffffffffffffffffffff16815260200190815260200160002060006107e89190613705565b50565b60008073ffffffffffffffffffffffffffffffffffffffff16600c60009054906101000a900473ffffffffffffffffffffffffffffffffffffffff1673ffffffffffffffffffffffffffffffffffffffff161415610875576040517f9c5fe32400000000000000000000000000000000000000000000000000000000815260040160405180910390fd5b61087d6129b8565b60008484905014156108ba576040517ec1cfc000000000000000000000000000000000000000000000000000000000815260040160405180910390fd5b6000600c60009054906101000a900473ffffffffffffffffffffffffffffffffffffffff1673ffffffffffffffffffffffffffffffffffffffff1663a9d03c05868660405180608001604052808b67ffffffffffffffff1681526020013373ffffffffffffffffffffffffffffffffffffffff1681526020018863ffffffff1681526020013a8152506040518463ffffffff1660e01b81526004016109619392919061487d565b602060405180830381600087803b15801561097b57600080fd5b505af115801561098f573d6000803e3d6000fd5b505050506040513d601f19601f820116820180604052508101906109b391906148c4565b9050807fa1ec73989d79578cd6f67d4f593ac3e0a4d1020e5c0164db52108d7ff785406c333289600c60009054906101000a900473ffffffffffffffffffffffffffffffffffffffff1673ffffffffffffffffffffffffffffffffffffffff1663b2a489ff8c6040518263ffffffff1660e01b8152600401610a359190614900565b60206040518083038186803b158015610a4d57600080fd5b505afa158015610a61573d6000803e3d6000fd5b505050506040513d601f19601f82011682018060405250810190610a859190614930565b8a8a604051610a999695949392919061495d565b60405180910390a280915050949350505050565b6000600860009054906101000a900460ff16905090565b610acc61292a565b610b02576040517fad77f06100000000000000000000000000000000000000000000000000000000815260040160405180910390fd5b6000828290501415610b40576040517f75158c3b00000000000000000000000000000000000000000000000000000000815260040160405180910390fd5b60005b82829050811015610b9d57610b89838383818110610b6457610b6361466a565b5b9050602002016020810190610b799190613af9565b60096129f990919063ffffffff16565b508080610b95906146c8565b915050610b43565b507ff263cfb3e4298332e776194610cf9fdc09ccb3ada8b9aa39764d882e11fbf0a0828233604051610bd19392919061479c565b60405180910390a15050565b60608060003073ffffffffffffffffffffffffffffffffffffffff1663814118346040518163ffffffff1660e01b815260040160006040518083038186803b158015610c2857600080fd5b505afa158015610c3c573d6000803e3d6000fd5b505050506040513d6000823e3d601f19601f82011682018060405250810190610c659190614a50565b90506000815167ffffffffffffffff811115610c8457610c83614264565b5b604051908082528060200260200182016040528015610cb757816020015b6060815260200190600190039081610ca25790505b50905060005b8251811015610dd957600d6000848381518110610cdd57610cdc61466a565b5b602002602001015173ffffffffffffffffffffffffffffffffffffffff1673ffffffffffffffffffffffffffffffffffffffff1681526020019081526020016000208054610d2a90614ac8565b80601f0160208091040260200160405190810160405280929190818152602001828054610d5690614ac8565b8015610da35780601f10610d7857610100808354040283529160200191610da3565b820191906000526020600020905b815481529060010190602001808311610d8657829003601f168201915b5050505050828281518110610dbb57610dba61466a565b5b60200260200101819052508080610dd1906146c8565b915050610cbd565b5081819350935050509091565b6000600c60009054906101000a900473ffffffffffffffffffffffffffffffffffffffff16905090565b600160009054906101000a900473ffffffffffffffffffffffffffffffffffffffff1673ffffffffffffffffffffffffffffffffffffffff163373ffffffffffffffffffffffffffffffffffffffff1614610e97576040517f0f22ca5f00000000000000000000000000000000000000000000000000000000815260040160405180910390fd5b60008060029054906101000a900473ffffffffffffffffffffffffffffffffffffffff16905033600060026101000a81548173ffffffffffffffffffffffffffffffffffffffff021916908373ffffffffffffffffffffffffffffffffffffffff1602179055506000600160006101000a81548173ffffffffffffffffffffffffffffffffffffffff021916908373ffffffffffffffffffffffffffffffffffffffff1602179055503373ffffffffffffffffffffffffffffffffffffffff168173ffffffffffffffffffffffffffffffffffffffff167f8be0079c531659141344cd1fd0a4f28419497f9722a3daafe3b4186f6b6457e060405160405180910390a350565b610fa5612a29565b6000828290501415610fe3576040517f4f42be3d00000000000000000000000000000000000000000000000000000000815260040160405180910390fd5b8181600b9190610ff4929190613745565b505050565b611001611312565b73ffffffffffffffffffffffffffffffffffffffff163373ffffffffffffffffffffffffffffffffffffffff161480611076575061103e33612ab2565b801561107557508273ffffffffffffffffffffffffffffffffffffffff163373ffffffffffffffffffffffffffffffffffffffff16145b5b6110ac576040517fed6dd19b00000000000000000000000000000000000000000000000000000000815260040160405180910390fd5b8181600d60008673ffffffffffffffffffffffffffffffffffffffff1673ffffffffffffffffffffffffffffffffffffffff16815260200190815260200160002091906110fa929190613745565b50505050565b60008060019054906101000a900460ff161590508080156111315750600160008054906101000a900460ff1660ff16105b8061115e575061114030612bbe565b15801561115d5750600160008054906101000a900460ff1660ff16145b5b61119d576040517f08c379a000000000000000000000000000000000000000000000000000000000815260040161119490614b6c565b60405180910390fd5b60016000806101000a81548160ff021916908360ff16021790555080156111da576001600060016101000a81548160ff0219169083151502179055505b6111e46001612be1565b6111ee6001612c58565b80156112475760008060016101000a81548160ff0219169083151502179055507f7f26b83ff96e1f2b6a682f133852f6798a09c465da95921460cefb3847402498600160405161123e9190614bd1565b60405180910390a15b50565b606060078054806020026020016040519081016040528092919081815260200182805480156112ce57602002820191906000526020600020905b8160009054906101000a900473ffffffffffffffffffffffffffffffffffffffff1673ffffffffffffffffffffffffffffffffffffffff1681526020019060010190808311611284575b5050505050905090565b6000806000600460009054906101000a900463ffffffff1660048054906101000a900463ffffffff16600260000154925092509250909192565b60008060029054906101000a900473ffffffffffffffffffffffffffffffffffffffff16905090565b61134361292a565b611379576040517fad77f06100000000000000000000000000000000000000000000000000000000815260040160405180910390fd5b611381610aad565b6113b7576040517fa741a04500000000000000000000000000000000000000000000000000000000815260040160405180910390fd5b6000600860006101000a81548160ff0219169083151502179055507fea3828816a323b8d7ff49d755efd105e7719166d6c76fad97a28eee5eccc3d9a336040516114019190613e33565b60405180910390a1565b611413612a29565b600073ffffffffffffffffffffffffffffffffffffffff168173ffffffffffffffffffffffffffffffffffffffff16141561147a576040517f9c5fe32400000000000000000000000000000000000000000000000000000000815260040160405180910390fd5b80600c60006101000a81548173ffffffffffffffffffffffffffffffffffffffff021916908373ffffffffffffffffffffffffffffffffffffffff16021790555050565b600080600060016000801b6000925092509250909192565b60005a90506000896000600381106114f1576114f061466a565b5b6020020135905060008a60016003811061150e5761150d61466a565b5b602002013560001c905061156d828263ffffffff168c8c8080601f016020809104026020016040519081016040528093929190818152602001838380828437600081840152601f19601f82011690508083019250505050505050612cc4565b6115a3576040517f0be3632800000000000000000000000000000000000000000000000000000000815260040160405180910390fd5b7fb04e63db38c49950639fa09d29872f21f5d49d614f3a969d8adf3d4b52e41a628260088363ffffffff16901c6040516115de929190614bec565b60405180910390a160006002604051806060016040529081600082015481526020016001820160009054906101000a900460ff1660ff1660ff1681526020016001820160019054906101000a900460ff1660ff1660ff1681525050905082816000015114611681576040517f08c379a000000000000000000000000000000000000000000000000000000000815260040161167890614c61565b60405180910390fd5b61168f8b8b8b8b8b8b612cd1565b6000600160149054906101000a900460ff16156116dc5760016002836020015184604001516116be9190614c81565b6116c89190614ce7565b6116d29190614c81565b60ff1690506116f3565b600182602001516116ed9190614c81565b60ff1690505b808a8a905014611738576040517f08c379a000000000000000000000000000000000000000000000000000000000815260040161172f90614d64565b60405180910390fd5b878790508a8a905014611780576040517f08c379a000000000000000000000000000000000000000000000000000000000815260040161177790614dd0565b60405180910390fd5b6000600560003373ffffffffffffffffffffffffffffffffffffffff1673ffffffffffffffffffffffffffffffffffffffff1681526020019081526020016000206040518060400160405290816000820160009054906101000a900460ff1660ff1660ff1681526020016000820160019054906101000a900460ff16600281111561180e5761180d614df0565b5b60028111156118205761181f614df0565b5b81525050905060028081111561183957611838614df0565b5b816020015160028111156118505761184f614df0565b5b1480156118cd57506007816000015160ff16815481106118735761187261466a565b5b9060005260206000200160009054906101000a900473ffffffffffffffffffffffffffffffffffffffff1673ffffffffffffffffffffffffffffffffffffffff163373ffffffffffffffffffffffffffffffffffffffff16145b61190c576040517f08c379a000000000000000000000000000000000000000000000000000000000815260040161190390614e6b565b60405180910390fd5b50505050506119196137cb565b6000808a8a60405161192c929190614ebb565b60405180910390208c604051602001611946929190614f05565b6040516020818303038152906040528051906020012090506119666137ee565b60005b8a8a9050811015611c2d576000600184601b8a856020811061198e5761198d61466a565b5b1a60f81b60f81c61199f9190614c81565b8e8e868181106119b2576119b161466a565b5b905060200201358d8d878181106119cc576119cb61466a565b5b90506020020135604051600081526020016040526040516119f09493929190614f40565b6020604051602081039080840390855afa158015611a12573d6000803e3d6000fd5b505050602060405103519050600560008273ffffffffffffffffffffffffffffffffffffffff1673ffffffffffffffffffffffffffffffffffffffff1681526020019081526020016000206040518060400160405290816000820160009054906101000a900460ff1660ff1660ff1681526020016000820160019054906101000a900460ff166002811115611aaa57611aa9614df0565b5b6002811115611abc57611abb614df0565b5b81525050925060016002811115611ad657611ad5614df0565b5b83602001516002811115611aed57611aec614df0565b5b14611b2d576040517f08c379a0000000000000000000000000000000000000000000000000000000008152600401611b2490614fd1565b60405180910390fd5b600073ffffffffffffffffffffffffffffffffffffffff1686846000015160ff16601f8110611b5f57611b5e61466a565b5b602002015173ffffffffffffffffffffffffffffffffffffffff1614611bba576040517f08c379a0000000000000000000000000000000000000000000000000000000008152600401611bb19061503d565b60405180910390fd5b8086846000015160ff16601f8110611bd557611bd461466a565b5b602002019073ffffffffffffffffffffffffffffffffffffffff16908173ffffffffffffffffffffffffffffffffffffffff1681525050600185611c199190614c81565b94505080611c26906146c8565b9050611969565b505050611c3e833383858e8e612d78565b5050505050505050505050565b60008073ffffffffffffffffffffffffffffffffffffffff16600c60009054906101000a900473ffffffffffffffffffffffffffffffffffffffff1673ffffffffffffffffffffffffffffffffffffffff161415611cd5576040517f9c5fe32400000000000000000000000000000000000000000000000000000000815260040160405180910390fd5b600060405180608001604052808867ffffffffffffffff1681526020013373ffffffffffffffffffffffffffffffffffffffff1681526020018563ffffffff1681526020018481525090506000611d2d8787846128da565b90506000600c60009054906101000a900473ffffffffffffffffffffffffffffffffffffffff1673ffffffffffffffffffffffffffffffffffffffff1663f1e14a218989866040518463ffffffff1660e01b8152600401611d909392919061487d565b60206040518083038186803b158015611da857600080fd5b505afa158015611dbc573d6000803e3d6000fd5b505050506040513d601f19601f82011682018060405250810190611de09190615089565b9050600c60009054906101000a900473ffffffffffffffffffffffffffffffffffffffff1673ffffffffffffffffffffffffffffffffffffffff1663a1a6d041878785856040518563ffffffff1660e01b8152600401611e4394939291906150c5565b60206040518083038186803b158015611e5b57600080fd5b505afa158015611e6f573d6000803e3d6000fd5b505050506040513d601f19601f82011682018060405250810190611e939190615089565b935050505095945050505050565b6060600b8054611eb090614ac8565b80601f0160208091040260200160405190810160405280929190818152602001828054611edc90614ac8565b8015611f295780601f10611efe57610100808354040283529160200191611f29565b820191906000526020600020905b815481529060010190602001808311611f0c57829003601f168201915b5050505050905090565b855185518560ff16601f831115611f7f576040517f08c379a0000000000000000000000000000000000000000000000000000000008152600401611f7690615156565b60405180910390fd5b60008111611fc2576040517f08c379a0000000000000000000000000000000000000000000000000000000008152600401611fb9906151c2565b60405180910390fd5b818314612004576040517f08c379a0000000000000000000000000000000000000000000000000000000008152600401611ffb90615254565b60405180910390fd5b8060036120119190615274565b8311612052576040517f08c379a00000000000000000000000000000000000000000000000000000000081526004016120499061531a565b60405180910390fd5b61205a612a29565b60006040518060c001604052808b81526020018a81526020018960ff1681526020018881526020018767ffffffffffffffff1681526020018681525090506120aa816040015182606001516131c2565b5b6000600680549050146122be57600060016006805490506120cc919061533a565b90506000600682815481106120e4576120e361466a565b5b9060005260206000200160009054906101000a900473ffffffffffffffffffffffffffffffffffffffff1690506000600783815481106121275761212661466a565b5b9060005260206000200160009054906101000a900473ffffffffffffffffffffffffffffffffffffffff169050600560008373ffffffffffffffffffffffffffffffffffffffff1673ffffffffffffffffffffffffffffffffffffffff168152602001908152602001600020600080820160006101000a81549060ff02191690556000820160016101000a81549060ff02191690555050600560008273ffffffffffffffffffffffffffffffffffffffff1673ffffffffffffffffffffffffffffffffffffffff168152602001908152602001600020600080820160006101000a81549060ff02191690556000820160016101000a81549060ff02191690555050600680548061223a5761223961536e565b5b6001900381819060005260206000200160006101000a81549073ffffffffffffffffffffffffffffffffffffffff0219169055905560078054806122815761228061536e565b5b6001900381819060005260206000200160006101000a81549073ffffffffffffffffffffffffffffffffffffffff021916905590555050506120ab565b60005b81600001515181101561274057600060028111156122e2576122e1614df0565b5b60056000846000015184815181106122fd576122fc61466a565b5b602002602001015173ffffffffffffffffffffffffffffffffffffffff1673ffffffffffffffffffffffffffffffffffffffff16815260200190815260200160002060000160019054906101000a900460ff16600281111561236257612361614df0565b5b146123a2576040517f08c379a0000000000000000000000000000000000000000000000000000000008152600401612399906153e9565b60405180910390fd5b60405180604001604052808260ff168152602001600160028111156123ca576123c9614df0565b5b81525060056000846000015184815181106123e8576123e761466a565b5b602002602001015173ffffffffffffffffffffffffffffffffffffffff1673ffffffffffffffffffffffffffffffffffffffff16815260200190815260200160002060008201518160000160006101000a81548160ff021916908360ff16021790555060208201518160000160016101000a81548160ff0219169083600281111561247657612475614df0565b5b02179055509050506000600281111561249257612491614df0565b5b60056000846020015184815181106124ad576124ac61466a565b5b602002602001015173ffffffffffffffffffffffffffffffffffffffff1673ffffffffffffffffffffffffffffffffffffffff16815260200190815260200160002060000160019054906101000a900460ff16600281111561251257612511614df0565b5b14612552576040517f08c379a000000000000000000000000000000000000000000000000000000000815260040161254990615455565b60405180910390fd5b60405180604001604052808260ff16815260200160028081111561257957612578614df0565b5b81525060056000846020015184815181106125975761259661466a565b5b602002602001015173ffffffffffffffffffffffffffffffffffffffff1673ffffffffffffffffffffffffffffffffffffffff16815260200190815260200160002060008201518160000160006101000a81548160ff021916908360ff16021790555060208201518160000160016101000a81548160ff0219169083600281111561262557612624614df0565b5b02179055509050506006826000015182815181106126465761264561466a565b5b60200260200101519080600181540180825580915050600190039060005260206000200160009091909190916101000a81548173ffffffffffffffffffffffffffffffffffffffff021916908373ffffffffffffffffffffffffffffffffffffffff1602179055506007826020015182815181106126c7576126c661466a565b5b60200260200101519080600181540180825580915050600190039060005260206000200160009091909190916101000a81548173ffffffffffffffffffffffffffffffffffffffff021916908373ffffffffffffffffffffffffffffffffffffffff16021790555080612739906146c8565b90506122c1565b508060400151600260010160006101000a81548160ff021916908360ff160217905550600060048054906101000a900463ffffffff169050436004806101000a81548163ffffffff021916908363ffffffff1602179055506001600460008282829054906101000a900463ffffffff166127ba9190615475565b92506101000a81548163ffffffff021916908363ffffffff1602179055506128194630600460009054906101000a900463ffffffff1663ffffffff16856000015186602001518760400151886060015189608001518a60a001516131c6565b600260000181905550816000015151600260010160016101000a81548160ff021916908360ff1602179055507f1591690b8638f5fb2dbec82ac741805ac5da8b45dc5263f4875b0496fdce4e0581600260000154600460009054906101000a900463ffffffff16856000015186602001518760400151886060015189608001518a60a001516040516128b3999897969594939291906154e0565b60405180910390a16128cd8260400151836060015161326f565b5050505050505050505050565b60009392505050565b6128eb612a29565b6128f481613273565b50565b6000612901610aad565b61290e5760019050612925565b61292282600961339990919063ffffffff16565b90505b919050565b6000612934611312565b73ffffffffffffffffffffffffffffffffffffffff163373ffffffffffffffffffffffffffffffffffffffff1614905090565b600061298f836000018373ffffffffffffffffffffffffffffffffffffffff1660001b6133c9565b905092915050565b606060006129a7836000016134dd565b905060608190508092505050919050565b6129c1326128f7565b6129f7576040517f0809490800000000000000000000000000000000000000000000000000000000815260040160405180910390fd5b565b6000612a21836000018373ffffffffffffffffffffffffffffffffffffffff1660001b613539565b905092915050565b600060029054906101000a900473ffffffffffffffffffffffffffffffffffffffff1673ffffffffffffffffffffffffffffffffffffffff163373ffffffffffffffffffffffffffffffffffffffff1614612ab0576040517f2b5c74de00000000000000000000000000000000000000000000000000000000815260040160405180910390fd5b565b6000803073ffffffffffffffffffffffffffffffffffffffff1663814118346040518163ffffffff1660e01b815260040160006040518083038186803b158015612afb57600080fd5b505afa158015612b0f573d6000803e3d6000fd5b505050506040513d6000823e3d601f19601f82011682018060405250810190612b389190614a50565b905060005b8151811015612bb2578373ffffffffffffffffffffffffffffffffffffffff16828281518110612b7057612b6f61466a565b5b602002602001015173ffffffffffffffffffffffffffffffffffffffff161415612b9f57600192505050612bb9565b8080612baa906146c8565b915050612b3d565b5060009150505b919050565b6000808273ffffffffffffffffffffffffffffffffffffffff163b119050919050565b600060019054906101000a900460ff16612c30576040517f08c379a0000000000000000000000000000000000000000000000000000000008152600401612c27906155fb565b60405180910390fd5b612c3b3360006135a9565b80600160146101000a81548160ff02191690831515021790555050565b600060019054906101000a900460ff16612ca7576040517f08c379a0000000000000000000000000000000000000000000000000000000008152600401612c9e906155fb565b60405180910390fd5b80600860006101000a81548160ff02191690831515021790555050565b6000600190509392505050565b600080602084849050612ce49190615274565b602087879050612cf49190615274565b8989905061014461ffff16612d09919061561b565b612d13919061561b565b612d1d919061561b565b612d27919061561b565b905080600036905014612d6f576040517f08c379a0000000000000000000000000000000000000000000000000000000008152600401612d66906156bd565b60405180910390fd5b50505050505050565b600073ffffffffffffffffffffffffffffffffffffffff16600c60009054906101000a900473ffffffffffffffffffffffffffffffffffffffff1673ffffffffffffffffffffffffffffffffffffffff161415612e01576040517f9c5fe32400000000000000000000000000000000000000000000000000000000815260040160405180910390fd5b60608060608484810190612e159190615881565b809350819450829550505050600083511480612e3357508151835114155b80612e4057508051835114155b15612e77576040517f0be3632800000000000000000000000000000000000000000000000000000000815260040160405180910390fd5b600083515a8b612e87919061533a565b612e919190615928565b905060005b84518110156131b557600c60009054906101000a900473ffffffffffffffffffffffffffffffffffffffff1673ffffffffffffffffffffffffffffffffffffffff16630739e4f1868381518110612ef057612eef61466a565b5b6020026020010151868481518110612f0b57612f0a61466a565b5b6020026020010151868581518110612f2657612f2561466a565b5b60200260200101518e8d8f895a6040518963ffffffff1660e01b8152600401612f569897969594939291906159dd565b602060405180830381600087803b158015612f7057600080fd5b505af1925050508015612fa157506040513d601f19601f82011682018060405250810190612f9e9190615a91565b60015b61302f573d8060008114612fd1576040519150601f19603f3d011682016040523d82523d6000602084013e612fd6565b606091505b50858281518110612fea57612fe961466a565b5b60200260200101517fe0b838ffe6ee22a0d3acf19a85db6a41b34a1ab739e2d6c759a2e42d95bdccb2826040516130219190614242565b60405180910390a2506131a2565b6000600281111561304357613042614df0565b5b81600281111561305657613055614df0565b5b14156130a85785828151811061306f5761306e61466a565b5b60200260200101517f9e9bc7616d42c2835d05ae617e508454e63b30b934be8aa932ebc125e0e58a6460405160405180910390a26131a0565b600160028111156130bc576130bb614df0565b5b8160028111156130cf576130ce614df0565b5b141561312a578582815181106130e8576130e761466a565b5b60200260200101517fb2931868c372fe17a25643458add467d60ec5c51125a99b7309f41f5bcd2da6c60405161311d90615b0a565b60405180910390a261319f565b60028081111561313d5761313c614df0565b5b8160028111156131505761314f614df0565b5b141561319e578582815181106131695761316861466a565b5b60200260200101517fa1c120e327c9ad8b075793878c88d59b8934b97ae37117faa3bb21616237f7be60405160405180910390a25b5b5b505b80806131ad906146c8565b915050612e96565b5050505050505050505050565b5050565b6000808a8a8a8a8a8a8a8a8a6040516020016131ea99989796959493929190615b2a565b6040516020818303038152906040528051906020012060001c9050600060f07fffffffffffffffffffffffffffffffffffffffffffffffffffffffffffffffff901b905060007e010000000000000000000000000000000000000000000000000000000000009050811983168282161760001b93505050509998505050505050505050565b5050565b3373ffffffffffffffffffffffffffffffffffffffff168173ffffffffffffffffffffffffffffffffffffffff1614156132d9576040517f282010c300000000000000000000000000000000000000000000000000000000815260040160405180910390fd5b80600160006101000a81548173ffffffffffffffffffffffffffffffffffffffff021916908373ffffffffffffffffffffffffffffffffffffffff1602179055508073ffffffffffffffffffffffffffffffffffffffff16600060029054906101000a900473ffffffffffffffffffffffffffffffffffffffff1673ffffffffffffffffffffffffffffffffffffffff167fed8889f560326eb138920d842192f0eb3dd22b4f139c87a2c57538e05bae127860405160405180910390a350565b60006133c1836000018373ffffffffffffffffffffffffffffffffffffffff1660001b6136e2565b905092915050565b600080836001016000848152602001908152602001600020549050600081146134d15760006001826133fb919061533a565b9050600060018660000180549050613413919061533a565b90508181146134825760008660000182815481106134345761343361466a565b5b90600052602060002001549050808760000184815481106134585761345761466a565b5b90600052602060002001819055508387600101600083815260200190815260200160002081905550505b856000018054806134965761349561536e565b5b6001900381819060005260206000200160009055905585600101600086815260200190815260200160002060009055600193505050506134d7565b60009150505b92915050565b60608160000180548060200260200160405190810160405280929190818152602001828054801561352d57602002820191906000526020600020905b815481526020019060010190808311613519575b50505050509050919050565b600061354583836136e2565b61359e5782600001829080600181540180825580915050600190039060005260206000200160009091909190915055826000018054905083600101600084815260200190815260200160002081905550600190506135a3565b600090505b92915050565b600060019054906101000a900460ff166135f8576040517f08c379a00000000000000000000000000000000000000000000000000000000081526004016135ef906155fb565b60405180910390fd5b600073ffffffffffffffffffffffffffffffffffffffff168273ffffffffffffffffffffffffffffffffffffffff16141561365f576040517fb6b515fa00000000000000000000000000000000000000000000000000000000815260040160405180910390fd5b81600060026101000a81548173ffffffffffffffffffffffffffffffffffffffff021916908373ffffffffffffffffffffffffffffffffffffffff160217905550600073ffffffffffffffffffffffffffffffffffffffff168173ffffffffffffffffffffffffffffffffffffffff16146136de576136dd81613273565b5b5050565b600080836001016000848152602001908152602001600020541415905092915050565b50805461371190614ac8565b6000825580601f106137235750613742565b601f016020900490600052602060002090810190613741919061381d565b5b50565b82805461375190614ac8565b90600052602060002090601f01602090048101928261377357600085556137ba565b82601f1061378c57803560ff19168380011785556137ba565b828001600101855582156137ba579182015b828111156137b957823582559160200191906001019061379e565b5b5090506137c7919061381d565b5090565b604051806103e00160405280601f90602082028036833780820191505090505090565b6040518060400160405280600060ff1681526020016000600281111561381757613816614df0565b5b81525090565b5b8082111561383657600081600090555060010161381e565b5090565b6000604051905090565b600080fd5b600080fd5b600080fd5b600080fd5b600080fd5b60008083601f8401126138735761387261384e565b5b8235905067ffffffffffffffff8111156138905761388f613853565b5b6020830191508360208202830111156138ac576138ab613858565b5b9250929050565b600080602083850312156138ca576138c9613844565b5b600083013567ffffffffffffffff8111156138e8576138e7613849565b5b6138f48582860161385d565b92509250509250929050565b600081519050919050565b600082825260208201905092915050565b60005b8381101561393a57808201518184015260208101905061391f565b83811115613949576000848401525b50505050565b6000601f19601f8301169050919050565b600061396b82613900565b613975818561390b565b935061398581856020860161391c565b61398e8161394f565b840191505092915050565b600060208201905081810360008301526139b38184613960565b905092915050565b600081519050919050565b600082825260208201905092915050565b6000819050602082019050919050565b600073ffffffffffffffffffffffffffffffffffffffff82169050919050565b6000613a12826139e7565b9050919050565b613a2281613a07565b82525050565b6000613a348383613a19565b60208301905092915050565b6000602082019050919050565b6000613a58826139bb565b613a6281856139c6565b9350613a6d836139d7565b8060005b83811015613a9e578151613a858882613a28565b9750613a9083613a40565b925050600181019050613a71565b5085935050505092915050565b60006020820190508181036000830152613ac58184613a4d565b905092915050565b613ad681613a07565b8114613ae157600080fd5b50565b600081359050613af381613acd565b92915050565b600060208284031215613b0f57613b0e613844565b5b6000613b1d84828501613ae4565b91505092915050565b600067ffffffffffffffff82169050919050565b613b4381613b26565b8114613b4e57600080fd5b50565b600081359050613b6081613b3a565b92915050565b60008083601f840112613b7c57613b7b61384e565b5b8235905067ffffffffffffffff811115613b9957613b98613853565b5b602083019150836001820283011115613bb557613bb4613858565b5b9250929050565b600063ffffffff82169050919050565b613bd581613bbc565b8114613be057600080fd5b50565b600081359050613bf281613bcc565b92915050565b60008060008060608587031215613c1257613c11613844565b5b6000613c2087828801613b51565b945050602085013567ffffffffffffffff811115613c4157613c40613849565b5b613c4d87828801613b66565b93509350506040613c6087828801613be3565b91505092959194509250565b6000819050919050565b613c7f81613c6c565b82525050565b6000602082019050613c9a6000830184613c76565b92915050565b60008115159050919050565b613cb581613ca0565b82525050565b6000602082019050613cd06000830184613cac565b92915050565b600081519050919050565b600082825260208201905092915050565b6000819050602082019050919050565b600081519050919050565b600082825260208201905092915050565b6000613d2982613d02565b613d338185613d0d565b9350613d4381856020860161391c565b613d4c8161394f565b840191505092915050565b6000613d638383613d1e565b905092915050565b6000602082019050919050565b6000613d8382613cd6565b613d8d8185613ce1565b935083602082028501613d9f85613cf2565b8060005b85811015613ddb5784840389528151613dbc8582613d57565b9450613dc783613d6b565b925060208a01995050600181019050613da3565b50829750879550505050505092915050565b60006040820190508181036000830152613e078185613a4d565b90508181036020830152613e1b8184613d78565b90509392505050565b613e2d81613a07565b82525050565b6000602082019050613e486000830184613e24565b92915050565b60008060208385031215613e6557613e64613844565b5b600083013567ffffffffffffffff811115613e8357613e82613849565b5b613e8f85828601613b66565b92509250509250929050565b600080600060408486031215613eb457613eb3613844565b5b6000613ec286828701613ae4565b935050602084013567ffffffffffffffff811115613ee357613ee2613849565b5b613eef86828701613b66565b92509250509250925092565b613f0481613bbc565b82525050565b6000606082019050613f1f6000830186613efb565b613f2c6020830185613efb565b613f396040830184613c76565b949350505050565b6000606082019050613f566000830186613cac565b613f636020830185613c76565b613f706040830184613efb565b949350505050565b600081905082602060030282011115613f9457613f93613858565b5b92915050565b60008083601f840112613fb057613faf61384e565b5b8235905067ffffffffffffffff811115613fcd57613fcc613853565b5b602083019150836020820283011115613fe957613fe8613858565b5b9250929050565b613ff981613c6c565b811461400457600080fd5b50565b60008135905061401681613ff0565b92915050565b60008060008060008060008060e0898b03121561403c5761403b613844565b5b600061404a8b828c01613f78565b985050606089013567ffffffffffffffff81111561406b5761406a613849565b5b6140778b828c01613b66565b9750975050608089013567ffffffffffffffff81111561409a57614099613849565b5b6140a68b828c01613f9a565b955095505060a089013567ffffffffffffffff8111156140c9576140c8613849565b5b6140d58b828c01613f9a565b935093505060c06140e88b828c01614007565b9150509295985092959890939650565b6000819050919050565b61410b816140f8565b811461411657600080fd5b50565b60008135905061412881614102565b92915050565b60008060008060006080868803121561414a57614149613844565b5b600061415888828901613b51565b955050602086013567ffffffffffffffff81111561417957614178613849565b5b61418588828901613b66565b9450945050604061419888828901613be3565b92505060606141a988828901614119565b9150509295509295909350565b60006bffffffffffffffffffffffff82169050919050565b6141d7816141b6565b82525050565b60006020820190506141f260008301846141ce565b92915050565b600082825260208201905092915050565b600061421482613d02565b61421e81856141f8565b935061422e81856020860161391c565b6142378161394f565b840191505092915050565b6000602082019050818103600083015261425c8184614209565b905092915050565b7f4e487b7100000000000000000000000000000000000000000000000000000000600052604160045260246000fd5b61429c8261394f565b810181811067ffffffffffffffff821117156142bb576142ba614264565b5b80604052505050565b60006142ce61383a565b90506142da8282614293565b919050565b600067ffffffffffffffff8211156142fa576142f9614264565b5b602082029050602081019050919050565b600061431e614319846142df565b6142c4565b9050808382526020820190506020840283018581111561434157614340613858565b5b835b8181101561436a57806143568882613ae4565b845260208401935050602081019050614343565b5050509392505050565b600082601f8301126143895761438861384e565b5b813561439984826020860161430b565b91505092915050565b600060ff82169050919050565b6143b8816143a2565b81146143c357600080fd5b50565b6000813590506143d5816143af565b92915050565b600080fd5b600067ffffffffffffffff8211156143fb576143fa614264565b5b6144048261394f565b9050602081019050919050565b82818337600083830152505050565b600061443361442e846143e0565b6142c4565b90508281526020810184848401111561444f5761444e6143db565b5b61445a848285614411565b509392505050565b600082601f8301126144775761447661384e565b5b8135614487848260208601614420565b91505092915050565b60008060008060008060c087890312156144ad576144ac613844565b5b600087013567ffffffffffffffff8111156144cb576144ca613849565b5b6144d789828a01614374565b965050602087013567ffffffffffffffff8111156144f8576144f7613849565b5b61450489828a01614374565b955050604061451589828a016143c6565b945050606087013567ffffffffffffffff81111561453657614535613849565b5b61454289828a01614462565b935050608061455389828a01613b51565b92505060a087013567ffffffffffffffff81111561457457614573613849565b5b61458089828a01614462565b9150509295509295509295565b600080fd5b6000608082840312156145a8576145a761458d565b5b6145b260806142c4565b905060006145c284828501613b51565b60008301525060206145d684828501613ae4565b60208301525060406145ea84828501613be3565b60408301525060606145fe84828501614119565b60608301525092915050565b600080600060a0848603121561462357614622613844565b5b600084013567ffffffffffffffff81111561464157614640613849565b5b61464d86828701613b66565b9350935050602061466086828701614592565b9150509250925092565b7f4e487b7100000000000000000000000000000000000000000000000000000000600052603260045260246000fd5b7f4e487b7100000000000000000000000000000000000000000000000000000000600052601160045260246000fd5b60006146d3826140f8565b91507fffffffffffffffffffffffffffffffffffffffffffffffffffffffffffffffff82141561470657614705614699565b5b600182019050919050565b6000819050919050565b600061472a6020840184613ae4565b905092915050565b6000602082019050919050565b600061474b83856139c6565b935061475682614711565b8060005b8581101561478f5761476c828461471b565b6147768882613a28565b975061478183614732565b92505060018101905061475a565b5085925050509392505050565b600060408201905081810360008301526147b781858761473f565b90506147c66020830184613e24565b949350505050565b60006147da83856141f8565b93506147e7838584614411565b6147f08361394f565b840190509392505050565b61480481613b26565b82525050565b61481381613bbc565b82525050565b614822816140f8565b82525050565b60808201600082015161483e60008501826147fb565b5060208201516148516020850182613a19565b506040820151614864604085018261480a565b5060608201516148776060850182614819565b50505050565b600060a08201905081810360008301526148988185876147ce565b90506148a76020830184614828565b949350505050565b6000815190506148be81613ff0565b92915050565b6000602082840312156148da576148d9613844565b5b60006148e8848285016148af565b91505092915050565b6148fa81613b26565b82525050565b600060208201905061491560008301846148f1565b92915050565b60008151905061492a81613acd565b92915050565b60006020828403121561494657614945613844565b5b60006149548482850161491b565b91505092915050565b600060a0820190506149726000830189613e24565b61497f6020830188613e24565b61498c60408301876148f1565b6149996060830186613e24565b81810360808301526149ac8184866147ce565b9050979650505050505050565b60006149cc6149c7846142df565b6142c4565b905080838252602082019050602084028301858111156149ef576149ee613858565b5b835b81811015614a185780614a04888261491b565b8452602084019350506020810190506149f1565b5050509392505050565b600082601f830112614a3757614a3661384e565b5b8151614a478482602086016149b9565b91505092915050565b600060208284031215614a6657614a65613844565b5b600082015167ffffffffffffffff811115614a8457614a83613849565b5b614a9084828501614a22565b91505092915050565b7f4e487b7100000000000000000000000000000000000000000000000000000000600052602260045260246000fd5b60006002820490506001821680614ae057607f821691505b60208210811415614af457614af3614a99565b5b50919050565b7f496e697469616c697a61626c653a20636f6e747261637420697320616c72656160008201527f647920696e697469616c697a6564000000000000000000000000000000000000602082015250565b6000614b56602e8361390b565b9150614b6182614afa565b604082019050919050565b60006020820190508181036000830152614b8581614b49565b9050919050565b6000819050919050565b6000819050919050565b6000614bbb614bb6614bb184614b8c565b614b96565b6143a2565b9050919050565b614bcb81614ba0565b82525050565b6000602082019050614be66000830184614bc2565b92915050565b6000604082019050614c016000830185613c76565b614c0e6020830184613efb565b9392505050565b7f636f6e666967446967657374206d69736d617463680000000000000000000000600082015250565b6000614c4b60158361390b565b9150614c5682614c15565b602082019050919050565b60006020820190508181036000830152614c7a81614c3e565b9050919050565b6000614c8c826143a2565b9150614c97836143a2565b92508260ff03821115614cad57614cac614699565b5b828201905092915050565b7f4e487b7100000000000000000000000000000000000000000000000000000000600052601260045260246000fd5b6000614cf2826143a2565b9150614cfd836143a2565b925082614d0d57614d0c614cb8565b5b828204905092915050565b7f77726f6e67206e756d626572206f66207369676e617475726573000000000000600082015250565b6000614d4e601a8361390b565b9150614d5982614d18565b602082019050919050565b60006020820190508181036000830152614d7d81614d41565b9050919050565b7f7369676e617475726573206f7574206f6620726567697374726174696f6e0000600082015250565b6000614dba601e8361390b565b9150614dc582614d84565b602082019050919050565b60006020820190508181036000830152614de981614dad565b9050919050565b7f4e487b7100000000000000000000000000000000000000000000000000000000600052602160045260246000fd5b7f756e617574686f72697a6564207472616e736d69747465720000000000000000600082015250565b6000614e5560188361390b565b9150614e6082614e1f565b602082019050919050565b60006020820190508181036000830152614e8481614e48565b9050919050565b600081905092915050565b6000614ea28385614e8b565b9350614eaf838584614411565b82840190509392505050565b6000614ec8828486614e96565b91508190509392505050565b6000819050919050565b614eef614eea82613c6c565b614ed4565b82525050565b614f0160608383614411565b5050565b6000614f118285614ede565b602082019150614f218284614ef5565b6060820191508190509392505050565b614f3a816143a2565b82525050565b6000608082019050614f556000830187613c76565b614f626020830186614f31565b614f6f6040830185613c76565b614f7c6060830184613c76565b95945050505050565b7f61646472657373206e6f7420617574686f72697a656420746f207369676e0000600082015250565b6000614fbb601e8361390b565b9150614fc682614f85565b602082019050919050565b60006020820190508181036000830152614fea81614fae565b9050919050565b7f6e6f6e2d756e69717565207369676e6174757265000000000000000000000000600082015250565b600061502760148361390b565b915061503282614ff1565b602082019050919050565b600060208201905081810360008301526150568161501a565b9050919050565b615066816141b6565b811461507157600080fd5b50565b6000815190506150838161505d565b92915050565b60006020828403121561509f5761509e613844565b5b60006150ad84828501615074565b91505092915050565b6150bf816140f8565b82525050565b60006080820190506150da6000830187613efb565b6150e760208301866150b6565b6150f460408301856141ce565b61510160608301846141ce565b95945050505050565b7f746f6f206d616e79207369676e65727300000000000000000000000000000000600082015250565b600061514060108361390b565b915061514b8261510a565b602082019050919050565b6000602082019050818103600083015261516f81615133565b9050919050565b7f66206d75737420626520706f7369746976650000000000000000000000000000600082015250565b60006151ac60128361390b565b91506151b782615176565b602082019050919050565b600060208201905081810360008301526151db8161519f565b9050919050565b7f6f7261636c6520616464726573736573206f7574206f6620726567697374726160008201527f74696f6e00000000000000000000000000000000000000000000000000000000602082015250565b600061523e60248361390b565b9150615249826151e2565b604082019050919050565b6000602082019050818103600083015261526d81615231565b9050919050565b600061527f826140f8565b915061528a836140f8565b9250817fffffffffffffffffffffffffffffffffffffffffffffffffffffffffffffffff04831182151516156152c3576152c2614699565b5b828202905092915050565b7f6661756c74792d6f7261636c65206620746f6f20686967680000000000000000600082015250565b600061530460188361390b565b915061530f826152ce565b602082019050919050565b60006020820190508181036000830152615333816152f7565b9050919050565b6000615345826140f8565b9150615350836140f8565b92508282101561536357615362614699565b5b828203905092915050565b7f4e487b7100000000000000000000000000000000000000000000000000000000600052603160045260246000fd5b7f7265706561746564207369676e65722061646472657373000000000000000000600082015250565b60006153d360178361390b565b91506153de8261539d565b602082019050919050565b60006020820190508181036000830152615402816153c6565b9050919050565b7f7265706561746564207472616e736d6974746572206164647265737300000000600082015250565b600061543f601c8361390b565b915061544a82615409565b602082019050919050565b6000602082019050818103600083015261546e81615432565b9050919050565b600061548082613bbc565b915061548b83613bbc565b92508263ffffffff038211156154a4576154a3614699565b5b828201905092915050565b60006154ca6154c56154c084613bbc565b614b96565b613b26565b9050919050565b6154da816154af565b82525050565b6000610120820190506154f6600083018c613efb565b615503602083018b613c76565b615510604083018a6154d1565b81810360608301526155228189613a4d565b905081810360808301526155368188613a4d565b905061554560a0830187614f31565b81810360c08301526155578186614209565b905061556660e08301856148f1565b8181036101008301526155798184614209565b90509a9950505050505050505050565b7f496e697469616c697a61626c653a20636f6e7472616374206973206e6f74206960008201527f6e697469616c697a696e67000000000000000000000000000000000000000000602082015250565b60006155e5602b8361390b565b91506155f082615589565b604082019050919050565b60006020820190508181036000830152615614816155d8565b9050919050565b6000615626826140f8565b9150615631836140f8565b9250827fffffffffffffffffffffffffffffffffffffffffffffffffffffffffffffffff0382111561566657615665614699565b5b828201905092915050565b7f63616c6c64617461206c656e677468206d69736d617463680000000000000000600082015250565b60006156a760188361390b565b91506156b282615671565b602082019050919050565b600060208201905081810360008301526156d68161569a565b9050919050565b600067ffffffffffffffff8211156156f8576156f7614264565b5b602082029050602081019050919050565b600061571c615717846156dd565b6142c4565b9050808382526020820190506020840283018581111561573f5761573e613858565b5b835b8181101561576857806157548882614007565b845260208401935050602081019050615741565b5050509392505050565b600082601f8301126157875761578661384e565b5b8135615797848260208601615709565b91505092915050565b600067ffffffffffffffff8211156157bb576157ba614264565b5b602082029050602081019050919050565b60006157df6157da846157a0565b6142c4565b9050808382526020820190506020840283018581111561580257615801613858565b5b835b8181101561584957803567ffffffffffffffff8111156158275761582661384e565b5b8086016158348982614462565b85526020850194505050602081019050615804565b5050509392505050565b600082601f8301126158685761586761384e565b5b81356158788482602086016157cc565b91505092915050565b60008060006060848603121561589a57615899613844565b5b600084013567ffffffffffffffff8111156158b8576158b7613849565b5b6158c486828701615772565b935050602084013567ffffffffffffffff8111156158e5576158e4613849565b5b6158f186828701615853565b925050604084013567ffffffffffffffff81111561591257615911613849565b5b61591e86828701615853565b9150509250925092565b6000615933826140f8565b915061593e836140f8565b92508261594e5761594d614cb8565b5b828204905092915050565b6000601f9050919050565b600081905092915050565b6000819050919050565b6000602082019050919050565b61598f81615959565b6159998184615964565b92506159a48261596f565b8060005b838110156159d55781516159bc8782613a28565b96506159c783615979565b9250506001810190506159a8565b505050505050565b60006104c0820190506159f3600083018b613c76565b8181036020830152615a05818a614209565b90508181036040830152615a198189614209565b9050615a286060830188613e24565b615a356080830187615986565b615a43610460830186614f31565b615a516104808301856150b6565b615a5f6104a08301846150b6565b9998505050505050505050565b60038110615a7957600080fd5b50565b600081519050615a8b81615a6c565b92915050565b600060208284031215615aa757615aa6613844565b5b6000615ab584828501615a7c565b91505092915050565b7f6572726f7220696e2063616c6c6261636b000000000000000000000000000000600082015250565b6000615af460118361390b565b9150615aff82615abe565b602082019050919050565b60006020820190508181036000830152615b2381615ae7565b9050919050565b600061012082019050615b40600083018c6150b6565b615b4d602083018b613e24565b615b5a604083018a6148f1565b8181036060830152615b6c8189613a4d565b90508181036080830152615b808188613a4d565b9050615b8f60a0830187614f31565b81810360c0830152615ba18186614209565b9050615bb060e08301856148f1565b818103610100830152615bc38184614209565b90509a995050505050505050505056fea264697066735822122042e16e8d950522de279cd695ed3db5dde592353c402b1dab888d719ad6d65a0a64736f6c63430008090033",
  "linkReferences": {},
  "deployedLinkReferences": {}
}