{
  "_format": "hh-sol-artifact-1",
  "contractName": "FunctionsBillingRegistry",
  "sourceName": "contracts/dev/functions/FunctionsBillingRegistry.sol",
  "abi": [
    {
      "inputs": [
        {
          "internalType": "uint256",
          "name": "internalBalance",
          "type": "uint256"
        },
        {
          "internalType": "uint256",
          "name": "externalBalance",
          "type": "uint256"
        }
      ],
      "name": "BalanceInvariantViolated",
      "type": "error"
    },
    {
      "inputs": [],
      "name": "CannotSelfTransfer",
      "type": "error"
    },
    {
      "inputs": [],
      "name": "EmptySendersList",
      "type": "error"
    },
    {
      "inputs": [
        {
          "internalType": "uint32",
          "name": "have",
          "type": "uint32"
        },
        {
          "internalType": "uint32",
          "name": "want",
          "type": "uint32"
        }
      ],
      "name": "GasLimitTooBig",
      "type": "error"
    },
    {
      "inputs": [],
      "name": "InsufficientBalance",
      "type": "error"
    },
    {
      "inputs": [],
      "name": "InvalidCalldata",
      "type": "error"
    },
    {
      "inputs": [
        {
          "internalType": "uint64",
          "name": "subscriptionId",
          "type": "uint64"
        },
        {
          "internalType": "address",
          "name": "consumer",
          "type": "address"
        }
      ],
      "name": "InvalidConsumer",
      "type": "error"
    },
    {
      "inputs": [
        {
          "internalType": "int256",
          "name": "linkWei",
          "type": "int256"
        }
      ],
      "name": "InvalidLinkWeiPrice",
      "type": "error"
    },
    {
      "inputs": [],
      "name": "InvalidSubscription",
      "type": "error"
    },
    {
      "inputs": [
        {
          "internalType": "address",
          "name": "proposedOwner",
          "type": "address"
        }
      ],
      "name": "MustBeRequestedOwner",
      "type": "error"
    },
    {
      "inputs": [
        {
          "internalType": "address",
          "name": "owner",
          "type": "address"
        }
      ],
      "name": "MustBeSubOwner",
      "type": "error"
    },
    {
      "inputs": [],
      "name": "NotAllowedToSetSenders",
      "type": "error"
    },
    {
      "inputs": [],
      "name": "NotProposedOwner",
      "type": "error"
    },
    {
      "inputs": [],
      "name": "OnlyCallableByOwner",
      "type": "error"
    },
    {
      "inputs": [],
      "name": "OnlyCallableFromLink",
      "type": "error"
    },
    {
      "inputs": [],
      "name": "OwnerMustBeSet",
      "type": "error"
    },
    {
      "inputs": [],
      "name": "PaymentTooLarge",
      "type": "error"
    },
    {
      "inputs": [],
      "name": "PendingRequestExists",
      "type": "error"
    },
    {
      "inputs": [],
      "name": "Reentrant",
      "type": "error"
    },
    {
      "inputs": [],
      "name": "TooManyConsumers",
      "type": "error"
    },
    {
      "inputs": [],
      "name": "UnauthorizedSender",
      "type": "error"
    },
    {
      "anonymous": false,
      "inputs": [
        {
          "indexed": false,
          "internalType": "address[]",
          "name": "senders",
          "type": "address[]"
        },
        {
          "indexed": false,
          "internalType": "address",
          "name": "changedBy",
          "type": "address"
        }
      ],
      "name": "AuthorizedSendersChanged",
      "type": "event"
    },
    {
      "anonymous": false,
      "inputs": [
        {
          "indexed": true,
          "internalType": "bytes32",
          "name": "requestId",
          "type": "bytes32"
        },
        {
          "indexed": false,
          "internalType": "uint64",
          "name": "subscriptionId",
          "type": "uint64"
        },
        {
          "indexed": false,
          "internalType": "uint96",
          "name": "signerPayment",
          "type": "uint96"
        },
        {
          "indexed": false,
          "internalType": "uint96",
          "name": "transmitterPayment",
          "type": "uint96"
        },
        {
          "indexed": false,
          "internalType": "uint96",
          "name": "totalCost",
          "type": "uint96"
        },
        {
          "indexed": false,
          "internalType": "bool",
          "name": "success",
          "type": "bool"
        }
      ],
      "name": "BillingEnd",
      "type": "event"
    },
    {
      "anonymous": false,
      "inputs": [
        {
          "indexed": true,
          "internalType": "bytes32",
          "name": "requestId",
          "type": "bytes32"
        },
        {
          "components": [
            {
              "internalType": "uint64",
              "name": "subscriptionId",
              "type": "uint64"
            },
            {
              "internalType": "address",
              "name": "client",
              "type": "address"
            },
            {
              "internalType": "uint32",
              "name": "gasLimit",
              "type": "uint32"
            },
            {
              "internalType": "uint256",
              "name": "gasPrice",
              "type": "uint256"
            },
            {
              "internalType": "address",
              "name": "don",
              "type": "address"
            },
            {
              "internalType": "uint96",
              "name": "donFee",
              "type": "uint96"
            },
            {
              "internalType": "uint96",
              "name": "registryFee",
              "type": "uint96"
            },
            {
              "internalType": "uint96",
              "name": "estimatedCost",
              "type": "uint96"
            },
            {
              "internalType": "uint256",
              "name": "timestamp",
              "type": "uint256"
            }
          ],
          "indexed": false,
          "internalType": "struct FunctionsBillingRegistry.Commitment",
          "name": "commitment",
          "type": "tuple"
        }
      ],
      "name": "BillingStart",
      "type": "event"
    },
    {
      "anonymous": false,
      "inputs": [
        {
          "indexed": false,
          "internalType": "uint32",
          "name": "maxGasLimit",
          "type": "uint32"
        },
        {
          "indexed": false,
          "internalType": "uint32",
          "name": "stalenessSeconds",
          "type": "uint32"
        },
        {
          "indexed": false,
          "internalType": "uint256",
          "name": "gasAfterPaymentCalculation",
          "type": "uint256"
        },
        {
          "indexed": false,
          "internalType": "int256",
          "name": "fallbackWeiPerUnitLink",
          "type": "int256"
        },
        {
          "indexed": false,
          "internalType": "uint32",
          "name": "gasOverhead",
          "type": "uint32"
        }
      ],
      "name": "ConfigSet",
      "type": "event"
    },
    {
      "anonymous": false,
      "inputs": [
        {
          "indexed": false,
          "internalType": "address",
          "name": "to",
          "type": "address"
        },
        {
          "indexed": false,
          "internalType": "uint256",
          "name": "amount",
          "type": "uint256"
        }
      ],
      "name": "FundsRecovered",
      "type": "event"
    },
    {
      "anonymous": false,
      "inputs": [
        {
          "indexed": false,
          "internalType": "uint8",
          "name": "version",
          "type": "uint8"
        }
      ],
      "name": "Initialized",
      "type": "event"
    },
    {
      "anonymous": false,
      "inputs": [
        {
          "indexed": true,
          "internalType": "address",
          "name": "from",
          "type": "address"
        },
        {
          "indexed": true,
          "internalType": "address",
          "name": "to",
          "type": "address"
        }
      ],
      "name": "OwnershipTransferRequested",
      "type": "event"
    },
    {
      "anonymous": false,
      "inputs": [
        {
          "indexed": true,
          "internalType": "address",
          "name": "from",
          "type": "address"
        },
        {
          "indexed": true,
          "internalType": "address",
          "name": "to",
          "type": "address"
        }
      ],
      "name": "OwnershipTransferred",
      "type": "event"
    },
    {
      "anonymous": false,
      "inputs": [
        {
          "indexed": false,
          "internalType": "address",
          "name": "account",
          "type": "address"
        }
      ],
      "name": "Paused",
      "type": "event"
    },
    {
      "anonymous": false,
      "inputs": [
        {
          "indexed": true,
          "internalType": "bytes32",
          "name": "requestId",
          "type": "bytes32"
        }
      ],
      "name": "RequestTimedOut",
      "type": "event"
    },
    {
      "anonymous": false,
      "inputs": [
        {
          "indexed": true,
          "internalType": "uint64",
          "name": "subscriptionId",
          "type": "uint64"
        },
        {
          "indexed": false,
          "internalType": "address",
          "name": "to",
          "type": "address"
        },
        {
          "indexed": false,
          "internalType": "uint256",
          "name": "amount",
          "type": "uint256"
        }
      ],
      "name": "SubscriptionCanceled",
      "type": "event"
    },
    {
      "anonymous": false,
      "inputs": [
        {
          "indexed": true,
          "internalType": "uint64",
          "name": "subscriptionId",
          "type": "uint64"
        },
        {
          "indexed": false,
          "internalType": "address",
          "name": "consumer",
          "type": "address"
        }
      ],
      "name": "SubscriptionConsumerAdded",
      "type": "event"
    },
    {
      "anonymous": false,
      "inputs": [
        {
          "indexed": true,
          "internalType": "uint64",
          "name": "subscriptionId",
          "type": "uint64"
        },
        {
          "indexed": false,
          "internalType": "address",
          "name": "consumer",
          "type": "address"
        }
      ],
      "name": "SubscriptionConsumerRemoved",
      "type": "event"
    },
    {
      "anonymous": false,
      "inputs": [
        {
          "indexed": true,
          "internalType": "uint64",
          "name": "subscriptionId",
          "type": "uint64"
        },
        {
          "indexed": false,
          "internalType": "address",
          "name": "owner",
          "type": "address"
        }
      ],
      "name": "SubscriptionCreated",
      "type": "event"
    },
    {
      "anonymous": false,
      "inputs": [
        {
          "indexed": true,
          "internalType": "uint64",
          "name": "subscriptionId",
          "type": "uint64"
        },
        {
          "indexed": false,
          "internalType": "uint256",
          "name": "oldBalance",
          "type": "uint256"
        },
        {
          "indexed": false,
          "internalType": "uint256",
          "name": "newBalance",
          "type": "uint256"
        }
      ],
      "name": "SubscriptionFunded",
      "type": "event"
    },
    {
      "anonymous": false,
      "inputs": [
        {
          "indexed": true,
          "internalType": "uint64",
          "name": "subscriptionId",
          "type": "uint64"
        },
        {
          "indexed": false,
          "internalType": "address",
          "name": "from",
          "type": "address"
        },
        {
          "indexed": false,
          "internalType": "address",
          "name": "to",
          "type": "address"
        }
      ],
      "name": "SubscriptionOwnerTransferRequested",
      "type": "event"
    },
    {
      "anonymous": false,
      "inputs": [
        {
          "indexed": true,
          "internalType": "uint64",
          "name": "subscriptionId",
          "type": "uint64"
        },
        {
          "indexed": false,
          "internalType": "address",
          "name": "from",
          "type": "address"
        },
        {
          "indexed": false,
          "internalType": "address",
          "name": "to",
          "type": "address"
        }
      ],
      "name": "SubscriptionOwnerTransferred",
      "type": "event"
    },
    {
      "anonymous": false,
      "inputs": [
        {
          "indexed": false,
          "internalType": "address",
          "name": "account",
          "type": "address"
        }
      ],
      "name": "Unpaused",
      "type": "event"
    },
    {
      "inputs": [],
      "name": "MAX_CONSUMERS",
      "outputs": [
        {
          "internalType": "uint16",
          "name": "",
          "type": "uint16"
        }
      ],
      "stateMutability": "view",
      "type": "function"
    },
    {
      "inputs": [],
      "name": "acceptOwnership",
      "outputs": [],
      "stateMutability": "nonpayable",
      "type": "function"
    },
    {
      "inputs": [
        {
          "internalType": "uint64",
          "name": "subscriptionId",
          "type": "uint64"
        }
      ],
      "name": "acceptSubscriptionOwnerTransfer",
      "outputs": [],
      "stateMutability": "nonpayable",
      "type": "function"
    },
    {
      "inputs": [
        {
          "internalType": "uint64",
          "name": "subscriptionId",
          "type": "uint64"
        },
        {
          "internalType": "address",
          "name": "consumer",
          "type": "address"
        }
      ],
      "name": "addConsumer",
      "outputs": [],
      "stateMutability": "nonpayable",
      "type": "function"
    },
    {
      "inputs": [
        {
          "internalType": "uint64",
          "name": "subscriptionId",
          "type": "uint64"
        },
        {
          "internalType": "address",
          "name": "to",
          "type": "address"
        }
      ],
      "name": "cancelSubscription",
      "outputs": [],
      "stateMutability": "nonpayable",
      "type": "function"
    },
    {
      "inputs": [],
      "name": "createSubscription",
      "outputs": [
        {
          "internalType": "uint64",
          "name": "",
          "type": "uint64"
        }
      ],
      "stateMutability": "nonpayable",
      "type": "function"
    },
    {
      "inputs": [
        {
          "internalType": "uint32",
          "name": "gasLimit",
          "type": "uint32"
        },
        {
          "internalType": "uint256",
          "name": "gasPrice",
          "type": "uint256"
        },
        {
          "internalType": "uint96",
          "name": "donFee",
          "type": "uint96"
        },
        {
          "internalType": "uint96",
          "name": "registryFee",
          "type": "uint96"
        }
      ],
      "name": "estimateCost",
      "outputs": [
        {
          "internalType": "uint96",
          "name": "",
          "type": "uint96"
        }
      ],
      "stateMutability": "view",
      "type": "function"
    },
    {
      "inputs": [
        {
          "internalType": "bytes32",
          "name": "requestId",
          "type": "bytes32"
        },
        {
          "internalType": "bytes",
          "name": "response",
          "type": "bytes"
        },
        {
          "internalType": "bytes",
          "name": "err",
          "type": "bytes"
        },
        {
          "internalType": "address",
          "name": "transmitter",
          "type": "address"
        },
        {
          "internalType": "address[31]",
          "name": "signers",
          "type": "address[31]"
        },
        {
          "internalType": "uint8",
          "name": "signerCount",
          "type": "uint8"
        },
        {
          "internalType": "uint256",
          "name": "reportValidationGas",
          "type": "uint256"
        },
        {
          "internalType": "uint256",
          "name": "initialGas",
          "type": "uint256"
        }
      ],
      "name": "fulfillAndBill",
      "outputs": [
        {
          "internalType": "enum FunctionsBillingRegistryInterface.FulfillResult",
          "name": "",
          "type": "uint8"
        }
      ],
      "stateMutability": "nonpayable",
      "type": "function"
    },
    {
      "inputs": [],
      "name": "getAuthorizedSenders",
      "outputs": [
        {
          "internalType": "address[]",
          "name": "",
          "type": "address[]"
        }
      ],
      "stateMutability": "view",
      "type": "function"
    },
    {
      "inputs": [],
      "name": "getConfig",
      "outputs": [
        {
          "internalType": "uint32",
          "name": "maxGasLimit",
          "type": "uint32"
        },
        {
          "internalType": "uint32",
          "name": "stalenessSeconds",
          "type": "uint32"
        },
        {
          "internalType": "uint256",
          "name": "gasAfterPaymentCalculation",
          "type": "uint256"
        },
        {
          "internalType": "int256",
          "name": "fallbackWeiPerUnitLink",
          "type": "int256"
        },
        {
          "internalType": "uint32",
          "name": "gasOverhead",
          "type": "uint32"
        },
        {
          "internalType": "address",
          "name": "linkAddress",
          "type": "address"
        },
        {
          "internalType": "address",
          "name": "linkPriceFeed",
          "type": "address"
        }
      ],
      "stateMutability": "view",
      "type": "function"
    },
    {
      "inputs": [],
      "name": "getCurrentsubscriptionId",
      "outputs": [
        {
          "internalType": "uint64",
          "name": "",
          "type": "uint64"
        }
      ],
      "stateMutability": "view",
      "type": "function"
    },
    {
      "inputs": [],
      "name": "getRequestConfig",
      "outputs": [
        {
          "internalType": "uint32",
          "name": "",
          "type": "uint32"
        },
        {
          "internalType": "address[]",
          "name": "",
          "type": "address[]"
        }
      ],
      "stateMutability": "view",
      "type": "function"
    },
    {
      "inputs": [
        {
          "internalType": "bytes",
          "name": "",
          "type": "bytes"
        },
        {
          "components": [
            {
              "internalType": "uint64",
              "name": "subscriptionId",
              "type": "uint64"
            },
            {
              "internalType": "address",
              "name": "client",
              "type": "address"
            },
            {
              "internalType": "uint32",
              "name": "gasLimit",
              "type": "uint32"
            },
            {
              "internalType": "uint256",
              "name": "gasPrice",
              "type": "uint256"
            }
          ],
          "internalType": "struct FunctionsBillingRegistryInterface.RequestBilling",
          "name": "",
          "type": "tuple"
        }
      ],
      "name": "getRequiredFee",
      "outputs": [
        {
          "internalType": "uint96",
          "name": "",
          "type": "uint96"
        }
      ],
      "stateMutability": "pure",
      "type": "function"
    },
    {
      "inputs": [
        {
          "internalType": "uint64",
          "name": "subscriptionId",
          "type": "uint64"
        }
      ],
      "name": "getSubscription",
      "outputs": [
        {
          "internalType": "uint96",
          "name": "balance",
          "type": "uint96"
        },
        {
          "internalType": "address",
          "name": "owner",
          "type": "address"
        },
        {
          "internalType": "address[]",
          "name": "consumers",
          "type": "address[]"
        }
      ],
      "stateMutability": "view",
      "type": "function"
    },
    {
      "inputs": [
        {
          "internalType": "uint64",
          "name": "subscriptionId",
          "type": "uint64"
        }
      ],
      "name": "getSubscriptionOwner",
      "outputs": [
        {
          "internalType": "address",
          "name": "owner",
          "type": "address"
        }
      ],
      "stateMutability": "view",
      "type": "function"
    },
    {
      "inputs": [],
      "name": "getTotalBalance",
      "outputs": [
        {
          "internalType": "uint256",
          "name": "",
          "type": "uint256"
        }
      ],
      "stateMutability": "view",
      "type": "function"
    },
    {
      "inputs": [
        {
          "internalType": "address",
          "name": "link",
          "type": "address"
        },
        {
          "internalType": "address",
          "name": "linkEthFeed",
          "type": "address"
        },
        {
          "internalType": "address",
          "name": "oracle",
          "type": "address"
        }
      ],
      "name": "initialize",
      "outputs": [],
      "stateMutability": "nonpayable",
      "type": "function"
    },
    {
      "inputs": [
        {
          "internalType": "address",
          "name": "sender",
          "type": "address"
        }
      ],
      "name": "isAuthorizedSender",
      "outputs": [
        {
          "internalType": "bool",
          "name": "",
          "type": "bool"
        }
      ],
      "stateMutability": "view",
      "type": "function"
    },
    {
      "inputs": [
        {
          "internalType": "address",
          "name": "",
          "type": "address"
        },
        {
          "internalType": "uint256",
          "name": "amount",
          "type": "uint256"
        },
        {
          "internalType": "bytes",
          "name": "data",
          "type": "bytes"
        }
      ],
      "name": "onTokenTransfer",
      "outputs": [],
      "stateMutability": "nonpayable",
      "type": "function"
    },
    {
      "inputs": [
        {
          "internalType": "address",
          "name": "recipient",
          "type": "address"
        },
        {
          "internalType": "uint96",
          "name": "amount",
          "type": "uint96"
        }
      ],
      "name": "oracleWithdraw",
      "outputs": [],
      "stateMutability": "nonpayable",
      "type": "function"
    },
    {
      "inputs": [],
      "name": "owner",
      "outputs": [
        {
          "internalType": "address",
          "name": "",
          "type": "address"
        }
      ],
      "stateMutability": "view",
      "type": "function"
    },
    {
      "inputs": [
        {
          "internalType": "uint64",
          "name": "subscriptionId",
          "type": "uint64"
        }
      ],
      "name": "ownerCancelSubscription",
      "outputs": [],
      "stateMutability": "nonpayable",
      "type": "function"
    },
    {
      "inputs": [],
      "name": "pause",
      "outputs": [],
      "stateMutability": "nonpayable",
      "type": "function"
    },
    {
      "inputs": [],
      "name": "paused",
      "outputs": [
        {
          "internalType": "bool",
          "name": "",
          "type": "bool"
        }
      ],
      "stateMutability": "view",
      "type": "function"
    },
    {
      "inputs": [
        {
          "internalType": "uint64",
          "name": "subscriptionId",
          "type": "uint64"
        }
      ],
      "name": "pendingRequestExists",
      "outputs": [
        {
          "internalType": "bool",
          "name": "",
          "type": "bool"
        }
      ],
      "stateMutability": "view",
      "type": "function"
    },
    {
      "inputs": [
        {
          "internalType": "address",
          "name": "to",
          "type": "address"
        }
      ],
      "name": "recoverFunds",
      "outputs": [],
      "stateMutability": "nonpayable",
      "type": "function"
    },
    {
      "inputs": [
        {
          "internalType": "uint64",
          "name": "subscriptionId",
          "type": "uint64"
        },
        {
          "internalType": "address",
          "name": "consumer",
          "type": "address"
        }
      ],
      "name": "removeConsumer",
      "outputs": [],
      "stateMutability": "nonpayable",
      "type": "function"
    },
    {
      "inputs": [
        {
          "internalType": "uint64",
          "name": "subscriptionId",
          "type": "uint64"
        },
        {
          "internalType": "address",
          "name": "newOwner",
          "type": "address"
        }
      ],
      "name": "requestSubscriptionOwnerTransfer",
      "outputs": [],
      "stateMutability": "nonpayable",
      "type": "function"
    },
    {
      "inputs": [
        {
          "internalType": "address[]",
          "name": "senders",
          "type": "address[]"
        }
      ],
      "name": "setAuthorizedSenders",
      "outputs": [],
      "stateMutability": "nonpayable",
      "type": "function"
    },
    {
      "inputs": [
        {
          "internalType": "uint32",
          "name": "maxGasLimit",
          "type": "uint32"
        },
        {
          "internalType": "uint32",
          "name": "stalenessSeconds",
          "type": "uint32"
        },
        {
          "internalType": "uint256",
          "name": "gasAfterPaymentCalculation",
          "type": "uint256"
        },
        {
          "internalType": "int256",
          "name": "fallbackWeiPerUnitLink",
          "type": "int256"
        },
        {
          "internalType": "uint32",
          "name": "gasOverhead",
          "type": "uint32"
        },
        {
          "internalType": "uint32",
          "name": "requestTimeoutSeconds",
          "type": "uint32"
        }
      ],
      "name": "setConfig",
      "outputs": [],
      "stateMutability": "nonpayable",
      "type": "function"
    },
    {
      "inputs": [
        {
          "internalType": "bytes",
          "name": "data",
          "type": "bytes"
        },
        {
          "components": [
            {
              "internalType": "uint64",
              "name": "subscriptionId",
              "type": "uint64"
            },
            {
              "internalType": "address",
              "name": "client",
              "type": "address"
            },
            {
              "internalType": "uint32",
              "name": "gasLimit",
              "type": "uint32"
            },
            {
              "internalType": "uint256",
              "name": "gasPrice",
              "type": "uint256"
            }
          ],
          "internalType": "struct FunctionsBillingRegistryInterface.RequestBilling",
          "name": "billing",
          "type": "tuple"
        }
      ],
      "name": "startBilling",
      "outputs": [
        {
          "internalType": "bytes32",
          "name": "",
          "type": "bytes32"
        }
      ],
      "stateMutability": "nonpayable",
      "type": "function"
    },
    {
      "inputs": [
        {
          "internalType": "bytes32[]",
          "name": "requestIdsToTimeout",
          "type": "bytes32[]"
        }
      ],
      "name": "timeoutRequests",
      "outputs": [],
      "stateMutability": "nonpayable",
      "type": "function"
    },
    {
      "inputs": [
        {
          "internalType": "address",
          "name": "to",
          "type": "address"
        }
      ],
      "name": "transferOwnership",
      "outputs": [],
      "stateMutability": "nonpayable",
      "type": "function"
    },
    {
      "inputs": [],
      "name": "unpause",
      "outputs": [],
      "stateMutability": "nonpayable",
      "type": "function"
    }
  ],
  "bytecode": "0x608060405234801561001057600080fd5b50617c2680620000216000396000f3fe608060405234801561001057600080fd5b50600436106102055760003560e01c80638da5cb5b1161011a578063c0c53b8b116100ad578063e82ad7d41161007c578063e82ad7d41461057f578063ee56997b146105af578063f1e14a21146105cb578063f2fde38b146105fb578063fa00763a1461061757610205565b8063c0c53b8b14610507578063c3f909d414610523578063d7ae1d3014610547578063e72f6e301461056357610205565b8063a47c7696116100e9578063a47c769614610459578063a4c0ed361461048b578063a9d03c05146104a7578063b2a489ff146104d757610205565b80638da5cb5b146103d15780639f87fad7146103ef578063a1a6d0411461040b578063a21a23e41461043b57610205565b80633f4ba83a1161019d578063665871ec1161016c578063665871ec146103695780637341c10c1461038557806379ba5097146103a157806382359740146103ab5780638456cb59146103c757610205565b80633f4ba83a146103075780635c975abb1461031157806364d51a2a1461032f57806366316d8d1461034d57610205565b806312b58349116101d957806312b58349146102915780632408afaa146102af57806327923e41146102cd57806333652e3e146102e957610205565b80620122911461020a57806302bcc5b61461022957806304c357cb146102455780630739e4f114610261575b600080fd5b610212610647565b6040516102209291906161ba565b60405180910390f35b610243600480360381019061023e919061623e565b610671565b005b61025f600480360381019061025a9190616297565b61073d565b005b61027b6004803603810190610276919061651e565b6109e7565b604051610288919061668f565b60405180910390f35b6102996112a3565b6040516102a691906166b9565b60405180910390f35b6102b76112d3565b6040516102c491906166d4565b60405180910390f35b6102e760048036038101906102e29190616758565b611361565b005b6102f161150f565b6040516102fe91906167f4565b60405180910390f35b61030f61152d565b005b61031961153f565b604051610326919061682a565b60405180910390f35b610337611556565b6040516103449190616862565b60405180910390f35b610367600480360381019061036291906168c1565b61155b565b005b610383600480360381019061037e9190616957565b6118a0565b005b61039f600480360381019061039a9190616297565b611dda565b005b6103a96121ae565b005b6103c560048036038101906103c0919061623e565b61233b565b005b6103cf612837565b005b6103d9612849565b6040516103e691906169b3565b60405180910390f35b61040960048036038101906104049190616297565b612872565b005b610425600480360381019061042091906169ce565b612dc6565b6040516104329190616a44565b60405180910390f35b610443612f1e565b60405161045091906167f4565b60405180910390f35b610473600480360381019061046e919061623e565b6133e4565b60405161048293929190616a5f565b60405180910390f35b6104a560048036038101906104a09190616a9d565b6135e7565b005b6104c160048036038101906104bc9190616b35565b613943565b6040516104ce9190616ba4565b60405180910390f35b6104f160048036038101906104ec919061623e565b614266565b6040516104fe91906169b3565b60405180910390f35b610521600480360381019061051c9190616bbf565b61436a565b005b61052b614579565b60405161053e9796959493929190616c21565b60405180910390f35b610561600480360381019061055c9190616297565b61462c565b005b61057d60048036038101906105789190616c90565b6147f5565b005b6105996004803603810190610594919061623e565b614a28565b6040516105a6919061682a565b60405180910390f35b6105c960048036038101906105c49190616d13565b614c83565b005b6105e560048036038101906105e09190616ddd565b614e25565b6040516105f29190616a44565b60405180910390f35b61061560048036038101906106109190616c90565b614e39565b005b610631600480360381019061062c9190616c90565b614e4d565b60405161063e919061682a565b60405180910390f35b60006060607360000160009054906101000a900463ffffffff166106696112d3565b915091509091565b610679614e6a565b6000606d60008367ffffffffffffffff1667ffffffffffffffff16815260200190815260200160002060000160009054906101000a900473ffffffffffffffffffffffffffffffffffffffff169050600073ffffffffffffffffffffffffffffffffffffffff168173ffffffffffffffffffffffffffffffffffffffff16141561072f576040517f1f6a65b600000000000000000000000000000000000000000000000000000000815260040160405180910390fd5b6107398282614ef3565b5050565b816000606d60008367ffffffffffffffff1667ffffffffffffffff16815260200190815260200160002060000160009054906101000a900473ffffffffffffffffffffffffffffffffffffffff169050600073ffffffffffffffffffffffffffffffffffffffff168173ffffffffffffffffffffffffffffffffffffffff1614156107f4576040517f1f6a65b600000000000000000000000000000000000000000000000000000000815260040160405180910390fd5b8073ffffffffffffffffffffffffffffffffffffffff163373ffffffffffffffffffffffffffffffffffffffff161461086457806040517fd8a3fb5200000000000000000000000000000000000000000000000000000000815260040161085b91906169b3565b60405180910390fd5b607360000160049054906101000a900460ff16156108ae576040517fed3ba6a600000000000000000000000000000000000000000000000000000000815260040160405180910390fd5b6108b6615435565b8273ffffffffffffffffffffffffffffffffffffffff16606d60008667ffffffffffffffff1667ffffffffffffffff16815260200190815260200160002060010160009054906101000a900473ffffffffffffffffffffffffffffffffffffffff1673ffffffffffffffffffffffffffffffffffffffff16146109e15782606d60008667ffffffffffffffff1667ffffffffffffffff16815260200190815260200160002060010160006101000a81548173ffffffffffffffffffffffffffffffffffffffff021916908373ffffffffffffffffffffffffffffffffffffffff1602179055508367ffffffffffffffff167f69436ea6df009049404f564eff6622cd00522b0bd6a89efd9e52a355c4a879be33856040516109d8929190616e3d565b60405180910390a25b50505050565b60006109f161547f565b607360000160049054906101000a900460ff1615610a3b576040517fed3ba6a600000000000000000000000000000000000000000000000000000000815260040160405180910390fd5b610a43615435565b6000607160008d8152602001908152602001600020604051806101200160405290816000820160009054906101000a900467ffffffffffffffff1667ffffffffffffffff1667ffffffffffffffff1681526020016000820160089054906101000a900473ffffffffffffffffffffffffffffffffffffffff1673ffffffffffffffffffffffffffffffffffffffff1673ffffffffffffffffffffffffffffffffffffffff16815260200160008201601c9054906101000a900463ffffffff1663ffffffff1663ffffffff168152602001600182015481526020016002820160009054906101000a900473ffffffffffffffffffffffffffffffffffffffff1673ffffffffffffffffffffffffffffffffffffffff1673ffffffffffffffffffffffffffffffffffffffff1681526020016002820160149054906101000a90046bffffffffffffffffffffffff166bffffffffffffffffffffffff166bffffffffffffffffffffffff1681526020016003820160009054906101000a90046bffffffffffffffffffffffff166bffffffffffffffffffffffff166bffffffffffffffffffffffff16815260200160038201600c9054906101000a90046bffffffffffffffffffffffff166bffffffffffffffffffffffff166bffffffffffffffffffffffff1681526020016004820154815250509050600073ffffffffffffffffffffffffffffffffffffffff16816080015173ffffffffffffffffffffffffffffffffffffffff161415610c7b576002915050611295565b607160008d8152602001908152602001600020600080820160006101000a81549067ffffffffffffffff02191690556000820160086101000a81549073ffffffffffffffffffffffffffffffffffffffff021916905560008201601c6101000a81549063ffffffff021916905560018201600090556002820160006101000a81549073ffffffffffffffffffffffffffffffffffffffff02191690556002820160146101000a8154906bffffffffffffffffffffffff02191690556003820160006101000a8154906bffffffffffffffffffffffff021916905560038201600c6101000a8154906bffffffffffffffffffffffff0219169055600482016000905550506000630ca7617560e01b8d8d8d8d8d604051602401610da1959493929190616eb3565b604051602081830303815290604052907bffffffffffffffffffffffffffffffffffffffffffffffffffffffff19166020820180517bffffffffffffffffffffffffffffffffffffffffffffffffffffffff838183161783525050505090506001607360000160046101000a81548160ff0219169083151502179055506000610e39836040015163ffffffff168460200151846154c0565b90506000607360000160046101000a81548160ff0219169083151502179055506000610e77866073600101548660a001518b8860c001518c3a61550d565b905080604001516bffffffffffffffffffffffff16606e6000866000015167ffffffffffffffff1667ffffffffffffffff16815260200190815260200160002060000160009054906101000a90046bffffffffffffffffffffffff166bffffffffffffffffffffffff161015610f19576040517ff4d678b800000000000000000000000000000000000000000000000000000000815260040160405180910390fd5b8060400151606e6000866000015167ffffffffffffffff1667ffffffffffffffff16815260200190815260200160002060000160008282829054906101000a90046bffffffffffffffffffffffff16610f729190616f2b565b92506101000a8154816bffffffffffffffffffffffff02191690836bffffffffffffffffffffffff16021790555060005b8860ff16811015611070578160000151607060008c84601f8110610fca57610fc9616f5f565b5b602002015173ffffffffffffffffffffffffffffffffffffffff1673ffffffffffffffffffffffffffffffffffffffff16815260200190815260200160002060008282829054906101000a90046bffffffffffffffffffffffff1661102f9190616f8e565b92506101000a8154816bffffffffffffffffffffffff02191690836bffffffffffffffffffffffff160217905550808061106890616fd0565b915050610fa3565b508360c0015160706000611082612849565b73ffffffffffffffffffffffffffffffffffffffff1673ffffffffffffffffffffffffffffffffffffffff16815260200190815260200160002060008282829054906101000a90046bffffffffffffffffffffffff166110e29190616f8e565b92506101000a8154816bffffffffffffffffffffffff02191690836bffffffffffffffffffffffff1602179055508060200151607060008c73ffffffffffffffffffffffffffffffffffffffff1673ffffffffffffffffffffffffffffffffffffffff16815260200190815260200160002060008282829054906101000a90046bffffffffffffffffffffffff1661117a9190616f8e565b92506101000a8154816bffffffffffffffffffffffff02191690836bffffffffffffffffffffffff1602179055508360e00151606e6000866000015167ffffffffffffffff1667ffffffffffffffff168152602001908152602001600020600001600c8282829054906101000a90046bffffffffffffffffffffffff166112019190616f2b565b92506101000a8154816bffffffffffffffffffffffff02191690836bffffffffffffffffffffffff1602179055508e7fc8dc973332de19a5f71b6026983110e9c2e04b0c98b87eb771ccb78607fd114f856000015183600001518460200151856040015187604051611277959493929190617019565b60405180910390a28161128b57600161128e565b60005b9450505050505b9a9950505050505050505050565b6000606f60089054906101000a90046bffffffffffffffffffffffff166bffffffffffffffffffffffff16905090565b6060606880548060200260200160405190810160405280929190818152602001828054801561135757602002820191906000526020600020905b8160009054906101000a900473ffffffffffffffffffffffffffffffffffffffff1673ffffffffffffffffffffffffffffffffffffffff168152602001906001019080831161130d575b5050505050905090565b611369614e6a565b600083136113ae57826040517f43d4cf660000000000000000000000000000000000000000000000000000000081526004016113a5919061706c565b60405180910390fd5b6040518060c001604052808763ffffffff1681526020016000151581526020018663ffffffff1681526020018581526020018363ffffffff1681526020018263ffffffff16815250607360008201518160000160006101000a81548163ffffffff021916908363ffffffff16021790555060208201518160000160046101000a81548160ff02191690831515021790555060408201518160000160056101000a81548163ffffffff021916908363ffffffff1602179055506060820151816001015560808201518160020160006101000a81548163ffffffff021916908363ffffffff16021790555060a08201518160020160046101000a81548163ffffffff021916908363ffffffff160217905550905050826072819055507f24d3d934adfef9b9029d6ffa463c07d0139ed47d26ee23506f85ece2879d2bd486868686866040516114ff959493929190617087565b60405180910390a1505050505050565b6000606f60009054906101000a900467ffffffffffffffff16905090565b611535614e6a565b61153d6156ba565b565b6000603460009054906101000a900460ff16905090565b606481565b607360000160049054906101000a900460ff16156115a5576040517fed3ba6a600000000000000000000000000000000000000000000000000000000815260040160405180910390fd5b6115ad615435565b6000816bffffffffffffffffffffffff16141561161f57607060003373ffffffffffffffffffffffffffffffffffffffff1673ffffffffffffffffffffffffffffffffffffffff16815260200190815260200160002060009054906101000a90046bffffffffffffffffffffffff1690505b806bffffffffffffffffffffffff16607060003373ffffffffffffffffffffffffffffffffffffffff1673ffffffffffffffffffffffffffffffffffffffff16815260200190815260200160002060009054906101000a90046bffffffffffffffffffffffff166bffffffffffffffffffffffff1610156116cc576040517ff4d678b800000000000000000000000000000000000000000000000000000000815260040160405180910390fd5b80607060003373ffffffffffffffffffffffffffffffffffffffff1673ffffffffffffffffffffffffffffffffffffffff16815260200190815260200160002060008282829054906101000a90046bffffffffffffffffffffffff166117329190616f2b565b92506101000a8154816bffffffffffffffffffffffff02191690836bffffffffffffffffffffffff16021790555080606f60088282829054906101000a90046bffffffffffffffffffffffff166117899190616f2b565b92506101000a8154816bffffffffffffffffffffffff02191690836bffffffffffffffffffffffff160217905550606960009054906101000a900473ffffffffffffffffffffffffffffffffffffffff1673ffffffffffffffffffffffffffffffffffffffff1663a9059cbb83836040518363ffffffff1660e01b8152600401611814929190617115565b602060405180830381600087803b15801561182e57600080fd5b505af1158015611842573d6000803e3d6000fd5b505050506040513d601f19601f82011682018060405250810190611866919061716a565b61189c576040517ff4d678b800000000000000000000000000000000000000000000000000000000815260040160405180910390fd5b5050565b6118a8615435565b60005b82829050811015611dd55760008383838181106118cb576118ca616f5f565b5b905060200201359050600060716000838152602001908152602001600020604051806101200160405290816000820160009054906101000a900467ffffffffffffffff1667ffffffffffffffff1667ffffffffffffffff1681526020016000820160089054906101000a900473ffffffffffffffffffffffffffffffffffffffff1673ffffffffffffffffffffffffffffffffffffffff1673ffffffffffffffffffffffffffffffffffffffff16815260200160008201601c9054906101000a900463ffffffff1663ffffffff1663ffffffff168152602001600182015481526020016002820160009054906101000a900473ffffffffffffffffffffffffffffffffffffffff1673ffffffffffffffffffffffffffffffffffffffff1673ffffffffffffffffffffffffffffffffffffffff1681526020016002820160149054906101000a90046bffffffffffffffffffffffff166bffffffffffffffffffffffff166bffffffffffffffffffffffff1681526020016003820160009054906101000a90046bffffffffffffffffffffffff166bffffffffffffffffffffffff166bffffffffffffffffffffffff16815260200160038201600c9054906101000a90046bffffffffffffffffffffffff166bffffffffffffffffffffffff166bffffffffffffffffffffffff1681526020016004820154815250509050606d6000826000015167ffffffffffffffff1667ffffffffffffffff16815260200190815260200160002060000160009054906101000a900473ffffffffffffffffffffffffffffffffffffffff1673ffffffffffffffffffffffffffffffffffffffff163373ffffffffffffffffffffffffffffffffffffffff1614611bd557606d6000826000015167ffffffffffffffff1667ffffffffffffffff16815260200190815260200160002060000160009054906101000a900473ffffffffffffffffffffffffffffffffffffffff166040517fd8a3fb52000000000000000000000000000000000000000000000000000000008152600401611bcc91906169b3565b60405180910390fd5b42607360020160049054906101000a900463ffffffff1663ffffffff16826101000151611c029190617197565b1115611dc0578060e00151606e6000836000015167ffffffffffffffff1667ffffffffffffffff168152602001908152602001600020600001600c8282829054906101000a90046bffffffffffffffffffffffff16611c619190616f2b565b92506101000a8154816bffffffffffffffffffffffff02191690836bffffffffffffffffffffffff16021790555060716000838152602001908152602001600020600080820160006101000a81549067ffffffffffffffff02191690556000820160086101000a81549073ffffffffffffffffffffffffffffffffffffffff021916905560008201601c6101000a81549063ffffffff021916905560018201600090556002820160006101000a81549073ffffffffffffffffffffffffffffffffffffffff02191690556002820160146101000a8154906bffffffffffffffffffffffff02191690556003820160006101000a8154906bffffffffffffffffffffffff021916905560038201600c6101000a8154906bffffffffffffffffffffffff021916905560048201600090555050817ff1ca1e9147be737b04a2b018a79405f687a97de8dd8a2559bbe62357343af41460405160405180910390a25b50508080611dcd90616fd0565b9150506118ab565b505050565b816000606d60008367ffffffffffffffff1667ffffffffffffffff16815260200190815260200160002060000160009054906101000a900473ffffffffffffffffffffffffffffffffffffffff169050600073ffffffffffffffffffffffffffffffffffffffff168173ffffffffffffffffffffffffffffffffffffffff161415611e91576040517f1f6a65b600000000000000000000000000000000000000000000000000000000815260040160405180910390fd5b8073ffffffffffffffffffffffffffffffffffffffff163373ffffffffffffffffffffffffffffffffffffffff1614611f0157806040517fd8a3fb52000000000000000000000000000000000000000000000000000000008152600401611ef891906169b3565b60405180910390fd5b607360000160049054906101000a900460ff1615611f4b576040517fed3ba6a600000000000000000000000000000000000000000000000000000000815260040160405180910390fd5b611f53615435565b606461ffff16606d60008667ffffffffffffffff1667ffffffffffffffff168152602001908152602001600020600201805490501415611fbf576040517f05a48e0f00000000000000000000000000000000000000000000000000000000815260040160405180910390fd5b6000606c60008573ffffffffffffffffffffffffffffffffffffffff1673ffffffffffffffffffffffffffffffffffffffff16815260200190815260200160002060008667ffffffffffffffff1667ffffffffffffffff16815260200190815260200160002060009054906101000a900467ffffffffffffffff1667ffffffffffffffff161461204e576121a8565b6001606c60008573ffffffffffffffffffffffffffffffffffffffff1673ffffffffffffffffffffffffffffffffffffffff16815260200190815260200160002060008667ffffffffffffffff1667ffffffffffffffff16815260200190815260200160002060006101000a81548167ffffffffffffffff021916908367ffffffffffffffff160217905550606d60008567ffffffffffffffff1667ffffffffffffffff168152602001908152602001600020600201839080600181540180825580915050600190039060005260206000200160009091909190916101000a81548173ffffffffffffffffffffffffffffffffffffffff021916908373ffffffffffffffffffffffffffffffffffffffff1602179055508367ffffffffffffffff167f43dc749a04ac8fb825cbd514f7c0e13f13bc6f2ee66043b76629d51776cff8e08460405161219f91906169b3565b60405180910390a25b50505050565b600160009054906101000a900473ffffffffffffffffffffffffffffffffffffffff1673ffffffffffffffffffffffffffffffffffffffff163373ffffffffffffffffffffffffffffffffffffffff1614612235576040517f0f22ca5f00000000000000000000000000000000000000000000000000000000815260040160405180910390fd5b60008060029054906101000a900473ffffffffffffffffffffffffffffffffffffffff16905033600060026101000a81548173ffffffffffffffffffffffffffffffffffffffff021916908373ffffffffffffffffffffffffffffffffffffffff1602179055506000600160006101000a81548173ffffffffffffffffffffffffffffffffffffffff021916908373ffffffffffffffffffffffffffffffffffffffff1602179055503373ffffffffffffffffffffffffffffffffffffffff168173ffffffffffffffffffffffffffffffffffffffff167f8be0079c531659141344cd1fd0a4f28419497f9722a3daafe3b4186f6b6457e060405160405180910390a350565b607360000160049054906101000a900460ff1615612385576040517fed3ba6a600000000000000000000000000000000000000000000000000000000815260040160405180910390fd5b61238d615435565b606b60009054906101000a900473ffffffffffffffffffffffffffffffffffffffff1673ffffffffffffffffffffffffffffffffffffffff16634b4fa0c16040518163ffffffff1660e01b815260040160206040518083038186803b1580156123f557600080fd5b505afa158015612409573d6000803e3d6000fd5b505050506040513d601f19601f8201168201806040525081019061242d919061716a565b80156124e15750606b60009054906101000a900473ffffffffffffffffffffffffffffffffffffffff1673ffffffffffffffffffffffffffffffffffffffff1663fa00763a336040518263ffffffff1660e01b815260040161248f91906169b3565b60206040518083038186803b1580156124a757600080fd5b505afa1580156124bb573d6000803e3d6000fd5b505050506040513d601f19601f820116820180604052508101906124df919061716a565b155b15612518576040517f0809490800000000000000000000000000000000000000000000000000000000815260040160405180910390fd5b600073ffffffffffffffffffffffffffffffffffffffff16606d60008367ffffffffffffffff1667ffffffffffffffff16815260200190815260200160002060000160009054906101000a900473ffffffffffffffffffffffffffffffffffffffff1673ffffffffffffffffffffffffffffffffffffffff1614156125c9576040517f1f6a65b600000000000000000000000000000000000000000000000000000000815260040160405180910390fd5b3373ffffffffffffffffffffffffffffffffffffffff16606d60008367ffffffffffffffff1667ffffffffffffffff16815260200190815260200160002060010160009054906101000a900473ffffffffffffffffffffffffffffffffffffffff1673ffffffffffffffffffffffffffffffffffffffff16146126cd57606d60008267ffffffffffffffff1667ffffffffffffffff16815260200190815260200160002060010160009054906101000a900473ffffffffffffffffffffffffffffffffffffffff166040517fd084e9750000000000000000000000000000000000000000000000000000000081526004016126c491906169b3565b60405180910390fd5b6000606d60008367ffffffffffffffff1667ffffffffffffffff16815260200190815260200160002060000160009054906101000a900473ffffffffffffffffffffffffffffffffffffffff16905033606d60008467ffffffffffffffff1667ffffffffffffffff16815260200190815260200160002060000160006101000a81548173ffffffffffffffffffffffffffffffffffffffff021916908373ffffffffffffffffffffffffffffffffffffffff1602179055506000606d60008467ffffffffffffffff1667ffffffffffffffff16815260200190815260200160002060010160006101000a81548173ffffffffffffffffffffffffffffffffffffffff021916908373ffffffffffffffffffffffffffffffffffffffff1602179055508167ffffffffffffffff167f6f1dc65165ffffedfd8e507b4a0f1fcfdada045ed11f6c26ba27cedfe87802f0823360405161282b929190616e3d565b60405180910390a25050565b61283f614e6a565b61284761571d565b565b60008060029054906101000a900473ffffffffffffffffffffffffffffffffffffffff16905090565b816000606d60008367ffffffffffffffff1667ffffffffffffffff16815260200190815260200160002060000160009054906101000a900473ffffffffffffffffffffffffffffffffffffffff169050600073ffffffffffffffffffffffffffffffffffffffff168173ffffffffffffffffffffffffffffffffffffffff161415612929576040517f1f6a65b600000000000000000000000000000000000000000000000000000000815260040160405180910390fd5b8073ffffffffffffffffffffffffffffffffffffffff163373ffffffffffffffffffffffffffffffffffffffff161461299957806040517fd8a3fb5200000000000000000000000000000000000000000000000000000000815260040161299091906169b3565b60405180910390fd5b607360000160049054906101000a900460ff16156129e3576040517fed3ba6a600000000000000000000000000000000000000000000000000000000815260040160405180910390fd5b6129eb615435565b6000606c60008573ffffffffffffffffffffffffffffffffffffffff1673ffffffffffffffffffffffffffffffffffffffff16815260200190815260200160002060008667ffffffffffffffff1667ffffffffffffffff16815260200190815260200160002060009054906101000a900467ffffffffffffffff1667ffffffffffffffff161415612ab55783836040517ff0019fe6000000000000000000000000000000000000000000000000000000008152600401612aac9291906171ed565b60405180910390fd5b6000606d60008667ffffffffffffffff1667ffffffffffffffff168152602001908152602001600020600201805480602002602001604051908101604052809291908181526020018280548015612b6157602002820191906000526020600020905b8160009054906101000a900473ffffffffffffffffffffffffffffffffffffffff1673ffffffffffffffffffffffffffffffffffffffff1681526020019060010190808311612b17575b50505050509050600060018251612b789190617216565b905060005b8251811015612d00578573ffffffffffffffffffffffffffffffffffffffff16838281518110612bb057612baf616f5f565b5b602002602001015173ffffffffffffffffffffffffffffffffffffffff161415612ced576000838381518110612be957612be8616f5f565b5b6020026020010151905080606d60008a67ffffffffffffffff1667ffffffffffffffff1681526020019081526020016000206002018381548110612c3057612c2f616f5f565b5b9060005260206000200160006101000a81548173ffffffffffffffffffffffffffffffffffffffff021916908373ffffffffffffffffffffffffffffffffffffffff160217905550606d60008967ffffffffffffffff1667ffffffffffffffff168152602001908152602001600020600201805480612cb257612cb161724a565b5b6001900381819060005260206000200160006101000a81549073ffffffffffffffffffffffffffffffffffffffff0219169055905550612d00565b8080612cf890616fd0565b915050612b7d565b50606c60008673ffffffffffffffffffffffffffffffffffffffff1673ffffffffffffffffffffffffffffffffffffffff16815260200190815260200160002060008767ffffffffffffffff1667ffffffffffffffff16815260200190815260200160002060006101000a81549067ffffffffffffffff02191690558567ffffffffffffffff167f182bff9831466789164ca77075fffd84916d35a8180ba73c27e45634549b445b86604051612db691906169b3565b60405180910390a2505050505050565b600080612dd1615780565b905060008113612e1857806040517f43d4cf66000000000000000000000000000000000000000000000000000000008152600401612e0f919061706c565b60405180910390fd5b60008663ffffffff16607360010154607360020160009054906101000a900463ffffffff1663ffffffff16612e4d9190617197565b612e579190617197565b90506000828288670de0b6b3a7640000612e719190617279565b612e7b9190617279565b612e859190617302565b90506000856bffffffffffffffffffffffff16876bffffffffffffffffffffffff16612eb19190617197565b9050806b033b2e3c9fd0803ce8000000612ecb9190617216565b821115612f04576040517fe80fa38100000000000000000000000000000000000000000000000000000000815260040160405180910390fd5b8082612f109190617197565b945050505050949350505050565b6000607360000160049054906101000a900460ff1615612f6a576040517fed3ba6a600000000000000000000000000000000000000000000000000000000815260040160405180910390fd5b612f72615435565b606b60009054906101000a900473ffffffffffffffffffffffffffffffffffffffff1673ffffffffffffffffffffffffffffffffffffffff16634b4fa0c16040518163ffffffff1660e01b815260040160206040518083038186803b158015612fda57600080fd5b505afa158015612fee573d6000803e3d6000fd5b505050506040513d601f19601f82011682018060405250810190613012919061716a565b80156130c65750606b60009054906101000a900473ffffffffffffffffffffffffffffffffffffffff1673ffffffffffffffffffffffffffffffffffffffff1663fa00763a336040518263ffffffff1660e01b815260040161307491906169b3565b60206040518083038186803b15801561308c57600080fd5b505afa1580156130a0573d6000803e3d6000fd5b505050506040513d601f19601f820116820180604052508101906130c4919061716a565b155b156130fd576040517f0809490800000000000000000000000000000000000000000000000000000000815260040160405180910390fd5b606f600081819054906101000a900467ffffffffffffffff168092919061312390617333565b91906101000a81548167ffffffffffffffff021916908367ffffffffffffffff160217905550506000606f60009054906101000a900467ffffffffffffffff16905060008067ffffffffffffffff81111561318157613180616383565b5b6040519080825280602002602001820160405280156131af5781602001602082028036833780820191505090505b509050604051806040016040528060006bffffffffffffffffffffffff16815260200160006bffffffffffffffffffffffff16815250606e60008467ffffffffffffffff1667ffffffffffffffff16815260200190815260200160002060008201518160000160006101000a8154816bffffffffffffffffffffffff02191690836bffffffffffffffffffffffff160217905550602082015181600001600c6101000a8154816bffffffffffffffffffffffff02191690836bffffffffffffffffffffffff16021790555090505060405180606001604052803373ffffffffffffffffffffffffffffffffffffffff168152602001600073ffffffffffffffffffffffffffffffffffffffff16815260200182815250606d60008467ffffffffffffffff1667ffffffffffffffff16815260200190815260200160002060008201518160000160006101000a81548173ffffffffffffffffffffffffffffffffffffffff021916908373ffffffffffffffffffffffffffffffffffffffff16021790555060208201518160010160006101000a81548173ffffffffffffffffffffffffffffffffffffffff021916908373ffffffffffffffffffffffffffffffffffffffff1602179055506040820151816002019080519060200190613396929190615ef8565b509050508167ffffffffffffffff167f464722b4166576d3dcbba877b999bc35cf911f4eaf434b7eba68fa113951d0bf336040516133d491906169b3565b60405180910390a2819250505090565b6000806060600073ffffffffffffffffffffffffffffffffffffffff16606d60008667ffffffffffffffff1667ffffffffffffffff16815260200190815260200160002060000160009054906101000a900473ffffffffffffffffffffffffffffffffffffffff1673ffffffffffffffffffffffffffffffffffffffff16141561349a576040517f1f6a65b600000000000000000000000000000000000000000000000000000000815260040160405180910390fd5b606e60008567ffffffffffffffff1667ffffffffffffffff16815260200190815260200160002060000160009054906101000a90046bffffffffffffffffffffffff16606d60008667ffffffffffffffff1667ffffffffffffffff16815260200190815260200160002060000160009054906101000a900473ffffffffffffffffffffffffffffffffffffffff16606d60008767ffffffffffffffff1667ffffffffffffffff168152602001908152602001600020600201808054806020026020016040519081016040528092919081815260200182805480156135d357602002820191906000526020600020905b8160009054906101000a900473ffffffffffffffffffffffffffffffffffffffff1673ffffffffffffffffffffffffffffffffffffffff1681526020019060010190808311613589575b505050505090509250925092509193909250565b607360000160049054906101000a900460ff1615613631576040517fed3ba6a600000000000000000000000000000000000000000000000000000000815260040160405180910390fd5b613639615435565b606960009054906101000a900473ffffffffffffffffffffffffffffffffffffffff1673ffffffffffffffffffffffffffffffffffffffff163373ffffffffffffffffffffffffffffffffffffffff16146136c0576040517f44b0e3c300000000000000000000000000000000000000000000000000000000815260040160405180910390fd5b602082829050146136fd576040517f8129bbcd00000000000000000000000000000000000000000000000000000000815260040160405180910390fd5b6000828281019061370e919061623e565b9050600073ffffffffffffffffffffffffffffffffffffffff16606d60008367ffffffffffffffff1667ffffffffffffffff16815260200190815260200160002060000160009054906101000a900473ffffffffffffffffffffffffffffffffffffffff1673ffffffffffffffffffffffffffffffffffffffff1614156137c1576040517f1f6a65b600000000000000000000000000000000000000000000000000000000815260040160405180910390fd5b6000606e60008367ffffffffffffffff1667ffffffffffffffff16815260200190815260200160002060000160009054906101000a90046bffffffffffffffffffffffff166bffffffffffffffffffffffff16905084606e60008467ffffffffffffffff1667ffffffffffffffff16815260200190815260200160002060000160008282829054906101000a90046bffffffffffffffffffffffff166138679190616f8e565b92506101000a8154816bffffffffffffffffffffffff02191690836bffffffffffffffffffffffff16021790555084606f60088282829054906101000a90046bffffffffffffffffffffffff166138be9190616f8e565b92506101000a8154816bffffffffffffffffffffffff02191690836bffffffffffffffffffffffff1602179055508167ffffffffffffffff167fd39ec07f4e209f627a4c427971473820dc129761ba28de8906bd56f57101d4f88287846139259190617197565b604051613933929190617364565b60405180910390a2505050505050565b600061394d61547f565b607360000160049054906101000a900460ff1615613997576040517fed3ba6a600000000000000000000000000000000000000000000000000000000815260040160405180910390fd5b61399f615435565b600073ffffffffffffffffffffffffffffffffffffffff16606d60008460000160208101906139ce919061623e565b67ffffffffffffffff1667ffffffffffffffff16815260200190815260200160002060000160009054906101000a900473ffffffffffffffffffffffffffffffffffffffff1673ffffffffffffffffffffffffffffffffffffffff161415613a62576040517f1f6a65b600000000000000000000000000000000000000000000000000000000815260040160405180910390fd5b6000606c6000846020016020810190613a7b9190616c90565b73ffffffffffffffffffffffffffffffffffffffff1673ffffffffffffffffffffffffffffffffffffffff1681526020019081526020016000206000846000016020810190613aca919061623e565b67ffffffffffffffff1667ffffffffffffffff16815260200190815260200160002060009054906101000a900467ffffffffffffffff16905060008167ffffffffffffffff161415613b7957826000016020810190613b29919061623e565b836020016020810190613b3c9190616c90565b6040517ff0019fe6000000000000000000000000000000000000000000000000000000008152600401613b709291906171ed565b60405180910390fd5b607360000160009054906101000a900463ffffffff1663ffffffff16836040016020810190613ba8919061738d565b63ffffffff161115613c1a57826040016020810190613bc7919061738d565b607360000160009054906101000a900463ffffffff166040517ff5d7e01e000000000000000000000000000000000000000000000000000000008152600401613c119291906173ba565b60405180910390fd5b60003373ffffffffffffffffffffffffffffffffffffffff1663f1e14a218787876040518463ffffffff1660e01b8152600401613c59939291906174e1565b60206040518083038186803b158015613c7157600080fd5b505afa158015613c85573d6000803e3d6000fd5b505050506040513d601f19601f82011682018060405250810190613ca99190617528565b90506000613cc8878787803603810190613cc39190617555565b614e25565b90506000613cee866040016020810190613ce2919061738d565b87606001358585612dc6565b90506000606e6000886000016020810190613d09919061623e565b67ffffffffffffffff1667ffffffffffffffff168152602001908152602001600020600001600c9054906101000a90046bffffffffffffffffffffffff16606e6000896000016020810190613d5e919061623e565b67ffffffffffffffff1667ffffffffffffffff16815260200190815260200160002060000160009054906101000a90046bffffffffffffffffffffffff16613da69190616f2b565b9050816bffffffffffffffffffffffff16816bffffffffffffffffffffffff161015613dfe576040517ff4d678b800000000000000000000000000000000000000000000000000000000815260040160405180910390fd5b6000600186613e0d9190617582565b90506000613e41338a6020016020810190613e289190616c90565b8b6000016020810190613e3b919061623e565b85615884565b905060006040518061012001604052808b6000016020810190613e64919061623e565b67ffffffffffffffff1681526020018b6020016020810190613e869190616c90565b73ffffffffffffffffffffffffffffffffffffffff1681526020018b6040016020810190613eb4919061738d565b63ffffffff1681526020018b6060013581526020013373ffffffffffffffffffffffffffffffffffffffff168152602001886bffffffffffffffffffffffff168152602001876bffffffffffffffffffffffff168152602001866bffffffffffffffffffffffff168152602001428152509050806071600084815260200190815260200160002060008201518160000160006101000a81548167ffffffffffffffff021916908367ffffffffffffffff16021790555060208201518160000160086101000a81548173ffffffffffffffffffffffffffffffffffffffff021916908373ffffffffffffffffffffffffffffffffffffffff160217905550604082015181600001601c6101000a81548163ffffffff021916908363ffffffff1602179055506060820151816001015560808201518160020160006101000a81548173ffffffffffffffffffffffffffffffffffffffff021916908373ffffffffffffffffffffffffffffffffffffffff16021790555060a08201518160020160146101000a8154816bffffffffffffffffffffffff02191690836bffffffffffffffffffffffff16021790555060c08201518160030160006101000a8154816bffffffffffffffffffffffff02191690836bffffffffffffffffffffffff16021790555060e082015181600301600c6101000a8154816bffffffffffffffffffffffff02191690836bffffffffffffffffffffffff160217905550610100820151816004015590505084606e60008c60000160208101906140f4919061623e565b67ffffffffffffffff1667ffffffffffffffff168152602001908152602001600020600001600c8282829054906101000a90046bffffffffffffffffffffffff1661413f9190616f8e565b92506101000a8154816bffffffffffffffffffffffff02191690836bffffffffffffffffffffffff160217905550817f99f7f4e65b4b9fbabd4e357c47ed3099b36e57ecd3a43e84662f34c207d0ebe48260405161419d9190617686565b60405180910390a282606c60008c60200160208101906141bd9190616c90565b73ffffffffffffffffffffffffffffffffffffffff1673ffffffffffffffffffffffffffffffffffffffff16815260200190815260200160002060008c600001602081019061420c919061623e565b67ffffffffffffffff1667ffffffffffffffff16815260200190815260200160002060006101000a81548167ffffffffffffffff021916908367ffffffffffffffff16021790555081985050505050505050509392505050565b60008073ffffffffffffffffffffffffffffffffffffffff16606d60008467ffffffffffffffff1667ffffffffffffffff16815260200190815260200160002060000160009054906101000a900473ffffffffffffffffffffffffffffffffffffffff1673ffffffffffffffffffffffffffffffffffffffff161415614318576040517f1f6a65b600000000000000000000000000000000000000000000000000000000815260040160405180910390fd5b606d60008367ffffffffffffffff1667ffffffffffffffff16815260200190815260200160002060000160009054906101000a900473ffffffffffffffffffffffffffffffffffffffff169050919050565b60008060019054906101000a900460ff1615905080801561439b5750600160008054906101000a900460ff1660ff16105b806143c857506143aa306158bd565b1580156143c75750600160008054906101000a900460ff1660ff16145b5b614407576040517f08c379a00000000000000000000000000000000000000000000000000000000081526004016143fe90617725565b60405180910390fd5b60016000806101000a81548160ff021916908360ff1602179055508015614444576001600060016101000a81548160ff0219169083151502179055505b61444c6158e0565b614457336000615939565b83606960006101000a81548173ffffffffffffffffffffffffffffffffffffffff021916908373ffffffffffffffffffffffffffffffffffffffff16021790555082606a60006101000a81548173ffffffffffffffffffffffffffffffffffffffff021916908373ffffffffffffffffffffffffffffffffffffffff16021790555081606b60006101000a81548173ffffffffffffffffffffffffffffffffffffffff021916908373ffffffffffffffffffffffffffffffffffffffff16021790555080156145735760008060016101000a81548160ff0219169083151502179055507f7f26b83ff96e1f2b6a682f133852f6798a09c465da95921460cefb3847402498600160405161456a9190617780565b60405180910390a15b50505050565b6000806000806000806000607360000160009054906101000a900463ffffffff16607360000160059054906101000a900463ffffffff16607360010154607254607360020160009054906101000a900463ffffffff16606960009054906101000a900473ffffffffffffffffffffffffffffffffffffffff16606a60009054906101000a900473ffffffffffffffffffffffffffffffffffffffff16965096509650965096509650965090919293949596565b816000606d60008367ffffffffffffffff1667ffffffffffffffff16815260200190815260200160002060000160009054906101000a900473ffffffffffffffffffffffffffffffffffffffff169050600073ffffffffffffffffffffffffffffffffffffffff168173ffffffffffffffffffffffffffffffffffffffff1614156146e3576040517f1f6a65b600000000000000000000000000000000000000000000000000000000815260040160405180910390fd5b8073ffffffffffffffffffffffffffffffffffffffff163373ffffffffffffffffffffffffffffffffffffffff161461475357806040517fd8a3fb5200000000000000000000000000000000000000000000000000000000815260040161474a91906169b3565b60405180910390fd5b607360000160049054906101000a900460ff161561479d576040517fed3ba6a600000000000000000000000000000000000000000000000000000000815260040160405180910390fd5b6147a5615435565b6147ae84614a28565b156147e5576040517fb42f66e800000000000000000000000000000000000000000000000000000000815260040160405180910390fd5b6147ef8484614ef3565b50505050565b6147fd614e6a565b6000606960009054906101000a900473ffffffffffffffffffffffffffffffffffffffff1673ffffffffffffffffffffffffffffffffffffffff166370a08231306040518263ffffffff1660e01b815260040161485a91906169b3565b60206040518083038186803b15801561487257600080fd5b505afa158015614886573d6000803e3d6000fd5b505050506040513d601f19601f820116820180604052508101906148aa91906177b0565b90506000606f60089054906101000a90046bffffffffffffffffffffffff166bffffffffffffffffffffffff169050818111156149205780826040517fa99da302000000000000000000000000000000000000000000000000000000008152600401614917929190617364565b60405180910390fd5b81811015614a2357600081836149369190617216565b9050606960009054906101000a900473ffffffffffffffffffffffffffffffffffffffff1673ffffffffffffffffffffffffffffffffffffffff1663a9059cbb85836040518363ffffffff1660e01b81526004016149959291906177dd565b602060405180830381600087803b1580156149af57600080fd5b505af11580156149c3573d6000803e3d6000fd5b505050506040513d601f19601f820116820180604052508101906149e7919061716a565b507f59bfc682b673f8cbf945f1e454df9334834abf7dfe7f92237ca29ecb9b4366008482604051614a199291906177dd565b60405180910390a1505b505050565b600080606d60008467ffffffffffffffff1667ffffffffffffffff168152602001908152602001600020600201805480602002602001604051908101604052809291908181526020018280548015614ad557602002820191906000526020600020905b8160009054906101000a900473ffffffffffffffffffffffffffffffffffffffff1673ffffffffffffffffffffffffffffffffffffffff1681526020019060010190808311614a8b575b505050505090506000614ae66112d3565b905060005b8251811015614c765760005b8251811015614c62576000614bd4848381518110614b1857614b17616f5f565b5b6020026020010151868581518110614b3357614b32616f5f565b5b602002602001015189606c60008a8981518110614b5357614b52616f5f565b5b602002602001015173ffffffffffffffffffffffffffffffffffffffff1673ffffffffffffffffffffffffffffffffffffffff16815260200190815260200160002060008c67ffffffffffffffff1667ffffffffffffffff16815260200190815260200160002060009054906101000a900467ffffffffffffffff16615884565b9050600073ffffffffffffffffffffffffffffffffffffffff166071600083815260200190815260200160002060020160009054906101000a900473ffffffffffffffffffffffffffffffffffffffff1673ffffffffffffffffffffffffffffffffffffffff1614614c4e57600195505050505050614c7e565b508080614c5a90616fd0565b915050614af7565b508080614c6e90616fd0565b915050614aeb565b506000925050505b919050565b614c8b615a72565b614cc1576040517fad77f06100000000000000000000000000000000000000000000000000000000815260040160405180910390fd5b6000828290501415614cff576040517f75158c3b00000000000000000000000000000000000000000000000000000000815260040160405180910390fd5b60005b606880549050811015614d7557614d6160688281548110614d2657614d25616f5f565b5b9060005260206000200160009054906101000a900473ffffffffffffffffffffffffffffffffffffffff166066615a8390919063ffffffff16565b508080614d6d90616fd0565b915050614d02565b5060005b82829050811015614dd357614dbf838383818110614d9a57614d99616f5f565b5b9050602002016020810190614daf9190616c90565b6066615ab390919063ffffffff16565b508080614dcb90616fd0565b915050614d79565b50818160689190614de5929190615f82565b507ff263cfb3e4298332e776194610cf9fdc09ccb3ada8b9aa39764d882e11fbf0a0828233604051614e199392919061787a565b60405180910390a15050565b60006702c68af0bb14000090509392505050565b614e41614e6a565b614e4a81615ae3565b50565b6000614e63826066615c0990919063ffffffff16565b9050919050565b600060029054906101000a900473ffffffffffffffffffffffffffffffffffffffff1673ffffffffffffffffffffffffffffffffffffffff163373ffffffffffffffffffffffffffffffffffffffff1614614ef1576040517f2b5c74de00000000000000000000000000000000000000000000000000000000815260040160405180910390fd5b565b607360000160049054906101000a900460ff1615614f3d576040517fed3ba6a600000000000000000000000000000000000000000000000000000000815260040160405180910390fd5b6000606d60008467ffffffffffffffff1667ffffffffffffffff1681526020019081526020016000206040518060600160405290816000820160009054906101000a900473ffffffffffffffffffffffffffffffffffffffff1673ffffffffffffffffffffffffffffffffffffffff1673ffffffffffffffffffffffffffffffffffffffff1681526020016001820160009054906101000a900473ffffffffffffffffffffffffffffffffffffffff1673ffffffffffffffffffffffffffffffffffffffff1673ffffffffffffffffffffffffffffffffffffffff168152602001600282018054806020026020016040519081016040528092919081815260200182805480156150a257602002820191906000526020600020905b8160009054906101000a900473ffffffffffffffffffffffffffffffffffffffff1673ffffffffffffffffffffffffffffffffffffffff1681526020019060010190808311615058575b50505050508152505090506000606e60008567ffffffffffffffff1667ffffffffffffffff16815260200190815260200160002060000160009054906101000a90046bffffffffffffffffffffffff16905060005b8260400151518110156151b057606c60008460400151838151811061511f5761511e616f5f565b5b602002602001015173ffffffffffffffffffffffffffffffffffffffff1673ffffffffffffffffffffffffffffffffffffffff16815260200190815260200160002060008667ffffffffffffffff1667ffffffffffffffff16815260200190815260200160002060006101000a81549067ffffffffffffffff021916905580806151a890616fd0565b9150506150f7565b50606d60008567ffffffffffffffff1667ffffffffffffffff168152602001908152602001600020600080820160006101000a81549073ffffffffffffffffffffffffffffffffffffffff02191690556001820160006101000a81549073ffffffffffffffffffffffffffffffffffffffff02191690556002820160006152379190616022565b5050606e60008567ffffffffffffffff1667ffffffffffffffff168152602001908152602001600020600080820160006101000a8154906bffffffffffffffffffffffff021916905560008201600c6101000a8154906bffffffffffffffffffffffff0219169055505080606f60088282829054906101000a90046bffffffffffffffffffffffff166152ca9190616f2b565b92506101000a8154816bffffffffffffffffffffffff02191690836bffffffffffffffffffffffff160217905550606960009054906101000a900473ffffffffffffffffffffffffffffffffffffffff1673ffffffffffffffffffffffffffffffffffffffff1663a9059cbb84836bffffffffffffffffffffffff166040518363ffffffff1660e01b81526004016153639291906177dd565b602060405180830381600087803b15801561537d57600080fd5b505af1158015615391573d6000803e3d6000fd5b505050506040513d601f19601f820116820180604052508101906153b5919061716a565b6153eb576040517ff4d678b800000000000000000000000000000000000000000000000000000000815260040160405180910390fd5b8367ffffffffffffffff167fe8ed5b475a5b5987aa9165e8731bb78043f39eee32ec5a1169a89e27fcd498158483604051615427929190617115565b60405180910390a250505050565b61543d61153f565b1561547d576040517f08c379a0000000000000000000000000000000000000000000000000000000008152600401615474906178f8565b60405180910390fd5b565b61548833614e4d565b6154be576040517f0809490800000000000000000000000000000000000000000000000000000000815260040160405180910390fd5b565b60005a6113888110156154d257600080fd5b6113888103905084604082048203116154ea57600080fd5b833b6154f557600080fd5b6000808451602086016000888af19150509392505050565b615515616043565b600061551f615780565b90506000811361556657806040517f43d4cf6600000000000000000000000000000000000000000000000000000000815260040161555d919061706c565b60405180910390fd5b6000815a8b8b886155779190617197565b6155819190617197565b61558b9190617216565b85670de0b6b3a764000061559f9190617279565b6155a99190617279565b6155b39190617302565b90506000866bffffffffffffffffffffffff16896bffffffffffffffffffffffff166155df9190617197565b9050806b033b2e3c9fd0803ce80000006155f99190617216565b821115615632576040517fe80fa38100000000000000000000000000000000000000000000000000000000815260040160405180910390fd5b60008860ff168a6156439190617918565b905060008390506000615660848661565b9190617197565b615c39565b90506040518060600160405280846bffffffffffffffffffffffff168152602001836bffffffffffffffffffffffff168152602001826bffffffffffffffffffffffff168152509650505050505050979650505050505050565b6156c2615c94565b6000603460006101000a81548160ff0219169083151502179055507f5db9ee0a495bf2e6ff9c91a7834c1ba4fdd244a5e8aa4e537bd38aeae4b073aa615706615cdd565b60405161571391906169b3565b60405180910390a1565b615725615435565b6001603460006101000a81548160ff0219169083151502179055507f62e78cea01bee320cd4e420270b5ea74000d11b0c9f74754ebdbfc544b05a258615769615cdd565b60405161577691906169b3565b60405180910390a1565b600080607360000160059054906101000a900463ffffffff1690506000808263ffffffff16119050600080606a60009054906101000a900473ffffffffffffffffffffffffffffffffffffffff1673ffffffffffffffffffffffffffffffffffffffff1663feaf968c6040518163ffffffff1660e01b815260040160a06040518083038186803b15801561581357600080fd5b505afa158015615827573d6000803e3d6000fd5b505050506040513d601f19601f8201168201806040525081019061584b91906179a0565b5093505092505082801561586f575080426158669190617216565b8463ffffffff16105b1561587a5760725491505b8194505050505090565b60008484848460405160200161589d9493929190617a1b565b604051602081830303815290604052805190602001209050949350505050565b6000808273ffffffffffffffffffffffffffffffffffffffff163b119050919050565b600060019054906101000a900460ff1661592f576040517f08c379a000000000000000000000000000000000000000000000000000000000815260040161592690617ad2565b60405180910390fd5b615937615ce5565b565b600060019054906101000a900460ff16615988576040517f08c379a000000000000000000000000000000000000000000000000000000000815260040161597f90617ad2565b60405180910390fd5b600073ffffffffffffffffffffffffffffffffffffffff168273ffffffffffffffffffffffffffffffffffffffff1614156159ef576040517fb6b515fa00000000000000000000000000000000000000000000000000000000815260040160405180910390fd5b81600060026101000a81548173ffffffffffffffffffffffffffffffffffffffff021916908373ffffffffffffffffffffffffffffffffffffffff160217905550600073ffffffffffffffffffffffffffffffffffffffff168173ffffffffffffffffffffffffffffffffffffffff1614615a6e57615a6d81615ae3565b5b5050565b6000615a7c614e6a565b6001905090565b6000615aab836000018373ffffffffffffffffffffffffffffffffffffffff1660001b615d51565b905092915050565b6000615adb836000018373ffffffffffffffffffffffffffffffffffffffff1660001b615e65565b905092915050565b3373ffffffffffffffffffffffffffffffffffffffff168173ffffffffffffffffffffffffffffffffffffffff161415615b49576040517f282010c300000000000000000000000000000000000000000000000000000000815260040160405180910390fd5b80600160006101000a81548173ffffffffffffffffffffffffffffffffffffffff021916908373ffffffffffffffffffffffffffffffffffffffff1602179055508073ffffffffffffffffffffffffffffffffffffffff16600060029054906101000a900473ffffffffffffffffffffffffffffffffffffffff1673ffffffffffffffffffffffffffffffffffffffff167fed8889f560326eb138920d842192f0eb3dd22b4f139c87a2c57538e05bae127860405160405180910390a350565b6000615c31836000018373ffffffffffffffffffffffffffffffffffffffff1660001b615ed5565b905092915050565b60006bffffffffffffffffffffffff8016821115615c8c576040517f08c379a0000000000000000000000000000000000000000000000000000000008152600401615c8390617b64565b60405180910390fd5b819050919050565b615c9c61153f565b615cdb576040517f08c379a0000000000000000000000000000000000000000000000000000000008152600401615cd290617bd0565b60405180910390fd5b565b600033905090565b600060019054906101000a900460ff16615d34576040517f08c379a0000000000000000000000000000000000000000000000000000000008152600401615d2b90617ad2565b60405180910390fd5b6000603460006101000a81548160ff021916908315150217905550565b60008083600101600084815260200190815260200160002054905060008114615e59576000600182615d839190617216565b9050600060018660000180549050615d9b9190617216565b9050818114615e0a576000866000018281548110615dbc57615dbb616f5f565b5b9060005260206000200154905080876000018481548110615de057615ddf616f5f565b5b90600052602060002001819055508387600101600083815260200190815260200160002081905550505b85600001805480615e1e57615e1d61724a565b5b600190038181906000526020600020016000905590558560010160008681526020019081526020016000206000905560019350505050615e5f565b60009150505b92915050565b6000615e718383615ed5565b615eca578260000182908060018154018082558091505060019003906000526020600020016000909190919091505582600001805490508360010160008481526020019081526020016000208190555060019050615ecf565b600090505b92915050565b600080836001016000848152602001908152602001600020541415905092915050565b828054828255906000526020600020908101928215615f71579160200282015b82811115615f705782518260006101000a81548173ffffffffffffffffffffffffffffffffffffffff021916908373ffffffffffffffffffffffffffffffffffffffff16021790555091602001919060010190615f18565b5b509050615f7e919061608e565b5090565b828054828255906000526020600020908101928215616011579160200282015b8281111561601057823573ffffffffffffffffffffffffffffffffffffffff168260006101000a81548173ffffffffffffffffffffffffffffffffffffffff021916908373ffffffffffffffffffffffffffffffffffffffff16021790555091602001919060010190615fa2565b5b50905061601e919061608e565b5090565b5080546000825590600052602060002090810190616040919061608e565b50565b604051806060016040528060006bffffffffffffffffffffffff16815260200160006bffffffffffffffffffffffff16815260200160006bffffffffffffffffffffffff1681525090565b5b808211156160a757600081600090555060010161608f565b5090565b600063ffffffff82169050919050565b6160c4816160ab565b82525050565b600081519050919050565b600082825260208201905092915050565b6000819050602082019050919050565b600073ffffffffffffffffffffffffffffffffffffffff82169050919050565b6000616121826160f6565b9050919050565b61613181616116565b82525050565b60006161438383616128565b60208301905092915050565b6000602082019050919050565b6000616167826160ca565b61617181856160d5565b935061617c836160e6565b8060005b838110156161ad5781516161948882616137565b975061619f8361614f565b925050600181019050616180565b5085935050505092915050565b60006040820190506161cf60008301856160bb565b81810360208301526161e1818461615c565b90509392505050565b6000604051905090565b600080fd5b600080fd5b600067ffffffffffffffff82169050919050565b61621b816161fe565b811461622657600080fd5b50565b60008135905061623881616212565b92915050565b600060208284031215616254576162536161f4565b5b600061626284828501616229565b91505092915050565b61627481616116565b811461627f57600080fd5b50565b6000813590506162918161626b565b92915050565b600080604083850312156162ae576162ad6161f4565b5b60006162bc85828601616229565b92505060206162cd85828601616282565b9150509250929050565b6000819050919050565b6162ea816162d7565b81146162f557600080fd5b50565b600081359050616307816162e1565b92915050565b600080fd5b600080fd5b600080fd5b60008083601f8401126163325761633161630d565b5b8235905067ffffffffffffffff81111561634f5761634e616312565b5b60208301915083600182028301111561636b5761636a616317565b5b9250929050565b6000601f19601f8301169050919050565b7f4e487b7100000000000000000000000000000000000000000000000000000000600052604160045260246000fd5b6163bb82616372565b810181811067ffffffffffffffff821117156163da576163d9616383565b5b80604052505050565b60006163ed6161ea565b90506163f982826163b2565b919050565b600067ffffffffffffffff82111561641957616418616383565b5b602082029050919050565b6000616437616432846163fe565b6163e3565b9050806020840283018581111561645157616450616317565b5b835b8181101561647a57806164668882616282565b845260208401935050602081019050616453565b5050509392505050565b600082601f8301126164995761649861630d565b5b601f6164a6848285616424565b91505092915050565b600060ff82169050919050565b6164c5816164af565b81146164d057600080fd5b50565b6000813590506164e2816164bc565b92915050565b6000819050919050565b6164fb816164e8565b811461650657600080fd5b50565b600081359050616518816164f2565b92915050565b6000806000806000806000806000806104c08b8d031215616542576165416161f4565b5b60006165508d828e016162f8565b9a505060208b013567ffffffffffffffff811115616571576165706161f9565b5b61657d8d828e0161631c565b995099505060408b013567ffffffffffffffff8111156165a05761659f6161f9565b5b6165ac8d828e0161631c565b975097505060606165bf8d828e01616282565b95505060806165d08d828e01616484565b9450506104606165e28d828e016164d3565b9350506104806165f48d828e01616509565b9250506104a06166068d828e01616509565b9150509295989b9194979a5092959850565b7f4e487b7100000000000000000000000000000000000000000000000000000000600052602160045260246000fd5b6003811061665857616657616618565b5b50565b600081905061666982616647565b919050565b60006166798261665b565b9050919050565b6166898161666e565b82525050565b60006020820190506166a46000830184616680565b92915050565b6166b3816164e8565b82525050565b60006020820190506166ce60008301846166aa565b92915050565b600060208201905081810360008301526166ee818461615c565b905092915050565b6166ff816160ab565b811461670a57600080fd5b50565b60008135905061671c816166f6565b92915050565b6000819050919050565b61673581616722565b811461674057600080fd5b50565b6000813590506167528161672c565b92915050565b60008060008060008060c08789031215616775576167746161f4565b5b600061678389828a0161670d565b965050602061679489828a0161670d565b95505060406167a589828a01616509565b94505060606167b689828a01616743565b93505060806167c789828a0161670d565b92505060a06167d889828a0161670d565b9150509295509295509295565b6167ee816161fe565b82525050565b600060208201905061680960008301846167e5565b92915050565b60008115159050919050565b6168248161680f565b82525050565b600060208201905061683f600083018461681b565b92915050565b600061ffff82169050919050565b61685c81616845565b82525050565b60006020820190506168776000830184616853565b92915050565b60006bffffffffffffffffffffffff82169050919050565b61689e8161687d565b81146168a957600080fd5b50565b6000813590506168bb81616895565b92915050565b600080604083850312156168d8576168d76161f4565b5b60006168e685828601616282565b92505060206168f7858286016168ac565b9150509250929050565b60008083601f8401126169175761691661630d565b5b8235905067ffffffffffffffff81111561693457616933616312565b5b6020830191508360208202830111156169505761694f616317565b5b9250929050565b6000806020838503121561696e5761696d6161f4565b5b600083013567ffffffffffffffff81111561698c5761698b6161f9565b5b61699885828601616901565b92509250509250929050565b6169ad81616116565b82525050565b60006020820190506169c860008301846169a4565b92915050565b600080600080608085870312156169e8576169e76161f4565b5b60006169f68782880161670d565b9450506020616a0787828801616509565b9350506040616a18878288016168ac565b9250506060616a29878288016168ac565b91505092959194509250565b616a3e8161687d565b82525050565b6000602082019050616a596000830184616a35565b92915050565b6000606082019050616a746000830186616a35565b616a8160208301856169a4565b8181036040830152616a93818461615c565b9050949350505050565b60008060008060608587031215616ab757616ab66161f4565b5b6000616ac587828801616282565b9450506020616ad687828801616509565b935050604085013567ffffffffffffffff811115616af757616af66161f9565b5b616b038782880161631c565b925092505092959194509250565b600080fd5b600060808284031215616b2c57616b2b616b11565b5b81905092915050565b600080600060a08486031215616b4e57616b4d6161f4565b5b600084013567ffffffffffffffff811115616b6c57616b6b6161f9565b5b616b788682870161631c565b93509350506020616b8b86828701616b16565b9150509250925092565b616b9e816162d7565b82525050565b6000602082019050616bb96000830184616b95565b92915050565b600080600060608486031215616bd857616bd76161f4565b5b6000616be686828701616282565b9350506020616bf786828701616282565b9250506040616c0886828701616282565b9150509250925092565b616c1b81616722565b82525050565b600060e082019050616c36600083018a6160bb565b616c4360208301896160bb565b616c5060408301886166aa565b616c5d6060830187616c12565b616c6a60808301866160bb565b616c7760a08301856169a4565b616c8460c08301846169a4565b98975050505050505050565b600060208284031215616ca657616ca56161f4565b5b6000616cb484828501616282565b91505092915050565b60008083601f840112616cd357616cd261630d565b5b8235905067ffffffffffffffff811115616cf057616cef616312565b5b602083019150836020820283011115616d0c57616d0b616317565b5b9250929050565b60008060208385031215616d2a57616d296161f4565b5b600083013567ffffffffffffffff811115616d4857616d476161f9565b5b616d5485828601616cbd565b92509250509250929050565b600080fd5b600060808284031215616d7b57616d7a616d60565b5b616d8560806163e3565b90506000616d9584828501616229565b6000830152506020616da984828501616282565b6020830152506040616dbd8482850161670d565b6040830152506060616dd184828501616509565b60608301525092915050565b600080600060a08486031215616df657616df56161f4565b5b600084013567ffffffffffffffff811115616e1457616e136161f9565b5b616e208682870161631c565b93509350506020616e3386828701616d65565b9150509250925092565b6000604082019050616e5260008301856169a4565b616e5f60208301846169a4565b9392505050565b600082825260208201905092915050565b82818337600083830152505050565b6000616e928385616e66565b9350616e9f838584616e77565b616ea883616372565b840190509392505050565b6000606082019050616ec86000830188616b95565b8181036020830152616edb818688616e86565b90508181036040830152616ef0818486616e86565b90509695505050505050565b7f4e487b7100000000000000000000000000000000000000000000000000000000600052601160045260246000fd5b6000616f368261687d565b9150616f418361687d565b925082821015616f5457616f53616efc565b5b828203905092915050565b7f4e487b7100000000000000000000000000000000000000000000000000000000600052603260045260246000fd5b6000616f998261687d565b9150616fa48361687d565b9250826bffffffffffffffffffffffff03821115616fc557616fc4616efc565b5b828201905092915050565b6000616fdb826164e8565b91507fffffffffffffffffffffffffffffffffffffffffffffffffffffffffffffffff82141561700e5761700d616efc565b5b600182019050919050565b600060a08201905061702e60008301886167e5565b61703b6020830187616a35565b6170486040830186616a35565b6170556060830185616a35565b617062608083018461681b565b9695505050505050565b60006020820190506170816000830184616c12565b92915050565b600060a08201905061709c60008301886160bb565b6170a960208301876160bb565b6170b660408301866166aa565b6170c36060830185616c12565b6170d060808301846160bb565b9695505050505050565b6000819050919050565b60006170ff6170fa6170f58461687d565b6170da565b6164e8565b9050919050565b61710f816170e4565b82525050565b600060408201905061712a60008301856169a4565b6171376020830184617106565b9392505050565b6171478161680f565b811461715257600080fd5b50565b6000815190506171648161713e565b92915050565b6000602082840312156171805761717f6161f4565b5b600061718e84828501617155565b91505092915050565b60006171a2826164e8565b91506171ad836164e8565b9250827fffffffffffffffffffffffffffffffffffffffffffffffffffffffffffffffff038211156171e2576171e1616efc565b5b828201905092915050565b600060408201905061720260008301856167e5565b61720f60208301846169a4565b9392505050565b6000617221826164e8565b915061722c836164e8565b92508282101561723f5761723e616efc565b5b828203905092915050565b7f4e487b7100000000000000000000000000000000000000000000000000000000600052603160045260246000fd5b6000617284826164e8565b915061728f836164e8565b9250817fffffffffffffffffffffffffffffffffffffffffffffffffffffffffffffffff04831182151516156172c8576172c7616efc565b5b828202905092915050565b7f4e487b7100000000000000000000000000000000000000000000000000000000600052601260045260246000fd5b600061730d826164e8565b9150617318836164e8565b925082617328576173276172d3565b5b828204905092915050565b600061733e826161fe565b915067ffffffffffffffff82141561735957617358616efc565b5b600182019050919050565b600060408201905061737960008301856166aa565b61738660208301846166aa565b9392505050565b6000602082840312156173a3576173a26161f4565b5b60006173b18482850161670d565b91505092915050565b60006040820190506173cf60008301856160bb565b6173dc60208301846160bb565b9392505050565b60006173f26020840184616229565b905092915050565b617403816161fe565b82525050565b60006174186020840184616282565b905092915050565b600061742f602084018461670d565b905092915050565b617440816160ab565b82525050565b60006174556020840184616509565b905092915050565b617466816164e8565b82525050565b6080820161747d60008301836173e3565b61748a60008501826173fa565b506174986020830183617409565b6174a56020850182616128565b506174b36040830183617420565b6174c06040850182617437565b506174ce6060830183617446565b6174db606085018261745d565b50505050565b600060a08201905081810360008301526174fc818587616e86565b905061750b602083018461746c565b949350505050565b60008151905061752281616895565b92915050565b60006020828403121561753e5761753d6161f4565b5b600061754c84828501617513565b91505092915050565b60006080828403121561756b5761756a6161f4565b5b600061757984828501616d65565b91505092915050565b600061758d826161fe565b9150617598836161fe565b92508267ffffffffffffffff038211156175b5576175b4616efc565b5b828201905092915050565b6175c98161687d565b82525050565b610120820160008201516175e660008501826173fa565b5060208201516175f96020850182616128565b50604082015161760c6040850182617437565b50606082015161761f606085018261745d565b5060808201516176326080850182616128565b5060a082015161764560a08501826175c0565b5060c082015161765860c08501826175c0565b5060e082015161766b60e08501826175c0565b5061010082015161768061010085018261745d565b50505050565b60006101208201905061769c60008301846175cf565b92915050565b600082825260208201905092915050565b7f496e697469616c697a61626c653a20636f6e747261637420697320616c72656160008201527f647920696e697469616c697a6564000000000000000000000000000000000000602082015250565b600061770f602e836176a2565b915061771a826176b3565b604082019050919050565b6000602082019050818103600083015261773e81617702565b9050919050565b6000819050919050565b600061776a61776561776084617745565b6170da565b6164af565b9050919050565b61777a8161774f565b82525050565b60006020820190506177956000830184617771565b92915050565b6000815190506177aa816164f2565b92915050565b6000602082840312156177c6576177c56161f4565b5b60006177d48482850161779b565b91505092915050565b60006040820190506177f260008301856169a4565b6177ff60208301846166aa565b9392505050565b6000819050919050565b6000602082019050919050565b600061782983856160d5565b935061783482617806565b8060005b8581101561786d5761784a8284617409565b6178548882616137565b975061785f83617810565b925050600181019050617838565b5085925050509392505050565b6000604082019050818103600083015261789581858761781d565b90506178a460208301846169a4565b949350505050565b7f5061757361626c653a2070617573656400000000000000000000000000000000600082015250565b60006178e26010836176a2565b91506178ed826178ac565b602082019050919050565b60006020820190508181036000830152617911816178d5565b9050919050565b60006179238261687d565b915061792e8361687d565b92508261793e5761793d6172d3565b5b828204905092915050565b600069ffffffffffffffffffff82169050919050565b61796881617949565b811461797357600080fd5b50565b6000815190506179858161795f565b92915050565b60008151905061799a8161672c565b92915050565b600080600080600060a086880312156179bc576179bb6161f4565b5b60006179ca88828901617976565b95505060206179db8882890161798b565b94505060406179ec8882890161779b565b93505060606179fd8882890161779b565b9250506080617a0e88828901617976565b9150509295509295909350565b6000608082019050617a3060008301876169a4565b617a3d60208301866169a4565b617a4a60408301856167e5565b617a5760608301846167e5565b95945050505050565b7f496e697469616c697a61626c653a20636f6e7472616374206973206e6f74206960008201527f6e697469616c697a696e67000000000000000000000000000000000000000000602082015250565b6000617abc602b836176a2565b9150617ac782617a60565b604082019050919050565b60006020820190508181036000830152617aeb81617aaf565b9050919050565b7f53616665436173743a2076616c756520646f65736e27742066697420696e203960008201527f3620626974730000000000000000000000000000000000000000000000000000602082015250565b6000617b4e6026836176a2565b9150617b5982617af2565b604082019050919050565b60006020820190508181036000830152617b7d81617b41565b9050919050565b7f5061757361626c653a206e6f7420706175736564000000000000000000000000600082015250565b6000617bba6014836176a2565b9150617bc582617b84565b602082019050919050565b60006020820190508181036000830152617be981617bad565b905091905056fea26469706673582212209ba8e9927dd871a35150055b42005ffb02edee1ae39c0b0208548e5c27dc00b264736f6c63430008090033",
  "linkReferences": {},
  "deployedLinkReferences": {}
}