{
  "_format": "hh-sol-artifact-1",
  "contractName": "FunctionsConsumerEscrow",
  "sourceName": "contracts/FunctionsConsumerEscrow.sol",
  "abi": [
    {
      "inputs": [
        {
          "internalType": "address",
          "name": "oracle",
          "type": "address"
        },
        {
          "internalType": "address",
          "name": "_mainAddress",
          "type": "address"
        },
        {
          "internalType": "string",
          "name": "_source",
          "type": "string"
        }
      ],
      "stateMutability": "payable",
      "type": "constructor"
    },
    {
      "inputs": [],
      "name": "EmptyArgs",
      "type": "error"
    },
    {
      "inputs": [],
      "name": "EmptySecrets",
      "type": "error"
    },
    {
      "inputs": [],
      "name": "EmptySource",
      "type": "error"
    },
    {
      "inputs": [],
      "name": "NoInlineSecrets",
      "type": "error"
    },
    {
      "inputs": [],
      "name": "RequestIsAlreadyPending",
      "type": "error"
    },
    {
      "inputs": [],
      "name": "RequestIsNotPending",
      "type": "error"
    },
    {
      "inputs": [],
      "name": "SenderIsNotRegistry",
      "type": "error"
    },
    {
      "anonymous": false,
      "inputs": [
        {
          "indexed": false,
          "internalType": "uint256",
          "name": "balance",
          "type": "uint256"
        }
      ],
      "name": "Approved",
      "type": "event"
    },
    {
      "anonymous": false,
      "inputs": [
        {
          "indexed": true,
          "internalType": "bytes32",
          "name": "requestId",
          "type": "bytes32"
        },
        {
          "indexed": false,
          "internalType": "bytes",
          "name": "result",
          "type": "bytes"
        },
        {
          "indexed": false,
          "internalType": "bytes",
          "name": "err",
          "type": "bytes"
        }
      ],
      "name": "OCRResponse",
      "type": "event"
    },
    {
      "anonymous": false,
      "inputs": [
        {
          "indexed": true,
          "internalType": "address",
          "name": "from",
          "type": "address"
        },
        {
          "indexed": true,
          "internalType": "address",
          "name": "to",
          "type": "address"
        }
      ],
      "name": "OwnershipTransferRequested",
      "type": "event"
    },
    {
      "anonymous": false,
      "inputs": [
        {
          "indexed": true,
          "internalType": "address",
          "name": "from",
          "type": "address"
        },
        {
          "indexed": true,
          "internalType": "address",
          "name": "to",
          "type": "address"
        }
      ],
      "name": "OwnershipTransferred",
      "type": "event"
    },
    {
      "anonymous": false,
      "inputs": [
        {
          "indexed": true,
          "internalType": "bytes32",
          "name": "id",
          "type": "bytes32"
        }
      ],
      "name": "RequestFulfilled",
      "type": "event"
    },
    {
      "anonymous": false,
      "inputs": [
        {
          "indexed": true,
          "internalType": "bytes32",
          "name": "id",
          "type": "bytes32"
        }
      ],
      "name": "RequestSent",
      "type": "event"
    },
    {
      "anonymous": false,
      "inputs": [
        {
          "indexed": false,
          "internalType": "string",
          "name": "name",
          "type": "string"
        }
      ],
      "name": "ResultCF",
      "type": "event"
    },
    {
      "inputs": [],
      "name": "acceptOwnership",
      "outputs": [],
      "stateMutability": "nonpayable",
      "type": "function"
    },
    {
      "inputs": [
        {
          "internalType": "address",
          "name": "oracleAddress",
          "type": "address"
        },
        {
          "internalType": "bytes32",
          "name": "requestId",
          "type": "bytes32"
        }
      ],
      "name": "addSimulatedRequestId",
      "outputs": [],
      "stateMutability": "nonpayable",
      "type": "function"
    },
    {
      "inputs": [],
      "name": "amount",
      "outputs": [
        {
          "internalType": "uint256",
          "name": "",
          "type": "uint256"
        }
      ],
      "stateMutability": "view",
      "type": "function"
    },
    {
      "inputs": [],
      "name": "beneficiary",
      "outputs": [
        {
          "internalType": "address",
          "name": "",
          "type": "address"
        }
      ],
      "stateMutability": "view",
      "type": "function"
    },
    {
      "inputs": [],
      "name": "depositor",
      "outputs": [
        {
          "internalType": "address",
          "name": "",
          "type": "address"
        }
      ],
      "stateMutability": "view",
      "type": "function"
    },
    {
      "inputs": [
        {
          "components": [
            {
              "internalType": "enum Functions.Location",
              "name": "codeLocation",
              "type": "uint8"
            },
            {
              "internalType": "enum Functions.Location",
              "name": "secretsLocation",
              "type": "uint8"
            },
            {
              "internalType": "enum Functions.CodeLanguage",
              "name": "language",
              "type": "uint8"
            },
            {
              "internalType": "string",
              "name": "source",
              "type": "string"
            },
            {
              "internalType": "bytes",
              "name": "secrets",
              "type": "bytes"
            },
            {
              "internalType": "string[]",
              "name": "args",
              "type": "string[]"
            }
          ],
          "internalType": "struct Functions.Request",
          "name": "req",
          "type": "tuple"
        },
        {
          "internalType": "uint64",
          "name": "subscriptionId",
          "type": "uint64"
        },
        {
          "internalType": "uint32",
          "name": "gasLimit",
          "type": "uint32"
        },
        {
          "internalType": "uint256",
          "name": "gasPrice",
          "type": "uint256"
        }
      ],
      "name": "estimateCost",
      "outputs": [
        {
          "internalType": "uint96",
          "name": "",
          "type": "uint96"
        }
      ],
      "stateMutability": "view",
      "type": "function"
    },
    {
      "inputs": [
        {
          "internalType": "string",
          "name": "source",
          "type": "string"
        },
        {
          "internalType": "bytes",
          "name": "secrets",
          "type": "bytes"
        },
        {
          "internalType": "string[]",
          "name": "args",
          "type": "string[]"
        },
        {
          "internalType": "uint64",
          "name": "subscriptionId",
          "type": "uint64"
        },
        {
          "internalType": "uint32",
          "name": "gasLimit",
          "type": "uint32"
        }
      ],
      "name": "executeRequest",
      "outputs": [
        {
          "internalType": "bytes32",
          "name": "",
          "type": "bytes32"
        }
      ],
      "stateMutability": "nonpayable",
      "type": "function"
    },
    {
      "inputs": [
        {
          "internalType": "string[]",
          "name": "args",
          "type": "string[]"
        }
      ],
      "name": "executeRequestFromEscrow",
      "outputs": [
        {
          "internalType": "bytes32",
          "name": "",
          "type": "bytes32"
        }
      ],
      "stateMutability": "nonpayable",
      "type": "function"
    },
    {
      "inputs": [],
      "name": "gasLimit_store",
      "outputs": [
        {
          "internalType": "uint32",
          "name": "",
          "type": "uint32"
        }
      ],
      "stateMutability": "view",
      "type": "function"
    },
    {
      "inputs": [],
      "name": "getDONPublicKey",
      "outputs": [
        {
          "internalType": "bytes",
          "name": "",
          "type": "bytes"
        }
      ],
      "stateMutability": "view",
      "type": "function"
    },
    {
      "inputs": [
        {
          "internalType": "bytes32",
          "name": "requestId",
          "type": "bytes32"
        },
        {
          "internalType": "bytes",
          "name": "response",
          "type": "bytes"
        },
        {
          "internalType": "bytes",
          "name": "err",
          "type": "bytes"
        }
      ],
      "name": "handleOracleFulfillment",
      "outputs": [],
      "stateMutability": "nonpayable",
      "type": "function"
    },
    {
      "inputs": [],
      "name": "isApproved",
      "outputs": [
        {
          "internalType": "bool",
          "name": "",
          "type": "bool"
        }
      ],
      "stateMutability": "view",
      "type": "function"
    },
    {
      "inputs": [],
      "name": "latestError",
      "outputs": [
        {
          "internalType": "bytes",
          "name": "",
          "type": "bytes"
        }
      ],
      "stateMutability": "view",
      "type": "function"
    },
    {
      "inputs": [],
      "name": "latestName",
      "outputs": [
        {
          "internalType": "string",
          "name": "",
          "type": "string"
        }
      ],
      "stateMutability": "view",
      "type": "function"
    },
    {
      "inputs": [],
      "name": "latestRequestId",
      "outputs": [
        {
          "internalType": "bytes32",
          "name": "",
          "type": "bytes32"
        }
      ],
      "stateMutability": "view",
      "type": "function"
    },
    {
      "inputs": [],
      "name": "latestResponse",
      "outputs": [
        {
          "internalType": "bytes",
          "name": "",
          "type": "bytes"
        }
      ],
      "stateMutability": "view",
      "type": "function"
    },
    {
      "inputs": [],
      "name": "owner",
      "outputs": [
        {
          "internalType": "address",
          "name": "",
          "type": "address"
        }
      ],
      "stateMutability": "view",
      "type": "function"
    },
    {
      "inputs": [
        {
          "internalType": "uint256",
          "name": "",
          "type": "uint256"
        }
      ],
      "name": "results",
      "outputs": [
        {
          "internalType": "bool",
          "name": "status",
          "type": "bool"
        },
        {
          "internalType": "string",
          "name": "author",
          "type": "string"
        }
      ],
      "stateMutability": "view",
      "type": "function"
    },
    {
      "inputs": [],
      "name": "secrets_store",
      "outputs": [
        {
          "internalType": "bytes",
          "name": "",
          "type": "bytes"
        }
      ],
      "stateMutability": "view",
      "type": "function"
    },
    {
      "inputs": [
        {
          "internalType": "uint64",
          "name": "_subId",
          "type": "uint64"
        }
      ],
      "name": "setSubscriptionId",
      "outputs": [],
      "stateMutability": "nonpayable",
      "type": "function"
    },
    {
      "inputs": [],
      "name": "source_store",
      "outputs": [
        {
          "internalType": "string",
          "name": "",
          "type": "string"
        }
      ],
      "stateMutability": "view",
      "type": "function"
    },
    {
      "inputs": [],
      "name": "subscriptionId_store",
      "outputs": [
        {
          "internalType": "uint64",
          "name": "",
          "type": "uint64"
        }
      ],
      "stateMutability": "view",
      "type": "function"
    },
    {
      "inputs": [
        {
          "internalType": "address",
          "name": "to",
          "type": "address"
        }
      ],
      "name": "transferOwnership",
      "outputs": [],
      "stateMutability": "nonpayable",
      "type": "function"
    },
    {
      "inputs": [
        {
          "internalType": "address",
          "name": "oracle",
          "type": "address"
        }
      ],
      "name": "updateOracleAddress",
      "outputs": [],
      "stateMutability": "nonpayable",
      "type": "function"
    }
  ],
  "bytecode": "0x60806040526000600c806101000a81548160ff02191690831515021790555060405162003dae38038062003dae83398181016040528101906200004391906200062a565b338060008562000059816200020360201b60201c565b50600073ffffffffffffffffffffffffffffffffffffffff168273ffffffffffffffffffffffffffffffffffffffff161415620000cd576040517f08c379a0000000000000000000000000000000000000000000000000000000008152600401620000c49062000706565b60405180910390fd5b81600260006101000a81548173ffffffffffffffffffffffffffffffffffffffff021916908373ffffffffffffffffffffffffffffffffffffffff160217905550600073ffffffffffffffffffffffffffffffffffffffff168173ffffffffffffffffffffffffffffffffffffffff1614620001555762000154816200024660201b60201c565b5b50505081600960006101000a81548173ffffffffffffffffffffffffffffffffffffffff021916908373ffffffffffffffffffffffffffffffffffffffff16021790555080600a9080519060200190620001b192919062000378565b5033600760006101000a81548173ffffffffffffffffffffffffffffffffffffffff021916908373ffffffffffffffffffffffffffffffffffffffff16021790555034600d81905550505050620007ff565b806000806101000a81548173ffffffffffffffffffffffffffffffffffffffff021916908373ffffffffffffffffffffffffffffffffffffffff16021790555050565b3373ffffffffffffffffffffffffffffffffffffffff168173ffffffffffffffffffffffffffffffffffffffff161415620002b8576040517f08c379a0000000000000000000000000000000000000000000000000000000008152600401620002af9062000778565b60405180910390fd5b80600360006101000a81548173ffffffffffffffffffffffffffffffffffffffff021916908373ffffffffffffffffffffffffffffffffffffffff1602179055508073ffffffffffffffffffffffffffffffffffffffff16600260009054906101000a900473ffffffffffffffffffffffffffffffffffffffff1673ffffffffffffffffffffffffffffffffffffffff167fed8889f560326eb138920d842192f0eb3dd22b4f139c87a2c57538e05bae127860405160405180910390a350565b8280546200038690620007c9565b90600052602060002090601f016020900481019282620003aa5760008555620003f6565b82601f10620003c557805160ff1916838001178555620003f6565b82800160010185558215620003f6579182015b82811115620003f5578251825591602001919060010190620003d8565b5b50905062000405919062000409565b5090565b5b80821115620004245760008160009055506001016200040a565b5090565b6000604051905090565b600080fd5b600080fd5b600073ffffffffffffffffffffffffffffffffffffffff82169050919050565b600062000469826200043c565b9050919050565b6200047b816200045c565b81146200048757600080fd5b50565b6000815190506200049b8162000470565b92915050565b600080fd5b600080fd5b6000601f19601f8301169050919050565b7f4e487b7100000000000000000000000000000000000000000000000000000000600052604160045260246000fd5b620004f682620004ab565b810181811067ffffffffffffffff82111715620005185762000517620004bc565b5b80604052505050565b60006200052d62000428565b90506200053b8282620004eb565b919050565b600067ffffffffffffffff8211156200055e576200055d620004bc565b5b6200056982620004ab565b9050602081019050919050565b60005b838110156200059657808201518184015260208101905062000579565b83811115620005a6576000848401525b50505050565b6000620005c3620005bd8462000540565b62000521565b905082815260208101848484011115620005e257620005e1620004a6565b5b620005ef84828562000576565b509392505050565b600082601f8301126200060f576200060e620004a1565b5b815162000621848260208601620005ac565b91505092915050565b60008060006060848603121562000646576200064562000432565b5b600062000656868287016200048a565b935050602062000669868287016200048a565b925050604084015167ffffffffffffffff8111156200068d576200068c62000437565b5b6200069b86828701620005f7565b9150509250925092565b600082825260208201905092915050565b7f43616e6e6f7420736574206f776e657220746f207a65726f0000000000000000600082015250565b6000620006ee601883620006a5565b9150620006fb82620006b6565b602082019050919050565b600060208201905081810360008301526200072181620006df565b9050919050565b7f43616e6e6f74207472616e7366657220746f2073656c66000000000000000000600082015250565b600062000760601783620006a5565b91506200076d8262000728565b602082019050919050565b60006020820190508181036000830152620007938162000751565b9050919050565b7f4e487b7100000000000000000000000000000000000000000000000000000000600052602260045260246000fd5b60006002820490506001821680620007e257607f821691505b60208210811415620007f957620007f86200079a565b5b50919050565b61359f806200080f6000396000f3fe608060405234801561001057600080fd5b50600436106101585760003560e01c80638da5cb5b116100c3578063d328a91e1161007c578063d328a91e14610398578063d4b39175146103b6578063ea7b4f77146103e6578063f2fde38b14610402578063f7023bb61461041e578063fffeb84e1461043a57610158565b80638da5cb5b146102e45780639582dc1914610302578063aa8c217c14610320578063bef3a2f01461033e578063c67289f71461035c578063c7c4ff461461037a57610158565b806330bda99d1161011557806330bda99d1461023457806338af3eed146102505780633921bc4b1461026e57806343f1969c1461028c5780636b8cfcd8146102aa57806379ba5097146102da57610158565b80630ca761751461015d57806319d913f5146101795780631aa46f59146101975780631b0c27da146101b557806327714589146101e657806328f371aa14610216575b600080fd5b61017760048036038101906101729190612297565b610458565b005b610181610565565b60405161018e91906123aa565b60405180910390f35b61019f6105f3565b6040516101ac91906123db565b60405180910390f35b6101cf60048036038101906101ca919061242c565b6105f9565b6040516101dd929190612474565b60405180910390f35b61020060048036038101906101fb91906126a7565b6106c2565b60405161020d91906123db565b60405180910390f35b61021e61074c565b60405161022b9190612776565b60405180910390f35b61024e600480360381019061024991906127ef565b61075d565b005b610258610773565b604051610265919061283e565b60405180910390f35b610276610799565b60405161028391906123aa565b60405180910390f35b610294610827565b6040516102a191906128ae565b60405180910390f35b6102c460048036038101906102bf919061292b565b6108b5565b6040516102d191906123db565b60405180910390f35b6102e2610ac8565b005b6102ec610c5f565b6040516102f9919061283e565b60405180910390f35b61030a610c89565b6040516103179190612987565b60405180910390f35b610328610ca3565b60405161033591906129b1565b60405180910390f35b610346610ca9565b60405161035391906128ae565b60405180910390f35b610364610d37565b60405161037191906129db565b60405180910390f35b610382610d4d565b60405161038f919061283e565b60405180910390f35b6103a0610d73565b6040516103ad91906128ae565b60405180910390f35b6103d060048036038101906103cb9190612b3e565b610e1d565b6040516103dd9190612be8565b60405180910390f35b61040060048036038101906103fb9190612c03565b610ee1565b005b61041c60048036038101906104179190612c30565b610f0d565b005b61043860048036038101906104339190612c30565b610f21565b005b610442610f35565b60405161044f91906128ae565b60405180910390f35b826001600082815260200190815260200160002060009054906101000a900473ffffffffffffffffffffffffffffffffffffffff1673ffffffffffffffffffffffffffffffffffffffff163373ffffffffffffffffffffffffffffffffffffffff16146104f1576040517fa0c5ec6300000000000000000000000000000000000000000000000000000000815260040160405180910390fd5b6001600082815260200190815260200160002060006101000a81549073ffffffffffffffffffffffffffffffffffffffff0219169055807f85e1543bf2f84fe80c6badbce3648c8539ad1df4d2b3d822938ca0538be727e660405160405180910390a261055f848484610fc3565b50505050565b600a805461057290612c8c565b80601f016020809104026020016040519081016040528092919081815260200182805461059e90612c8c565b80156105eb5780601f106105c0576101008083540402835291602001916105eb565b820191906000526020600020905b8154815290600101906020018083116105ce57829003601f168201915b505050505081565b60045481565b600f818154811061060957600080fd5b90600052602060002090600202016000915090508060000160009054906101000a900460ff169080600101805461063f90612c8c565b80601f016020809104026020016040519081016040528092919081815260200182805461066b90612c8c565b80156106b85780601f1061068d576101008083540402835291602001916106b8565b820191906000526020600020905b81548152906001019060200180831161069b57829003601f168201915b5050505050905082565b60006106cc61109e565b6106d4611f39565b6106ec6000808984611130909392919063ffffffff16565b60008651111561070a5761070986826111db90919063ffffffff16565b5b60008551111561072857610727858261125590919063ffffffff16565b5b600061073582868661129e565b905080600481905550809250505095945050505050565b600c8054906101000a900460ff1681565b61076561109e565b61076f8282611481565b5050565b600860009054906101000a900473ffffffffffffffffffffffffffffffffffffffff1681565b600e80546107a690612c8c565b80601f01602080910402602001604051908101604052809291908181526020018280546107d290612c8c565b801561081f5780601f106107f45761010080835404028352916020019161081f565b820191906000526020600020905b81548152906001019060200180831161080257829003601f168201915b505050505081565b600b805461083490612c8c565b80601f016020809104026020016040519081016040528092919081815260200182805461086090612c8c565b80156108ad5780601f10610882576101008083540402835291602001916108ad565b820191906000526020600020905b81548152906001019060200180831161089057829003601f168201915b505050505081565b6000600960009054906101000a900473ffffffffffffffffffffffffffffffffffffffff1673ffffffffffffffffffffffffffffffffffffffff1663b166a09f336040518263ffffffff1660e01b8152600401610912919061283e565b60206040518083038186803b15801561092a57600080fd5b505afa15801561093e573d6000803e3d6000fd5b505050506040513d601f19601f820116820180604052508101906109629190612cea565b61096b57600080fd5b610ac0600a805461097b90612c8c565b80601f01602080910402602001604051908101604052809291908181526020018280546109a790612c8c565b80156109f45780601f106109c9576101008083540402835291602001916109f4565b820191906000526020600020905b8154815290600101906020018083116109d757829003601f168201915b5050505050600b8054610a0690612c8c565b80601f0160208091040260200160405190810160405280929190818152602001828054610a3290612c8c565b8015610a7f5780601f10610a5457610100808354040283529160200191610a7f565b820191906000526020600020905b815481529060010190602001808311610a6257829003601f168201915b5050505050858590610a919190612d17565b600c60009054906101000a900467ffffffffffffffff16600c60089054906101000a900463ffffffff166106c2565b905092915050565b600360009054906101000a900473ffffffffffffffffffffffffffffffffffffffff1673ffffffffffffffffffffffffffffffffffffffff163373ffffffffffffffffffffffffffffffffffffffff1614610b58576040517f08c379a0000000000000000000000000000000000000000000000000000000008152600401610b4f90612d78565b60405180910390fd5b6000600260009054906101000a900473ffffffffffffffffffffffffffffffffffffffff16905033600260006101000a81548173ffffffffffffffffffffffffffffffffffffffff021916908373ffffffffffffffffffffffffffffffffffffffff1602179055506000600360006101000a81548173ffffffffffffffffffffffffffffffffffffffff021916908373ffffffffffffffffffffffffffffffffffffffff1602179055503373ffffffffffffffffffffffffffffffffffffffff168173ffffffffffffffffffffffffffffffffffffffff167f8be0079c531659141344cd1fd0a4f28419497f9722a3daafe3b4186f6b6457e060405160405180910390a350565b6000600260009054906101000a900473ffffffffffffffffffffffffffffffffffffffff16905090565b600c60009054906101000a900467ffffffffffffffff1681565b600d5481565b60058054610cb690612c8c565b80601f0160208091040260200160405190810160405280929190818152602001828054610ce290612c8c565b8015610d2f5780601f10610d0457610100808354040283529160200191610d2f565b820191906000526020600020905b815481529060010190602001808311610d1257829003601f168201915b505050505081565b600c60089054906101000a900463ffffffff1681565b600760009054906101000a900473ffffffffffffffffffffffffffffffffffffffff1681565b606060008054906101000a900473ffffffffffffffffffffffffffffffffffffffff1673ffffffffffffffffffffffffffffffffffffffff1663d328a91e6040518163ffffffff1660e01b815260040160006040518083038186803b158015610ddb57600080fd5b505afa158015610def573d6000803e3d6000fd5b505050506040513d6000823e3d601f19601f82011682018060405250810190610e189190612e08565b905090565b60008060009054906101000a900473ffffffffffffffffffffffffffffffffffffffff1673ffffffffffffffffffffffffffffffffffffffff1663d227d24585610e6688611572565b86866040518563ffffffff1660e01b8152600401610e879493929190612e51565b60206040518083038186803b158015610e9f57600080fd5b505afa158015610eb3573d6000803e3d6000fd5b505050506040513d601f19601f82011682018060405250810190610ed79190612ec9565b9050949350505050565b80600c60006101000a81548167ffffffffffffffff021916908367ffffffffffffffff16021790555050565b610f1561109e565b610f1e81611873565b50565b610f2961109e565b610f32816119a2565b50565b60068054610f4290612c8c565b80601f0160208091040260200160405190810160405280929190818152602001828054610f6e90612c8c565b8015610fbb5780601f10610f9057610100808354040283529160200191610fbb565b820191906000526020600020905b815481529060010190602001808311610f9e57829003601f168201915b505050505081565b8160059080519060200190610fd9929190611fa4565b508060069080519060200190610ff0929190611fa4565b50816040516020016110029190612f32565b604051602081830303815290604052600e908051906020019061102692919061202a565b50827f7bab0ec163b5c132c72b8146ac4d6e067e82ed58f8b131150aa71c92589115628383604051611059929190612f49565b60405180910390a27f6027a665a67846f36315102f12bd302883c86f3e5a86bf0583b01d34ede17724600e6040516110919190613015565b60405180910390a1505050565b600260009054906101000a900473ffffffffffffffffffffffffffffffffffffffff1673ffffffffffffffffffffffffffffffffffffffff163373ffffffffffffffffffffffffffffffffffffffff161461112e576040517f08c379a000000000000000000000000000000000000000000000000000000000815260040161112590613083565b60405180910390fd5b565b60008151141561116c576040517f22ce3edd00000000000000000000000000000000000000000000000000000000815260040160405180910390fd5b8284600001906001811115611184576111836130a3565b5b90816001811115611198576111976130a3565b5b8152505081846040019060008111156111b4576111b36130a3565b5b908160008111156111c8576111c76130a3565b5b8152505080846060018190525050505050565b600081511415611217576040517fe889636f00000000000000000000000000000000000000000000000000000000815260040160405180910390fd5b6001826020019060018111156112305761122f6130a3565b5b90816001811115611244576112436130a3565b5b815250508082608001819052505050565b600081511415611291576040517ffe936cb700000000000000000000000000000000000000000000000000000000815260040160405180910390fd5b808260a001819052505050565b60008060008054906101000a900473ffffffffffffffffffffffffffffffffffffffff1673ffffffffffffffffffffffffffffffffffffffff166328242b04856112e788611572565b866040518463ffffffff1660e01b8152600401611306939291906130d2565b602060405180830381600087803b15801561132057600080fd5b505af1158015611334573d6000803e3d6000fd5b505050506040513d601f19601f820116820180604052508101906113589190613125565b905060008054906101000a900473ffffffffffffffffffffffffffffffffffffffff1673ffffffffffffffffffffffffffffffffffffffff16635ab1bd536040518163ffffffff1660e01b815260040160206040518083038186803b1580156113c057600080fd5b505afa1580156113d4573d6000803e3d6000fd5b505050506040513d601f19601f820116820180604052508101906113f89190613167565b6001600083815260200190815260200160002060006101000a81548173ffffffffffffffffffffffffffffffffffffffff021916908373ffffffffffffffffffffffffffffffffffffffff160217905550807f1131472297a800fee664d1d89cfa8f7676ff07189ecc53f80bbb5f4969099db860405160405180910390a2809150509392505050565b80600073ffffffffffffffffffffffffffffffffffffffff166001600083815260200190815260200160002060009054906101000a900473ffffffffffffffffffffffffffffffffffffffff1673ffffffffffffffffffffffffffffffffffffffff161461151b576040517f8b457ad200000000000000000000000000000000000000000000000000000000815260040160405180910390fd5b826001600084815260200190815260200160002060006101000a81548173ffffffffffffffffffffffffffffffffffffffff021916908373ffffffffffffffffffffffffffffffffffffffff160217905550505050565b606061157c6120b0565b61158c81600001516101006119e5565b506115cc816040518060400160405280600c81526020017f636f64654c6f636174696f6e0000000000000000000000000000000000000000815250611a5e565b6115ec81846000015160018111156115e7576115e66130a3565b5b611a87565b61162b816040518060400160405280600881526020017f6c616e6775616765000000000000000000000000000000000000000000000000815250611a5e565b61164b8184604001516000811115611646576116456130a3565b5b611a87565b61168a816040518060400160405280600681526020017f736f757263650000000000000000000000000000000000000000000000000000815250611a5e565b611698818460600151611a5e565b60008360a00151511115611744576116e5816040518060400160405280600481526020017f6172677300000000000000000000000000000000000000000000000000000000815250611a5e565b6116ee81611ad7565b60005b8360a001515181101561173957611726828560a00151838151811061171957611718613194565b5b6020026020010151611a5e565b8080611731906131f2565b9150506116f1565b5061174381611aff565b5b600083608001515111156118625760006001811115611766576117656130a3565b5b8360200151600181111561177d5761177c6130a3565b5b14156117b5576040517fa80d31f700000000000000000000000000000000000000000000000000000000815260040160405180910390fd5b6117f4816040518060400160405280600f81526020017f736563726574734c6f636174696f6e0000000000000000000000000000000000815250611a5e565b611814818460200151600181111561180f5761180e6130a3565b5b611a87565b611853816040518060400160405280600781526020017f7365637265747300000000000000000000000000000000000000000000000000815250611a5e565b611861818460800151611b27565b5b806000015160000151915050919050565b3373ffffffffffffffffffffffffffffffffffffffff168173ffffffffffffffffffffffffffffffffffffffff1614156118e2576040517f08c379a00000000000000000000000000000000000000000000000000000000081526004016118d990613287565b60405180910390fd5b80600360006101000a81548173ffffffffffffffffffffffffffffffffffffffff021916908373ffffffffffffffffffffffffffffffffffffffff1602179055508073ffffffffffffffffffffffffffffffffffffffff16600260009054906101000a900473ffffffffffffffffffffffffffffffffffffffff1673ffffffffffffffffffffffffffffffffffffffff167fed8889f560326eb138920d842192f0eb3dd22b4f139c87a2c57538e05bae127860405160405180910390a350565b806000806101000a81548173ffffffffffffffffffffffffffffffffffffffff021916908373ffffffffffffffffffffffffffffffffffffffff16021790555050565b6119ed6120d0565b60006020836119fc91906132d6565b14611a2857602082611a0e91906132d6565b6020611a1a9190613307565b82611a25919061333b565b91505b818360200181815250506040518084526000815282810160200181811015611a4f57600080fd5b80604052505082905092915050565b611a6b8260038351611b50565b611a82818360000151611cf990919063ffffffff16565b505050565b611aa960026005600660ff16901b178360000151611d1590919063ffffffff16565b50611ad38282604051602001611abf91906129b1565b604051602081830303815290604052611b27565b5050565b611ae2816004611d7f565b600181602001818151611af5919061333b565b9150818152505050565b611b0a816007611d7f565b600181602001818151611b1d9190613307565b9150818152505050565b611b348260028351611b50565b611b4b818360000151611cf990919063ffffffff16565b505050565b60178167ffffffffffffffff1611611b8b57611b858160058460ff16901b60ff16178460000151611d1590919063ffffffff16565b50611cf4565b60ff8167ffffffffffffffff1611611be957611bbe601860058460ff16901b178460000151611d1590919063ffffffff16565b50611be38167ffffffffffffffff1660018560000151611da59092919063ffffffff16565b50611cf3565b61ffff8167ffffffffffffffff1611611c4857611c1d601960058460ff16901b178460000151611d1590919063ffffffff16565b50611c428167ffffffffffffffff1660028560000151611da59092919063ffffffff16565b50611cf2565b63ffffffff8167ffffffffffffffff1611611ca957611c7e601a60058460ff16901b178460000151611d1590919063ffffffff16565b50611ca38167ffffffffffffffff1660048560000151611da59092919063ffffffff16565b50611cf1565b611cca601b60058460ff16901b178460000151611d1590919063ffffffff16565b50611cef8167ffffffffffffffff1660088560000151611da59092919063ffffffff16565b505b5b5b5b505050565b611d016120d0565b611d0d83838451611e32565b905092915050565b611d1d6120d0565b600083600001515190506000600182611d36919061333b565b905084602001518210611d5a57611d5985600283611d549190613391565b611f15565b5b84516020838201018581538151831115611d72578282525b5050849250505092915050565b611da0601f60058360ff16901b178360000151611d1590919063ffffffff16565b505050565b611dad6120d0565b6000846000015151905060008184611dc5919061333b565b90508560200151811115611dea57611de986600283611de49190613391565b611f15565b5b6000600185610100611dfc919061351e565b611e069190613307565b905086518281018783198251161781528151841115611e23578382525b50508693505050509392505050565b611e3a6120d0565b8251821115611e4857600080fd5b6000846000015151905060008382611e60919061333b565b90508560200151811115611e8557611e8486600283611e7f9190613391565b611f15565b5b60008087518051856020830101935080851115611ea0578482525b60208901925050505b60208610611ee75780518252602082611ec2919061333b565b9150602081611ed1919061333b565b9050602086611ee09190613307565b9550611ea9565b60006001876020036101000a0390508019825116818451168181178552505050879450505050509392505050565b600082600001519050611f2883836119e5565b50611f338382611cf9565b50505050565b6040518060c0016040528060006001811115611f5857611f576130a3565b5b815260200160006001811115611f7157611f706130a3565b5b8152602001600080811115611f8957611f886130a3565b5b81526020016060815260200160608152602001606081525090565b828054611fb090612c8c565b90600052602060002090601f016020900481019282611fd25760008555612019565b82601f10611feb57805160ff1916838001178555612019565b82800160010185558215612019579182015b82811115612018578251825591602001919060010190611ffd565b5b50905061202691906120ea565b5090565b82805461203690612c8c565b90600052602060002090601f016020900481019282612058576000855561209f565b82601f1061207157805160ff191683800117855561209f565b8280016001018555821561209f579182015b8281111561209e578251825591602001919060010190612083565b5b5090506120ac91906120ea565b5090565b60405180604001604052806120c36120d0565b8152602001600081525090565b604051806040016040528060608152602001600081525090565b5b808211156121035760008160009055506001016120eb565b5090565b6000604051905090565b600080fd5b600080fd5b6000819050919050565b61212e8161211b565b811461213957600080fd5b50565b60008135905061214b81612125565b92915050565b600080fd5b600080fd5b6000601f19601f8301169050919050565b7f4e487b7100000000000000000000000000000000000000000000000000000000600052604160045260246000fd5b6121a48261215b565b810181811067ffffffffffffffff821117156121c3576121c261216c565b5b80604052505050565b60006121d6612107565b90506121e2828261219b565b919050565b600067ffffffffffffffff8211156122025761220161216c565b5b61220b8261215b565b9050602081019050919050565b82818337600083830152505050565b600061223a612235846121e7565b6121cc565b90508281526020810184848401111561225657612255612156565b5b612261848285612218565b509392505050565b600082601f83011261227e5761227d612151565b5b813561228e848260208601612227565b91505092915050565b6000806000606084860312156122b0576122af612111565b5b60006122be8682870161213c565b935050602084013567ffffffffffffffff8111156122df576122de612116565b5b6122eb86828701612269565b925050604084013567ffffffffffffffff81111561230c5761230b612116565b5b61231886828701612269565b9150509250925092565b600081519050919050565b600082825260208201905092915050565b60005b8381101561235c578082015181840152602081019050612341565b8381111561236b576000848401525b50505050565b600061237c82612322565b612386818561232d565b935061239681856020860161233e565b61239f8161215b565b840191505092915050565b600060208201905081810360008301526123c48184612371565b905092915050565b6123d58161211b565b82525050565b60006020820190506123f060008301846123cc565b92915050565b6000819050919050565b612409816123f6565b811461241457600080fd5b50565b60008135905061242681612400565b92915050565b60006020828403121561244257612441612111565b5b600061245084828501612417565b91505092915050565b60008115159050919050565b61246e81612459565b82525050565b60006040820190506124896000830185612465565b818103602083015261249b8184612371565b90509392505050565b600067ffffffffffffffff8211156124bf576124be61216c565b5b6124c88261215b565b9050602081019050919050565b60006124e86124e3846124a4565b6121cc565b90508281526020810184848401111561250457612503612156565b5b61250f848285612218565b509392505050565b600082601f83011261252c5761252b612151565b5b813561253c8482602086016124d5565b91505092915050565b600067ffffffffffffffff8211156125605761255f61216c565b5b602082029050602081019050919050565b600080fd5b600061258961258484612545565b6121cc565b905080838252602082019050602084028301858111156125ac576125ab612571565b5b835b818110156125f357803567ffffffffffffffff8111156125d1576125d0612151565b5b8086016125de8982612517565b855260208501945050506020810190506125ae565b5050509392505050565b600082601f83011261261257612611612151565b5b8135612622848260208601612576565b91505092915050565b600067ffffffffffffffff82169050919050565b6126488161262b565b811461265357600080fd5b50565b6000813590506126658161263f565b92915050565b600063ffffffff82169050919050565b6126848161266b565b811461268f57600080fd5b50565b6000813590506126a18161267b565b92915050565b600080600080600060a086880312156126c3576126c2612111565b5b600086013567ffffffffffffffff8111156126e1576126e0612116565b5b6126ed88828901612517565b955050602086013567ffffffffffffffff81111561270e5761270d612116565b5b61271a88828901612269565b945050604086013567ffffffffffffffff81111561273b5761273a612116565b5b612747888289016125fd565b935050606061275888828901612656565b925050608061276988828901612692565b9150509295509295909350565b600060208201905061278b6000830184612465565b92915050565b600073ffffffffffffffffffffffffffffffffffffffff82169050919050565b60006127bc82612791565b9050919050565b6127cc816127b1565b81146127d757600080fd5b50565b6000813590506127e9816127c3565b92915050565b6000806040838503121561280657612805612111565b5b6000612814858286016127da565b92505060206128258582860161213c565b9150509250929050565b612838816127b1565b82525050565b6000602082019050612853600083018461282f565b92915050565b600081519050919050565b600082825260208201905092915050565b600061288082612859565b61288a8185612864565b935061289a81856020860161233e565b6128a38161215b565b840191505092915050565b600060208201905081810360008301526128c88184612875565b905092915050565b600080fd5b60008083601f8401126128eb576128ea612151565b5b8235905067ffffffffffffffff811115612908576129076128d0565b5b60208301915083602082028301111561292457612923612571565b5b9250929050565b6000806020838503121561294257612941612111565b5b600083013567ffffffffffffffff8111156129605761295f612116565b5b61296c858286016128d5565b92509250509250929050565b6129818161262b565b82525050565b600060208201905061299c6000830184612978565b92915050565b6129ab816123f6565b82525050565b60006020820190506129c660008301846129a2565b92915050565b6129d58161266b565b82525050565b60006020820190506129f060008301846129cc565b92915050565b600080fd5b600080fd5b60028110612a0d57600080fd5b50565b600081359050612a1f81612a00565b92915050565b60018110612a3257600080fd5b50565b600081359050612a4481612a25565b92915050565b600060c08284031215612a6057612a5f6129f6565b5b612a6a60c06121cc565b90506000612a7a84828501612a10565b6000830152506020612a8e84828501612a10565b6020830152506040612aa284828501612a35565b604083015250606082013567ffffffffffffffff811115612ac657612ac56129fb565b5b612ad284828501612517565b606083015250608082013567ffffffffffffffff811115612af657612af56129fb565b5b612b0284828501612269565b60808301525060a082013567ffffffffffffffff811115612b2657612b256129fb565b5b612b32848285016125fd565b60a08301525092915050565b60008060008060808587031215612b5857612b57612111565b5b600085013567ffffffffffffffff811115612b7657612b75612116565b5b612b8287828801612a4a565b9450506020612b9387828801612656565b9350506040612ba487828801612692565b9250506060612bb587828801612417565b91505092959194509250565b60006bffffffffffffffffffffffff82169050919050565b612be281612bc1565b82525050565b6000602082019050612bfd6000830184612bd9565b92915050565b600060208284031215612c1957612c18612111565b5b6000612c2784828501612656565b91505092915050565b600060208284031215612c4657612c45612111565b5b6000612c54848285016127da565b91505092915050565b7f4e487b7100000000000000000000000000000000000000000000000000000000600052602260045260246000fd5b60006002820490506001821680612ca457607f821691505b60208210811415612cb857612cb7612c5d565b5b50919050565b612cc781612459565b8114612cd257600080fd5b50565b600081519050612ce481612cbe565b92915050565b600060208284031215612d0057612cff612111565b5b6000612d0e84828501612cd5565b91505092915050565b6000612d24368484612576565b905092915050565b7f4d7573742062652070726f706f736564206f776e657200000000000000000000600082015250565b6000612d6260168361232d565b9150612d6d82612d2c565b602082019050919050565b60006020820190508181036000830152612d9181612d55565b9050919050565b6000612dab612da6846121e7565b6121cc565b905082815260208101848484011115612dc757612dc6612156565b5b612dd284828561233e565b509392505050565b600082601f830112612def57612dee612151565b5b8151612dff848260208601612d98565b91505092915050565b600060208284031215612e1e57612e1d612111565b5b600082015167ffffffffffffffff811115612e3c57612e3b612116565b5b612e4884828501612dda565b91505092915050565b6000608082019050612e666000830187612978565b8181036020830152612e788186612875565b9050612e8760408301856129cc565b612e9460608301846129a2565b95945050505050565b612ea681612bc1565b8114612eb157600080fd5b50565b600081519050612ec381612e9d565b92915050565b600060208284031215612edf57612ede612111565b5b6000612eed84828501612eb4565b91505092915050565b600081905092915050565b6000612f0c82612859565b612f168185612ef6565b9350612f2681856020860161233e565b80840191505092915050565b6000612f3e8284612f01565b915081905092915050565b60006040820190508181036000830152612f638185612875565b90508181036020830152612f778184612875565b90509392505050565b60008190508160005260206000209050919050565b60008154612fa281612c8c565b612fac818661232d565b94506001821660008114612fc75760018114612fd95761300c565b60ff198316865260208601935061300c565b612fe285612f80565b60005b8381101561300457815481890152600182019150602081019050612fe5565b808801955050505b50505092915050565b6000602082019050818103600083015261302f8184612f95565b905092915050565b7f4f6e6c792063616c6c61626c65206279206f776e657200000000000000000000600082015250565b600061306d60168361232d565b915061307882613037565b602082019050919050565b6000602082019050818103600083015261309c81613060565b9050919050565b7f4e487b7100000000000000000000000000000000000000000000000000000000600052602160045260246000fd5b60006060820190506130e76000830186612978565b81810360208301526130f98185612875565b905061310860408301846129cc565b949350505050565b60008151905061311f81612125565b92915050565b60006020828403121561313b5761313a612111565b5b600061314984828501613110565b91505092915050565b600081519050613161816127c3565b92915050565b60006020828403121561317d5761317c612111565b5b600061318b84828501613152565b91505092915050565b7f4e487b7100000000000000000000000000000000000000000000000000000000600052603260045260246000fd5b7f4e487b7100000000000000000000000000000000000000000000000000000000600052601160045260246000fd5b60006131fd826123f6565b91507fffffffffffffffffffffffffffffffffffffffffffffffffffffffffffffffff8214156132305761322f6131c3565b5b600182019050919050565b7f43616e6e6f74207472616e7366657220746f2073656c66000000000000000000600082015250565b600061327160178361232d565b915061327c8261323b565b602082019050919050565b600060208201905081810360008301526132a081613264565b9050919050565b7f4e487b7100000000000000000000000000000000000000000000000000000000600052601260045260246000fd5b60006132e1826123f6565b91506132ec836123f6565b9250826132fc576132fb6132a7565b5b828206905092915050565b6000613312826123f6565b915061331d836123f6565b9250828210156133305761332f6131c3565b5b828203905092915050565b6000613346826123f6565b9150613351836123f6565b9250827fffffffffffffffffffffffffffffffffffffffffffffffffffffffffffffffff03821115613386576133856131c3565b5b828201905092915050565b600061339c826123f6565b91506133a7836123f6565b9250817fffffffffffffffffffffffffffffffffffffffffffffffffffffffffffffffff04831182151516156133e0576133df6131c3565b5b828202905092915050565b60008160011c9050919050565b6000808291508390505b60018511156134425780860481111561341e5761341d6131c3565b5b600185161561342d5780820291505b808102905061343b856133eb565b9450613402565b94509492505050565b60008261345b5760019050613517565b816134695760009050613517565b816001811461347f5760028114613489576134b8565b6001915050613517565b60ff84111561349b5761349a6131c3565b5b8360020a9150848211156134b2576134b16131c3565b5b50613517565b5060208310610133831016604e8410600b84101617156134ed5782820a9050838111156134e8576134e76131c3565b5b613517565b6134fa84848460016133f8565b92509050818404811115613511576135106131c3565b5b81810290505b9392505050565b6000613529826123f6565b9150613534836123f6565b92506135617fffffffffffffffffffffffffffffffffffffffffffffffffffffffffffffffff848461344b565b90509291505056fea264697066735822122081f21f6a9fb210e013a871b11e0b14322550b21966f5d2d59b32b367adab10dc64736f6c63430008090033",
  "linkReferences": {},
  "deployedLinkReferences": {}
}