{
  "_format": "hh-sol-artifact-1",
  "contractName": "FunctionsConsumerEscrow",
  "sourceName": "contracts/FunctionsConsumerEscrow.sol",
  "abi": [
    {
      "inputs": [
        {
          "internalType": "address",
          "name": "oracle",
          "type": "address"
        },
        {
          "internalType": "address",
          "name": "_mainAddress",
          "type": "address"
        },
        {
          "internalType": "string",
          "name": "_source",
          "type": "string"
        }
      ],
      "stateMutability": "payable",
      "type": "constructor"
    },
    {
      "inputs": [],
      "name": "EmptyArgs",
      "type": "error"
    },
    {
      "inputs": [],
      "name": "EmptySecrets",
      "type": "error"
    },
    {
      "inputs": [],
      "name": "EmptySource",
      "type": "error"
    },
    {
      "inputs": [],
      "name": "NoInlineSecrets",
      "type": "error"
    },
    {
      "inputs": [],
      "name": "RequestIsAlreadyPending",
      "type": "error"
    },
    {
      "inputs": [],
      "name": "RequestIsNotPending",
      "type": "error"
    },
    {
      "inputs": [],
      "name": "SenderIsNotRegistry",
      "type": "error"
    },
    {
      "anonymous": false,
      "inputs": [
        {
          "indexed": false,
          "internalType": "uint256",
          "name": "balance",
          "type": "uint256"
        }
      ],
      "name": "Approved",
      "type": "event"
    },
    {
      "anonymous": false,
      "inputs": [
        {
          "indexed": true,
          "internalType": "bytes32",
          "name": "requestId",
          "type": "bytes32"
        },
        {
          "indexed": false,
          "internalType": "bytes",
          "name": "result",
          "type": "bytes"
        },
        {
          "indexed": false,
          "internalType": "bytes",
          "name": "err",
          "type": "bytes"
        }
      ],
      "name": "OCRResponse",
      "type": "event"
    },
    {
      "anonymous": false,
      "inputs": [
        {
          "indexed": true,
          "internalType": "address",
          "name": "from",
          "type": "address"
        },
        {
          "indexed": true,
          "internalType": "address",
          "name": "to",
          "type": "address"
        }
      ],
      "name": "OwnershipTransferRequested",
      "type": "event"
    },
    {
      "anonymous": false,
      "inputs": [
        {
          "indexed": true,
          "internalType": "address",
          "name": "from",
          "type": "address"
        },
        {
          "indexed": true,
          "internalType": "address",
          "name": "to",
          "type": "address"
        }
      ],
      "name": "OwnershipTransferred",
      "type": "event"
    },
    {
      "anonymous": false,
      "inputs": [
        {
          "indexed": true,
          "internalType": "bytes32",
          "name": "id",
          "type": "bytes32"
        }
      ],
      "name": "RequestFulfilled",
      "type": "event"
    },
    {
      "anonymous": false,
      "inputs": [
        {
          "indexed": true,
          "internalType": "bytes32",
          "name": "id",
          "type": "bytes32"
        }
      ],
      "name": "RequestSent",
      "type": "event"
    },
    {
      "anonymous": false,
      "inputs": [
        {
          "indexed": false,
          "internalType": "string",
          "name": "name",
          "type": "string"
        }
      ],
      "name": "ResultCF",
      "type": "event"
    },
    {
      "inputs": [],
      "name": "Author_UserRepoIssue",
      "outputs": [
        {
          "internalType": "string",
          "name": "",
          "type": "string"
        }
      ],
      "stateMutability": "view",
      "type": "function"
    },
    {
      "inputs": [],
      "name": "acceptOwnership",
      "outputs": [],
      "stateMutability": "nonpayable",
      "type": "function"
    },
    {
      "inputs": [
        {
          "internalType": "address",
          "name": "oracleAddress",
          "type": "address"
        },
        {
          "internalType": "bytes32",
          "name": "requestId",
          "type": "bytes32"
        }
      ],
      "name": "addSimulatedRequestId",
      "outputs": [],
      "stateMutability": "nonpayable",
      "type": "function"
    },
    {
      "inputs": [],
      "name": "amount",
      "outputs": [
        {
          "internalType": "uint256",
          "name": "",
          "type": "uint256"
        }
      ],
      "stateMutability": "view",
      "type": "function"
    },
    {
      "inputs": [],
      "name": "beneficiary",
      "outputs": [
        {
          "internalType": "address",
          "name": "",
          "type": "address"
        }
      ],
      "stateMutability": "view",
      "type": "function"
    },
    {
      "inputs": [],
      "name": "depositor",
      "outputs": [
        {
          "internalType": "address",
          "name": "",
          "type": "address"
        }
      ],
      "stateMutability": "view",
      "type": "function"
    },
    {
      "inputs": [
        {
          "components": [
            {
              "internalType": "enum Functions.Location",
              "name": "codeLocation",
              "type": "uint8"
            },
            {
              "internalType": "enum Functions.Location",
              "name": "secretsLocation",
              "type": "uint8"
            },
            {
              "internalType": "enum Functions.CodeLanguage",
              "name": "language",
              "type": "uint8"
            },
            {
              "internalType": "string",
              "name": "source",
              "type": "string"
            },
            {
              "internalType": "bytes",
              "name": "secrets",
              "type": "bytes"
            },
            {
              "internalType": "string[]",
              "name": "args",
              "type": "string[]"
            }
          ],
          "internalType": "struct Functions.Request",
          "name": "req",
          "type": "tuple"
        },
        {
          "internalType": "uint64",
          "name": "subscriptionId",
          "type": "uint64"
        },
        {
          "internalType": "uint32",
          "name": "gasLimit",
          "type": "uint32"
        },
        {
          "internalType": "uint256",
          "name": "gasPrice",
          "type": "uint256"
        }
      ],
      "name": "estimateCost",
      "outputs": [
        {
          "internalType": "uint96",
          "name": "",
          "type": "uint96"
        }
      ],
      "stateMutability": "view",
      "type": "function"
    },
    {
      "inputs": [
        {
          "internalType": "string",
          "name": "source",
          "type": "string"
        },
        {
          "internalType": "bytes",
          "name": "secrets",
          "type": "bytes"
        },
        {
          "internalType": "string[]",
          "name": "args",
          "type": "string[]"
        },
        {
          "internalType": "uint64",
          "name": "subscriptionId",
          "type": "uint64"
        },
        {
          "internalType": "uint32",
          "name": "gasLimit",
          "type": "uint32"
        }
      ],
      "name": "executeRequest",
      "outputs": [
        {
          "internalType": "bytes32",
          "name": "",
          "type": "bytes32"
        }
      ],
      "stateMutability": "nonpayable",
      "type": "function"
    },
    {
      "inputs": [
        {
          "internalType": "string[]",
          "name": "args",
          "type": "string[]"
        }
      ],
      "name": "executeRequestFromEscrow",
      "outputs": [
        {
          "internalType": "bytes32",
          "name": "",
          "type": "bytes32"
        }
      ],
      "stateMutability": "nonpayable",
      "type": "function"
    },
    {
      "inputs": [],
      "name": "gasLimit_store",
      "outputs": [
        {
          "internalType": "uint32",
          "name": "",
          "type": "uint32"
        }
      ],
      "stateMutability": "view",
      "type": "function"
    },
    {
      "inputs": [],
      "name": "getDONPublicKey",
      "outputs": [
        {
          "internalType": "bytes",
          "name": "",
          "type": "bytes"
        }
      ],
      "stateMutability": "view",
      "type": "function"
    },
    {
      "inputs": [
        {
          "internalType": "bytes32",
          "name": "requestId",
          "type": "bytes32"
        },
        {
          "internalType": "bytes",
          "name": "response",
          "type": "bytes"
        },
        {
          "internalType": "bytes",
          "name": "err",
          "type": "bytes"
        }
      ],
      "name": "handleOracleFulfillment",
      "outputs": [],
      "stateMutability": "nonpayable",
      "type": "function"
    },
    {
      "inputs": [],
      "name": "isApproved",
      "outputs": [
        {
          "internalType": "bool",
          "name": "",
          "type": "bool"
        }
      ],
      "stateMutability": "view",
      "type": "function"
    },
    {
      "inputs": [],
      "name": "latestError",
      "outputs": [
        {
          "internalType": "bytes",
          "name": "",
          "type": "bytes"
        }
      ],
      "stateMutability": "view",
      "type": "function"
    },
    {
      "inputs": [],
      "name": "latestName",
      "outputs": [
        {
          "internalType": "string",
          "name": "",
          "type": "string"
        }
      ],
      "stateMutability": "view",
      "type": "function"
    },
    {
      "inputs": [],
      "name": "latestRequestId",
      "outputs": [
        {
          "internalType": "bytes32",
          "name": "",
          "type": "bytes32"
        }
      ],
      "stateMutability": "view",
      "type": "function"
    },
    {
      "inputs": [],
      "name": "latestResponse",
      "outputs": [
        {
          "internalType": "bytes",
          "name": "",
          "type": "bytes"
        }
      ],
      "stateMutability": "view",
      "type": "function"
    },
    {
      "inputs": [],
      "name": "owner",
      "outputs": [
        {
          "internalType": "address",
          "name": "",
          "type": "address"
        }
      ],
      "stateMutability": "view",
      "type": "function"
    },
    {
      "inputs": [
        {
          "internalType": "uint256",
          "name": "",
          "type": "uint256"
        }
      ],
      "name": "results",
      "outputs": [
        {
          "internalType": "bool",
          "name": "status",
          "type": "bool"
        },
        {
          "internalType": "string",
          "name": "author",
          "type": "string"
        }
      ],
      "stateMutability": "view",
      "type": "function"
    },
    {
      "inputs": [],
      "name": "secrets_store",
      "outputs": [
        {
          "internalType": "bytes",
          "name": "",
          "type": "bytes"
        }
      ],
      "stateMutability": "view",
      "type": "function"
    },
    {
      "inputs": [
        {
          "internalType": "uint64",
          "name": "_subId",
          "type": "uint64"
        }
      ],
      "name": "setSubscriptionId",
      "outputs": [],
      "stateMutability": "nonpayable",
      "type": "function"
    },
    {
      "inputs": [],
      "name": "source_store",
      "outputs": [
        {
          "internalType": "string",
          "name": "",
          "type": "string"
        }
      ],
      "stateMutability": "view",
      "type": "function"
    },
    {
      "inputs": [],
      "name": "subscriptionId_store",
      "outputs": [
        {
          "internalType": "uint64",
          "name": "",
          "type": "uint64"
        }
      ],
      "stateMutability": "view",
      "type": "function"
    },
    {
      "inputs": [
        {
          "internalType": "address",
          "name": "to",
          "type": "address"
        }
      ],
      "name": "transferOwnership",
      "outputs": [],
      "stateMutability": "nonpayable",
      "type": "function"
    },
    {
      "inputs": [
        {
          "internalType": "address",
          "name": "oracle",
          "type": "address"
        }
      ],
      "name": "updateOracleAddress",
      "outputs": [],
      "stateMutability": "nonpayable",
      "type": "function"
    }
  ],
  "bytecode": "0x60806040526000600d600c6101000a81548160ff02191690831515021790555060405162003dfe38038062003dfe83398181016040528101906200004491906200062b565b33806000856200005a816200020460201b60201c565b50600073ffffffffffffffffffffffffffffffffffffffff168273ffffffffffffffffffffffffffffffffffffffff161415620000ce576040517f08c379a0000000000000000000000000000000000000000000000000000000008152600401620000c59062000707565b60405180910390fd5b81600260006101000a81548173ffffffffffffffffffffffffffffffffffffffff021916908373ffffffffffffffffffffffffffffffffffffffff160217905550600073ffffffffffffffffffffffffffffffffffffffff168173ffffffffffffffffffffffffffffffffffffffff1614620001565762000155816200024760201b60201c565b5b50505081600a60006101000a81548173ffffffffffffffffffffffffffffffffffffffff021916908373ffffffffffffffffffffffffffffffffffffffff16021790555080600b9080519060200190620001b292919062000379565b5033600860006101000a81548173ffffffffffffffffffffffffffffffffffffffff021916908373ffffffffffffffffffffffffffffffffffffffff16021790555034600e8190555050505062000800565b806000806101000a81548173ffffffffffffffffffffffffffffffffffffffff021916908373ffffffffffffffffffffffffffffffffffffffff16021790555050565b3373ffffffffffffffffffffffffffffffffffffffff168173ffffffffffffffffffffffffffffffffffffffff161415620002b9576040517f08c379a0000000000000000000000000000000000000000000000000000000008152600401620002b09062000779565b60405180910390fd5b80600360006101000a81548173ffffffffffffffffffffffffffffffffffffffff021916908373ffffffffffffffffffffffffffffffffffffffff1602179055508073ffffffffffffffffffffffffffffffffffffffff16600260009054906101000a900473ffffffffffffffffffffffffffffffffffffffff1673ffffffffffffffffffffffffffffffffffffffff167fed8889f560326eb138920d842192f0eb3dd22b4f139c87a2c57538e05bae127860405160405180910390a350565b8280546200038790620007ca565b90600052602060002090601f016020900481019282620003ab5760008555620003f7565b82601f10620003c657805160ff1916838001178555620003f7565b82800160010185558215620003f7579182015b82811115620003f6578251825591602001919060010190620003d9565b5b5090506200040691906200040a565b5090565b5b80821115620004255760008160009055506001016200040b565b5090565b6000604051905090565b600080fd5b600080fd5b600073ffffffffffffffffffffffffffffffffffffffff82169050919050565b60006200046a826200043d565b9050919050565b6200047c816200045d565b81146200048857600080fd5b50565b6000815190506200049c8162000471565b92915050565b600080fd5b600080fd5b6000601f19601f8301169050919050565b7f4e487b7100000000000000000000000000000000000000000000000000000000600052604160045260246000fd5b620004f782620004ac565b810181811067ffffffffffffffff82111715620005195762000518620004bd565b5b80604052505050565b60006200052e62000429565b90506200053c8282620004ec565b919050565b600067ffffffffffffffff8211156200055f576200055e620004bd565b5b6200056a82620004ac565b9050602081019050919050565b60005b83811015620005975780820151818401526020810190506200057a565b83811115620005a7576000848401525b50505050565b6000620005c4620005be8462000541565b62000522565b905082815260208101848484011115620005e357620005e2620004a7565b5b620005f084828562000577565b509392505050565b600082601f83011262000610576200060f620004a2565b5b815162000622848260208601620005ad565b91505092915050565b60008060006060848603121562000647576200064662000433565b5b600062000657868287016200048b565b93505060206200066a868287016200048b565b925050604084015167ffffffffffffffff8111156200068e576200068d62000438565b5b6200069c86828701620005f8565b9150509250925092565b600082825260208201905092915050565b7f43616e6e6f7420736574206f776e657220746f207a65726f0000000000000000600082015250565b6000620006ef601883620006a6565b9150620006fc82620006b7565b602082019050919050565b600060208201905081810360008301526200072281620006e0565b9050919050565b7f43616e6e6f74207472616e7366657220746f2073656c66000000000000000000600082015250565b600062000761601783620006a6565b91506200076e8262000729565b602082019050919050565b60006020820190508181036000830152620007948162000752565b9050919050565b7f4e487b7100000000000000000000000000000000000000000000000000000000600052602260045260246000fd5b60006002820490506001821680620007e357607f821691505b60208210811415620007fa57620007f96200079b565b5b50919050565b6135ee80620008106000396000f3fe608060405234801561001057600080fd5b50600436106101735760003560e01c80638da5cb5b116100de578063c7c4ff4611610097578063ea7b4f7711610071578063ea7b4f771461041f578063f2fde38b1461043b578063f7023bb614610457578063fffeb84e1461047357610173565b8063c7c4ff46146103b3578063d328a91e146103d1578063d4b39175146103ef57610173565b80638da5cb5b146102ff5780639582dc191461031d578063aa8c217c1461033b578063bef3a2f014610359578063c54d2eee14610377578063c67289f71461039557610173565b806330bda99d1161013057806330bda99d1461024f57806338af3eed1461026b5780633921bc4b1461028957806343f1969c146102a75780636b8cfcd8146102c557806379ba5097146102f557610173565b80630ca761751461017857806319d913f5146101945780631aa46f59146101b25780631b0c27da146101d0578063277145891461020157806328f371aa14610231575b600080fd5b610192600480360381019061018d91906122e6565b610491565b005b61019c61059e565b6040516101a991906123f9565b60405180910390f35b6101ba61062c565b6040516101c7919061242a565b60405180910390f35b6101ea60048036038101906101e5919061247b565b610632565b6040516101f89291906124c3565b60405180910390f35b61021b600480360381019061021691906126f6565b6106fb565b604051610228919061242a565b60405180910390f35b610239610785565b60405161024691906127c5565b60405180910390f35b6102696004803603810190610264919061283e565b610798565b005b6102736107ae565b604051610280919061288d565b60405180910390f35b6102916107d4565b60405161029e91906123f9565b60405180910390f35b6102af610862565b6040516102bc91906128fd565b60405180910390f35b6102df60048036038101906102da919061297a565b6108f0565b6040516102ec919061242a565b60405180910390f35b6102fd610a73565b005b610307610c0a565b604051610314919061288d565b60405180910390f35b610325610c34565b60405161033291906129d6565b60405180910390f35b610343610c4e565b6040516103509190612a00565b60405180910390f35b610361610c54565b60405161036e91906128fd565b60405180910390f35b61037f610ce2565b60405161038c91906123f9565b60405180910390f35b61039d610d70565b6040516103aa9190612a2a565b60405180910390f35b6103bb610d86565b6040516103c8919061288d565b60405180910390f35b6103d9610dac565b6040516103e691906128fd565b60405180910390f35b61040960048036038101906104049190612b8d565b610e56565b6040516104169190612c37565b60405180910390f35b61043960048036038101906104349190612c52565b610f1a565b005b61045560048036038101906104509190612c7f565b610f46565b005b610471600480360381019061046c9190612c7f565b610f5a565b005b61047b610f6e565b60405161048891906128fd565b60405180910390f35b826001600082815260200190815260200160002060009054906101000a900473ffffffffffffffffffffffffffffffffffffffff1673ffffffffffffffffffffffffffffffffffffffff163373ffffffffffffffffffffffffffffffffffffffff161461052a576040517fa0c5ec6300000000000000000000000000000000000000000000000000000000815260040160405180910390fd5b6001600082815260200190815260200160002060006101000a81549073ffffffffffffffffffffffffffffffffffffffff0219169055807f85e1543bf2f84fe80c6badbce3648c8539ad1df4d2b3d822938ca0538be727e660405160405180910390a2610598848484610ffc565b50505050565b600b80546105ab90612cdb565b80601f01602080910402602001604051908101604052809291908181526020018280546105d790612cdb565b80156106245780601f106105f957610100808354040283529160200191610624565b820191906000526020600020905b81548152906001019060200180831161060757829003601f168201915b505050505081565b60045481565b6010818154811061064257600080fd5b90600052602060002090600202016000915090508060000160009054906101000a900460ff169080600101805461067890612cdb565b80601f01602080910402602001604051908101604052809291908181526020018280546106a490612cdb565b80156106f15780601f106106c6576101008083540402835291602001916106f1565b820191906000526020600020905b8154815290600101906020018083116106d457829003601f168201915b5050505050905082565b60006107056110ed565b61070d611f88565b610725600080898461117f909392919063ffffffff16565b60008651111561074357610742868261122a90919063ffffffff16565b5b6000855111156107615761076085826112a490919063ffffffff16565b5b600061076e8286866112ed565b905080600481905550809250505095945050505050565b600d600c9054906101000a900460ff1681565b6107a06110ed565b6107aa82826114d0565b5050565b600960009054906101000a900473ffffffffffffffffffffffffffffffffffffffff1681565b600f80546107e190612cdb565b80601f016020809104026020016040519081016040528092919081815260200182805461080d90612cdb565b801561085a5780601f1061082f5761010080835404028352916020019161085a565b820191906000526020600020905b81548152906001019060200180831161083d57829003601f168201915b505050505081565b600c805461086f90612cdb565b80601f016020809104026020016040519081016040528092919081815260200182805461089b90612cdb565b80156108e85780601f106108bd576101008083540402835291602001916108e8565b820191906000526020600020905b8154815290600101906020018083116108cb57829003601f168201915b505050505081565b6000600a60009054906101000a900473ffffffffffffffffffffffffffffffffffffffff1673ffffffffffffffffffffffffffffffffffffffff1663b166a09f336040518263ffffffff1660e01b815260040161094d919061288d565b60206040518083038186803b15801561096557600080fd5b505afa158015610979573d6000803e3d6000fd5b505050506040513d601f19601f8201168201806040525081019061099d9190612d39565b6109a657600080fd5b606060006207a1209050610a69600b80546109c090612cdb565b80601f01602080910402602001604051908101604052809291908181526020018280546109ec90612cdb565b8015610a395780601f10610a0e57610100808354040283529160200191610a39565b820191906000526020600020905b815481529060010190602001808311610a1c57829003601f168201915b505050505083878790610a4c9190612d66565b600d60009054906101000a900467ffffffffffffffff16856106fb565b9250505092915050565b600360009054906101000a900473ffffffffffffffffffffffffffffffffffffffff1673ffffffffffffffffffffffffffffffffffffffff163373ffffffffffffffffffffffffffffffffffffffff1614610b03576040517f08c379a0000000000000000000000000000000000000000000000000000000008152600401610afa90612dc7565b60405180910390fd5b6000600260009054906101000a900473ffffffffffffffffffffffffffffffffffffffff16905033600260006101000a81548173ffffffffffffffffffffffffffffffffffffffff021916908373ffffffffffffffffffffffffffffffffffffffff1602179055506000600360006101000a81548173ffffffffffffffffffffffffffffffffffffffff021916908373ffffffffffffffffffffffffffffffffffffffff1602179055503373ffffffffffffffffffffffffffffffffffffffff168173ffffffffffffffffffffffffffffffffffffffff167f8be0079c531659141344cd1fd0a4f28419497f9722a3daafe3b4186f6b6457e060405160405180910390a350565b6000600260009054906101000a900473ffffffffffffffffffffffffffffffffffffffff16905090565b600d60009054906101000a900467ffffffffffffffff1681565b600e5481565b60058054610c6190612cdb565b80601f0160208091040260200160405190810160405280929190818152602001828054610c8d90612cdb565b8015610cda5780601f10610caf57610100808354040283529160200191610cda565b820191906000526020600020905b815481529060010190602001808311610cbd57829003601f168201915b505050505081565b60078054610cef90612cdb565b80601f0160208091040260200160405190810160405280929190818152602001828054610d1b90612cdb565b8015610d685780601f10610d3d57610100808354040283529160200191610d68565b820191906000526020600020905b815481529060010190602001808311610d4b57829003601f168201915b505050505081565b600d60089054906101000a900463ffffffff1681565b600860009054906101000a900473ffffffffffffffffffffffffffffffffffffffff1681565b606060008054906101000a900473ffffffffffffffffffffffffffffffffffffffff1673ffffffffffffffffffffffffffffffffffffffff1663d328a91e6040518163ffffffff1660e01b815260040160006040518083038186803b158015610e1457600080fd5b505afa158015610e28573d6000803e3d6000fd5b505050506040513d6000823e3d601f19601f82011682018060405250810190610e519190612e57565b905090565b60008060009054906101000a900473ffffffffffffffffffffffffffffffffffffffff1673ffffffffffffffffffffffffffffffffffffffff1663d227d24585610e9f886115c1565b86866040518563ffffffff1660e01b8152600401610ec09493929190612ea0565b60206040518083038186803b158015610ed857600080fd5b505afa158015610eec573d6000803e3d6000fd5b505050506040513d601f19601f82011682018060405250810190610f109190612f18565b9050949350505050565b80600d60006101000a81548167ffffffffffffffff021916908367ffffffffffffffff16021790555050565b610f4e6110ed565b610f57816118c2565b50565b610f626110ed565b610f6b816119f1565b50565b60068054610f7b90612cdb565b80601f0160208091040260200160405190810160405280929190818152602001828054610fa790612cdb565b8015610ff45780601f10610fc957610100808354040283529160200191610ff4565b820191906000526020600020905b815481529060010190602001808311610fd757829003601f168201915b505050505081565b8160059080519060200190611012929190611ff3565b508060069080519060200190611029929190611ff3565b50600080825114905080156110755760008360405160200161104b9190612f81565b60405160208183030381529060405290508060079080519060200190611072929190612079565b50505b837f7bab0ec163b5c132c72b8146ac4d6e067e82ed58f8b131150aa71c925891156284846040516110a7929190612f98565b60405180910390a27f6027a665a67846f36315102f12bd302883c86f3e5a86bf0583b01d34ede17724600f6040516110df9190613064565b60405180910390a150505050565b600260009054906101000a900473ffffffffffffffffffffffffffffffffffffffff1673ffffffffffffffffffffffffffffffffffffffff163373ffffffffffffffffffffffffffffffffffffffff161461117d576040517f08c379a0000000000000000000000000000000000000000000000000000000008152600401611174906130d2565b60405180910390fd5b565b6000815114156111bb576040517f22ce3edd00000000000000000000000000000000000000000000000000000000815260040160405180910390fd5b82846000019060018111156111d3576111d26130f2565b5b908160018111156111e7576111e66130f2565b5b815250508184604001906000811115611203576112026130f2565b5b90816000811115611217576112166130f2565b5b8152505080846060018190525050505050565b600081511415611266576040517fe889636f00000000000000000000000000000000000000000000000000000000815260040160405180910390fd5b60018260200190600181111561127f5761127e6130f2565b5b90816001811115611293576112926130f2565b5b815250508082608001819052505050565b6000815114156112e0576040517ffe936cb700000000000000000000000000000000000000000000000000000000815260040160405180910390fd5b808260a001819052505050565b60008060008054906101000a900473ffffffffffffffffffffffffffffffffffffffff1673ffffffffffffffffffffffffffffffffffffffff166328242b0485611336886115c1565b866040518463ffffffff1660e01b815260040161135593929190613121565b602060405180830381600087803b15801561136f57600080fd5b505af1158015611383573d6000803e3d6000fd5b505050506040513d601f19601f820116820180604052508101906113a79190613174565b905060008054906101000a900473ffffffffffffffffffffffffffffffffffffffff1673ffffffffffffffffffffffffffffffffffffffff16635ab1bd536040518163ffffffff1660e01b815260040160206040518083038186803b15801561140f57600080fd5b505afa158015611423573d6000803e3d6000fd5b505050506040513d601f19601f8201168201806040525081019061144791906131b6565b6001600083815260200190815260200160002060006101000a81548173ffffffffffffffffffffffffffffffffffffffff021916908373ffffffffffffffffffffffffffffffffffffffff160217905550807f1131472297a800fee664d1d89cfa8f7676ff07189ecc53f80bbb5f4969099db860405160405180910390a2809150509392505050565b80600073ffffffffffffffffffffffffffffffffffffffff166001600083815260200190815260200160002060009054906101000a900473ffffffffffffffffffffffffffffffffffffffff1673ffffffffffffffffffffffffffffffffffffffff161461156a576040517f8b457ad200000000000000000000000000000000000000000000000000000000815260040160405180910390fd5b826001600084815260200190815260200160002060006101000a81548173ffffffffffffffffffffffffffffffffffffffff021916908373ffffffffffffffffffffffffffffffffffffffff160217905550505050565b60606115cb6120ff565b6115db8160000151610100611a34565b5061161b816040518060400160405280600c81526020017f636f64654c6f636174696f6e0000000000000000000000000000000000000000815250611aad565b61163b8184600001516001811115611636576116356130f2565b5b611ad6565b61167a816040518060400160405280600881526020017f6c616e6775616765000000000000000000000000000000000000000000000000815250611aad565b61169a8184604001516000811115611695576116946130f2565b5b611ad6565b6116d9816040518060400160405280600681526020017f736f757263650000000000000000000000000000000000000000000000000000815250611aad565b6116e7818460600151611aad565b60008360a0015151111561179357611734816040518060400160405280600481526020017f6172677300000000000000000000000000000000000000000000000000000000815250611aad565b61173d81611b26565b60005b8360a001515181101561178857611775828560a001518381518110611768576117676131e3565b5b6020026020010151611aad565b808061178090613241565b915050611740565b5061179281611b4e565b5b600083608001515111156118b157600060018111156117b5576117b46130f2565b5b836020015160018111156117cc576117cb6130f2565b5b1415611804576040517fa80d31f700000000000000000000000000000000000000000000000000000000815260040160405180910390fd5b611843816040518060400160405280600f81526020017f736563726574734c6f636174696f6e0000000000000000000000000000000000815250611aad565b611863818460200151600181111561185e5761185d6130f2565b5b611ad6565b6118a2816040518060400160405280600781526020017f7365637265747300000000000000000000000000000000000000000000000000815250611aad565b6118b0818460800151611b76565b5b806000015160000151915050919050565b3373ffffffffffffffffffffffffffffffffffffffff168173ffffffffffffffffffffffffffffffffffffffff161415611931576040517f08c379a0000000000000000000000000000000000000000000000000000000008152600401611928906132d6565b60405180910390fd5b80600360006101000a81548173ffffffffffffffffffffffffffffffffffffffff021916908373ffffffffffffffffffffffffffffffffffffffff1602179055508073ffffffffffffffffffffffffffffffffffffffff16600260009054906101000a900473ffffffffffffffffffffffffffffffffffffffff1673ffffffffffffffffffffffffffffffffffffffff167fed8889f560326eb138920d842192f0eb3dd22b4f139c87a2c57538e05bae127860405160405180910390a350565b806000806101000a81548173ffffffffffffffffffffffffffffffffffffffff021916908373ffffffffffffffffffffffffffffffffffffffff16021790555050565b611a3c61211f565b6000602083611a4b9190613325565b14611a7757602082611a5d9190613325565b6020611a699190613356565b82611a74919061338a565b91505b818360200181815250506040518084526000815282810160200181811015611a9e57600080fd5b80604052505082905092915050565b611aba8260038351611b9f565b611ad1818360000151611d4890919063ffffffff16565b505050565b611af860026005600660ff16901b178360000151611d6490919063ffffffff16565b50611b228282604051602001611b0e9190612a00565b604051602081830303815290604052611b76565b5050565b611b31816004611dce565b600181602001818151611b44919061338a565b9150818152505050565b611b59816007611dce565b600181602001818151611b6c9190613356565b9150818152505050565b611b838260028351611b9f565b611b9a818360000151611d4890919063ffffffff16565b505050565b60178167ffffffffffffffff1611611bda57611bd48160058460ff16901b60ff16178460000151611d6490919063ffffffff16565b50611d43565b60ff8167ffffffffffffffff1611611c3857611c0d601860058460ff16901b178460000151611d6490919063ffffffff16565b50611c328167ffffffffffffffff1660018560000151611df49092919063ffffffff16565b50611d42565b61ffff8167ffffffffffffffff1611611c9757611c6c601960058460ff16901b178460000151611d6490919063ffffffff16565b50611c918167ffffffffffffffff1660028560000151611df49092919063ffffffff16565b50611d41565b63ffffffff8167ffffffffffffffff1611611cf857611ccd601a60058460ff16901b178460000151611d6490919063ffffffff16565b50611cf28167ffffffffffffffff1660048560000151611df49092919063ffffffff16565b50611d40565b611d19601b60058460ff16901b178460000151611d6490919063ffffffff16565b50611d3e8167ffffffffffffffff1660088560000151611df49092919063ffffffff16565b505b5b5b5b505050565b611d5061211f565b611d5c83838451611e81565b905092915050565b611d6c61211f565b600083600001515190506000600182611d85919061338a565b905084602001518210611da957611da885600283611da391906133e0565b611f64565b5b84516020838201018581538151831115611dc1578282525b5050849250505092915050565b611def601f60058360ff16901b178360000151611d6490919063ffffffff16565b505050565b611dfc61211f565b6000846000015151905060008184611e14919061338a565b90508560200151811115611e3957611e3886600283611e3391906133e0565b611f64565b5b6000600185610100611e4b919061356d565b611e559190613356565b905086518281018783198251161781528151841115611e72578382525b50508693505050509392505050565b611e8961211f565b8251821115611e9757600080fd5b6000846000015151905060008382611eaf919061338a565b90508560200151811115611ed457611ed386600283611ece91906133e0565b611f64565b5b60008087518051856020830101935080851115611eef578482525b60208901925050505b60208610611f365780518252602082611f11919061338a565b9150602081611f20919061338a565b9050602086611f2f9190613356565b9550611ef8565b60006001876020036101000a0390508019825116818451168181178552505050879450505050509392505050565b600082600001519050611f778383611a34565b50611f828382611d48565b50505050565b6040518060c0016040528060006001811115611fa757611fa66130f2565b5b815260200160006001811115611fc057611fbf6130f2565b5b8152602001600080811115611fd857611fd76130f2565b5b81526020016060815260200160608152602001606081525090565b828054611fff90612cdb565b90600052602060002090601f0160209004810192826120215760008555612068565b82601f1061203a57805160ff1916838001178555612068565b82800160010185558215612068579182015b8281111561206757825182559160200191906001019061204c565b5b5090506120759190612139565b5090565b82805461208590612cdb565b90600052602060002090601f0160209004810192826120a757600085556120ee565b82601f106120c057805160ff19168380011785556120ee565b828001600101855582156120ee579182015b828111156120ed5782518255916020019190600101906120d2565b5b5090506120fb9190612139565b5090565b604051806040016040528061211261211f565b8152602001600081525090565b604051806040016040528060608152602001600081525090565b5b8082111561215257600081600090555060010161213a565b5090565b6000604051905090565b600080fd5b600080fd5b6000819050919050565b61217d8161216a565b811461218857600080fd5b50565b60008135905061219a81612174565b92915050565b600080fd5b600080fd5b6000601f19601f8301169050919050565b7f4e487b7100000000000000000000000000000000000000000000000000000000600052604160045260246000fd5b6121f3826121aa565b810181811067ffffffffffffffff82111715612212576122116121bb565b5b80604052505050565b6000612225612156565b905061223182826121ea565b919050565b600067ffffffffffffffff821115612251576122506121bb565b5b61225a826121aa565b9050602081019050919050565b82818337600083830152505050565b600061228961228484612236565b61221b565b9050828152602081018484840111156122a5576122a46121a5565b5b6122b0848285612267565b509392505050565b600082601f8301126122cd576122cc6121a0565b5b81356122dd848260208601612276565b91505092915050565b6000806000606084860312156122ff576122fe612160565b5b600061230d8682870161218b565b935050602084013567ffffffffffffffff81111561232e5761232d612165565b5b61233a868287016122b8565b925050604084013567ffffffffffffffff81111561235b5761235a612165565b5b612367868287016122b8565b9150509250925092565b600081519050919050565b600082825260208201905092915050565b60005b838110156123ab578082015181840152602081019050612390565b838111156123ba576000848401525b50505050565b60006123cb82612371565b6123d5818561237c565b93506123e581856020860161238d565b6123ee816121aa565b840191505092915050565b6000602082019050818103600083015261241381846123c0565b905092915050565b6124248161216a565b82525050565b600060208201905061243f600083018461241b565b92915050565b6000819050919050565b61245881612445565b811461246357600080fd5b50565b6000813590506124758161244f565b92915050565b60006020828403121561249157612490612160565b5b600061249f84828501612466565b91505092915050565b60008115159050919050565b6124bd816124a8565b82525050565b60006040820190506124d860008301856124b4565b81810360208301526124ea81846123c0565b90509392505050565b600067ffffffffffffffff82111561250e5761250d6121bb565b5b612517826121aa565b9050602081019050919050565b6000612537612532846124f3565b61221b565b905082815260208101848484011115612553576125526121a5565b5b61255e848285612267565b509392505050565b600082601f83011261257b5761257a6121a0565b5b813561258b848260208601612524565b91505092915050565b600067ffffffffffffffff8211156125af576125ae6121bb565b5b602082029050602081019050919050565b600080fd5b60006125d86125d384612594565b61221b565b905080838252602082019050602084028301858111156125fb576125fa6125c0565b5b835b8181101561264257803567ffffffffffffffff8111156126205761261f6121a0565b5b80860161262d8982612566565b855260208501945050506020810190506125fd565b5050509392505050565b600082601f830112612661576126606121a0565b5b81356126718482602086016125c5565b91505092915050565b600067ffffffffffffffff82169050919050565b6126978161267a565b81146126a257600080fd5b50565b6000813590506126b48161268e565b92915050565b600063ffffffff82169050919050565b6126d3816126ba565b81146126de57600080fd5b50565b6000813590506126f0816126ca565b92915050565b600080600080600060a0868803121561271257612711612160565b5b600086013567ffffffffffffffff8111156127305761272f612165565b5b61273c88828901612566565b955050602086013567ffffffffffffffff81111561275d5761275c612165565b5b612769888289016122b8565b945050604086013567ffffffffffffffff81111561278a57612789612165565b5b6127968882890161264c565b93505060606127a7888289016126a5565b92505060806127b8888289016126e1565b9150509295509295909350565b60006020820190506127da60008301846124b4565b92915050565b600073ffffffffffffffffffffffffffffffffffffffff82169050919050565b600061280b826127e0565b9050919050565b61281b81612800565b811461282657600080fd5b50565b60008135905061283881612812565b92915050565b6000806040838503121561285557612854612160565b5b600061286385828601612829565b92505060206128748582860161218b565b9150509250929050565b61288781612800565b82525050565b60006020820190506128a2600083018461287e565b92915050565b600081519050919050565b600082825260208201905092915050565b60006128cf826128a8565b6128d981856128b3565b93506128e981856020860161238d565b6128f2816121aa565b840191505092915050565b6000602082019050818103600083015261291781846128c4565b905092915050565b600080fd5b60008083601f84011261293a576129396121a0565b5b8235905067ffffffffffffffff8111156129575761295661291f565b5b602083019150836020820283011115612973576129726125c0565b5b9250929050565b6000806020838503121561299157612990612160565b5b600083013567ffffffffffffffff8111156129af576129ae612165565b5b6129bb85828601612924565b92509250509250929050565b6129d08161267a565b82525050565b60006020820190506129eb60008301846129c7565b92915050565b6129fa81612445565b82525050565b6000602082019050612a1560008301846129f1565b92915050565b612a24816126ba565b82525050565b6000602082019050612a3f6000830184612a1b565b92915050565b600080fd5b600080fd5b60028110612a5c57600080fd5b50565b600081359050612a6e81612a4f565b92915050565b60018110612a8157600080fd5b50565b600081359050612a9381612a74565b92915050565b600060c08284031215612aaf57612aae612a45565b5b612ab960c061221b565b90506000612ac984828501612a5f565b6000830152506020612add84828501612a5f565b6020830152506040612af184828501612a84565b604083015250606082013567ffffffffffffffff811115612b1557612b14612a4a565b5b612b2184828501612566565b606083015250608082013567ffffffffffffffff811115612b4557612b44612a4a565b5b612b51848285016122b8565b60808301525060a082013567ffffffffffffffff811115612b7557612b74612a4a565b5b612b818482850161264c565b60a08301525092915050565b60008060008060808587031215612ba757612ba6612160565b5b600085013567ffffffffffffffff811115612bc557612bc4612165565b5b612bd187828801612a99565b9450506020612be2878288016126a5565b9350506040612bf3878288016126e1565b9250506060612c0487828801612466565b91505092959194509250565b60006bffffffffffffffffffffffff82169050919050565b612c3181612c10565b82525050565b6000602082019050612c4c6000830184612c28565b92915050565b600060208284031215612c6857612c67612160565b5b6000612c76848285016126a5565b91505092915050565b600060208284031215612c9557612c94612160565b5b6000612ca384828501612829565b91505092915050565b7f4e487b7100000000000000000000000000000000000000000000000000000000600052602260045260246000fd5b60006002820490506001821680612cf357607f821691505b60208210811415612d0757612d06612cac565b5b50919050565b612d16816124a8565b8114612d2157600080fd5b50565b600081519050612d3381612d0d565b92915050565b600060208284031215612d4f57612d4e612160565b5b6000612d5d84828501612d24565b91505092915050565b6000612d733684846125c5565b905092915050565b7f4d7573742062652070726f706f736564206f776e657200000000000000000000600082015250565b6000612db160168361237c565b9150612dbc82612d7b565b602082019050919050565b60006020820190508181036000830152612de081612da4565b9050919050565b6000612dfa612df584612236565b61221b565b905082815260208101848484011115612e1657612e156121a5565b5b612e2184828561238d565b509392505050565b600082601f830112612e3e57612e3d6121a0565b5b8151612e4e848260208601612de7565b91505092915050565b600060208284031215612e6d57612e6c612160565b5b600082015167ffffffffffffffff811115612e8b57612e8a612165565b5b612e9784828501612e29565b91505092915050565b6000608082019050612eb560008301876129c7565b8181036020830152612ec781866128c4565b9050612ed66040830185612a1b565b612ee360608301846129f1565b95945050505050565b612ef581612c10565b8114612f0057600080fd5b50565b600081519050612f1281612eec565b92915050565b600060208284031215612f2e57612f2d612160565b5b6000612f3c84828501612f03565b91505092915050565b600081905092915050565b6000612f5b826128a8565b612f658185612f45565b9350612f7581856020860161238d565b80840191505092915050565b6000612f8d8284612f50565b915081905092915050565b60006040820190508181036000830152612fb281856128c4565b90508181036020830152612fc681846128c4565b90509392505050565b60008190508160005260206000209050919050565b60008154612ff181612cdb565b612ffb818661237c565b9450600182166000811461301657600181146130285761305b565b60ff198316865260208601935061305b565b61303185612fcf565b60005b8381101561305357815481890152600182019150602081019050613034565b808801955050505b50505092915050565b6000602082019050818103600083015261307e8184612fe4565b905092915050565b7f4f6e6c792063616c6c61626c65206279206f776e657200000000000000000000600082015250565b60006130bc60168361237c565b91506130c782613086565b602082019050919050565b600060208201905081810360008301526130eb816130af565b9050919050565b7f4e487b7100000000000000000000000000000000000000000000000000000000600052602160045260246000fd5b600060608201905061313660008301866129c7565b818103602083015261314881856128c4565b90506131576040830184612a1b565b949350505050565b60008151905061316e81612174565b92915050565b60006020828403121561318a57613189612160565b5b60006131988482850161315f565b91505092915050565b6000815190506131b081612812565b92915050565b6000602082840312156131cc576131cb612160565b5b60006131da848285016131a1565b91505092915050565b7f4e487b7100000000000000000000000000000000000000000000000000000000600052603260045260246000fd5b7f4e487b7100000000000000000000000000000000000000000000000000000000600052601160045260246000fd5b600061324c82612445565b91507fffffffffffffffffffffffffffffffffffffffffffffffffffffffffffffffff82141561327f5761327e613212565b5b600182019050919050565b7f43616e6e6f74207472616e7366657220746f2073656c66000000000000000000600082015250565b60006132c060178361237c565b91506132cb8261328a565b602082019050919050565b600060208201905081810360008301526132ef816132b3565b9050919050565b7f4e487b7100000000000000000000000000000000000000000000000000000000600052601260045260246000fd5b600061333082612445565b915061333b83612445565b92508261334b5761334a6132f6565b5b828206905092915050565b600061336182612445565b915061336c83612445565b92508282101561337f5761337e613212565b5b828203905092915050565b600061339582612445565b91506133a083612445565b9250827fffffffffffffffffffffffffffffffffffffffffffffffffffffffffffffffff038211156133d5576133d4613212565b5b828201905092915050565b60006133eb82612445565b91506133f683612445565b9250817fffffffffffffffffffffffffffffffffffffffffffffffffffffffffffffffff048311821515161561342f5761342e613212565b5b828202905092915050565b60008160011c9050919050565b6000808291508390505b60018511156134915780860481111561346d5761346c613212565b5b600185161561347c5780820291505b808102905061348a8561343a565b9450613451565b94509492505050565b6000826134aa5760019050613566565b816134b85760009050613566565b81600181146134ce57600281146134d857613507565b6001915050613566565b60ff8411156134ea576134e9613212565b5b8360020a91508482111561350157613500613212565b5b50613566565b5060208310610133831016604e8410600b841016171561353c5782820a90508381111561353757613536613212565b5b613566565b6135498484846001613447565b925090508184048111156135605761355f613212565b5b81810290505b9392505050565b600061357882612445565b915061358383612445565b92506135b07fffffffffffffffffffffffffffffffffffffffffffffffffffffffffffffffff848461349a565b90509291505056fea2646970667358221220f8904ba93aa85340f2bc06788b754e9ed73e9046f2340da185a6db8b08d7202664736f6c63430008090033",
  "linkReferences": {},
  "deployedLinkReferences": {}
}